{
  "_format": "hh3-artifact-1",
  "contractName": "WormholeToken",
  "sourceName": "contracts/WormholeToken.sol",
  "abi": [
    {
      "inputs": [
        {
          "internalType": "address",
          "name": "_privateTransferVerifier",
          "type": "address"
        }
      ],
      "stateMutability": "nonpayable",
      "type": "constructor"
    },
    {
      "inputs": [
        {
          "internalType": "address",
          "name": "spender",
          "type": "address"
        },
        {
          "internalType": "uint256",
          "name": "allowance",
          "type": "uint256"
        },
        {
          "internalType": "uint256",
          "name": "needed",
          "type": "uint256"
        }
      ],
      "name": "ERC20InsufficientAllowance",
      "type": "error"
    },
    {
      "inputs": [
        {
          "internalType": "address",
          "name": "sender",
          "type": "address"
        },
        {
          "internalType": "uint256",
          "name": "balance",
          "type": "uint256"
        },
        {
          "internalType": "uint256",
          "name": "needed",
          "type": "uint256"
        }
      ],
      "name": "ERC20InsufficientBalance",
      "type": "error"
    },
    {
      "inputs": [
        {
          "internalType": "address",
          "name": "approver",
          "type": "address"
        }
      ],
      "name": "ERC20InvalidApprover",
      "type": "error"
    },
    {
      "inputs": [
        {
          "internalType": "address",
          "name": "receiver",
          "type": "address"
        }
      ],
      "name": "ERC20InvalidReceiver",
      "type": "error"
    },
    {
      "inputs": [
        {
          "internalType": "address",
          "name": "sender",
          "type": "address"
        }
      ],
      "name": "ERC20InvalidSender",
      "type": "error"
    },
    {
      "inputs": [
        {
          "internalType": "address",
          "name": "spender",
          "type": "address"
        }
      ],
      "name": "ERC20InvalidSpender",
      "type": "error"
    },
    {
      "inputs": [],
      "name": "InvalidShortString",
      "type": "error"
    },
    {
      "inputs": [
        {
          "internalType": "string",
          "name": "str",
          "type": "string"
        }
      ],
      "name": "StringTooLong",
      "type": "error"
    },
    {
      "inputs": [],
      "name": "VerificationFailed",
      "type": "error"
    },
    {
      "anonymous": false,
      "inputs": [
        {
          "indexed": true,
          "internalType": "address",
          "name": "owner",
          "type": "address"
        },
        {
          "indexed": true,
          "internalType": "address",
          "name": "spender",
          "type": "address"
        },
        {
          "indexed": false,
          "internalType": "uint256",
          "name": "value",
          "type": "uint256"
        }
      ],
      "name": "Approval",
      "type": "event"
    },
    {
      "anonymous": false,
      "inputs": [],
      "name": "EIP712DomainChanged",
      "type": "event"
    },
    {
      "anonymous": false,
      "inputs": [
        {
          "indexed": false,
          "internalType": "uint256",
          "name": "leaf",
          "type": "uint256"
        }
      ],
      "name": "NewLeaf",
      "type": "event"
    },
    {
      "anonymous": false,
      "inputs": [
        {
          "indexed": true,
          "internalType": "uint256",
          "name": "accountNoteNullifier",
          "type": "uint256"
        },
        {
          "indexed": false,
          "internalType": "uint256",
          "name": "amount",
          "type": "uint256"
        }
      ],
      "name": "PrivateTransfer",
      "type": "event"
    },
    {
      "anonymous": false,
      "inputs": [
        {
          "indexed": true,
          "internalType": "address",
          "name": "from",
          "type": "address"
        },
        {
          "indexed": true,
          "internalType": "address",
          "name": "to",
          "type": "address"
        },
        {
          "indexed": false,
          "internalType": "uint256",
          "name": "value",
          "type": "uint256"
        }
      ],
      "name": "Transfer",
      "type": "event"
    },
    {
      "inputs": [],
      "name": "TOTAL_RECEIVED_DOMAIN",
      "outputs": [
        {
          "internalType": "uint256",
          "name": "",
          "type": "uint256"
        }
      ],
      "stateMutability": "view",
      "type": "function"
    },
    {
      "inputs": [
        {
          "internalType": "uint256",
          "name": "_amount",
          "type": "uint256"
        },
        {
          "internalType": "bytes32",
          "name": "_signatureHash",
          "type": "bytes32"
        },
        {
          "internalType": "uint256",
          "name": "_accountNoteHash",
          "type": "uint256"
        },
        {
          "internalType": "uint256",
          "name": "_accountNoteNullifier",
          "type": "uint256"
        },
        {
          "internalType": "uint256",
          "name": "_root",
          "type": "uint256"
        }
      ],
      "name": "_formatPublicInputs",
      "outputs": [
        {
          "internalType": "bytes32[]",
          "name": "",
          "type": "bytes32[]"
        }
      ],
      "stateMutability": "pure",
      "type": "function"
    },
    {
      "inputs": [
        {
          "internalType": "bytes32",
          "name": "message",
          "type": "bytes32"
        }
      ],
      "name": "_getMessageWithEthPrefix",
      "outputs": [
        {
          "internalType": "bytes",
          "name": "",
          "type": "bytes"
        }
      ],
      "stateMutability": "pure",
      "type": "function"
    },
    {
      "inputs": [
        {
          "internalType": "address",
          "name": "owner",
          "type": "address"
        },
        {
          "internalType": "address",
          "name": "spender",
          "type": "address"
        }
      ],
      "name": "allowance",
      "outputs": [
        {
          "internalType": "uint256",
          "name": "",
          "type": "uint256"
        }
      ],
      "stateMutability": "view",
      "type": "function"
    },
    {
      "inputs": [],
      "name": "amountFreeTokens",
      "outputs": [
        {
          "internalType": "uint256",
          "name": "",
          "type": "uint256"
        }
      ],
      "stateMutability": "view",
      "type": "function"
    },
    {
      "inputs": [
        {
          "internalType": "address",
          "name": "spender",
          "type": "address"
        },
        {
          "internalType": "uint256",
          "name": "value",
          "type": "uint256"
        }
      ],
      "name": "approve",
      "outputs": [
        {
          "internalType": "bool",
          "name": "",
          "type": "bool"
        }
      ],
      "stateMutability": "nonpayable",
      "type": "function"
    },
    {
      "inputs": [
        {
          "internalType": "address",
          "name": "account",
          "type": "address"
        }
      ],
      "name": "balanceOf",
      "outputs": [
        {
          "internalType": "uint256",
          "name": "",
          "type": "uint256"
        }
      ],
      "stateMutability": "view",
      "type": "function"
    },
    {
      "inputs": [],
      "name": "decimals",
      "outputs": [
        {
          "internalType": "uint8",
          "name": "",
          "type": "uint8"
        }
      ],
      "stateMutability": "view",
      "type": "function"
    },
    {
      "inputs": [],
      "name": "eip712Domain",
      "outputs": [
        {
          "internalType": "bytes1",
          "name": "fields",
          "type": "bytes1"
        },
        {
          "internalType": "string",
          "name": "name",
          "type": "string"
        },
        {
          "internalType": "string",
          "name": "version",
          "type": "string"
        },
        {
          "internalType": "uint256",
          "name": "chainId",
          "type": "uint256"
        },
        {
          "internalType": "address",
          "name": "verifyingContract",
          "type": "address"
        },
        {
          "internalType": "bytes32",
          "name": "salt",
          "type": "bytes32"
        },
        {
          "internalType": "uint256[]",
          "name": "extensions",
          "type": "uint256[]"
        }
      ],
      "stateMutability": "view",
      "type": "function"
    },
    {
      "inputs": [
        {
          "internalType": "address",
          "name": "_to",
          "type": "address"
        }
      ],
      "name": "getFreeTokens",
      "outputs": [],
      "stateMutability": "nonpayable",
      "type": "function"
    },
    {
      "inputs": [
        {
          "internalType": "uint256[3]",
          "name": "input",
          "type": "uint256[3]"
        }
      ],
      "name": "hashPoseidon2T3",
      "outputs": [
        {
          "internalType": "uint256",
          "name": "",
          "type": "uint256"
        }
      ],
      "stateMutability": "view",
      "type": "function"
    },
    {
      "inputs": [
        {
          "internalType": "uint256[6]",
          "name": "input",
          "type": "uint256[6]"
        }
      ],
      "name": "hashPoseidon2T6",
      "outputs": [
        {
          "internalType": "uint256",
          "name": "",
          "type": "uint256"
        }
      ],
      "stateMutability": "view",
      "type": "function"
    },
    {
      "inputs": [],
      "name": "name",
      "outputs": [
        {
          "internalType": "string",
          "name": "",
          "type": "string"
        }
      ],
      "stateMutability": "view",
      "type": "function"
    },
    {
      "inputs": [
        {
          "internalType": "uint256",
          "name": "",
          "type": "uint256"
        }
      ],
      "name": "nullifiers",
      "outputs": [
        {
          "internalType": "uint256",
          "name": "",
          "type": "uint256"
        }
      ],
      "stateMutability": "view",
      "type": "function"
    },
    {
      "inputs": [
        {
          "internalType": "uint256",
          "name": "_amount",
          "type": "uint256"
        },
        {
          "internalType": "address",
          "name": "_to",
          "type": "address"
        },
        {
          "components": [
            {
              "internalType": "address",
              "name": "relayerAddress",
              "type": "address"
            },
            {
              "internalType": "uint256",
              "name": "priorityFee",
              "type": "uint256"
            },
            {
              "internalType": "uint256",
              "name": "conversionRate",
              "type": "uint256"
            },
            {
              "internalType": "uint256",
              "name": "maxFee",
              "type": "uint256"
            },
            {
              "internalType": "address",
              "name": "feeToken",
              "type": "address"
            }
          ],
          "internalType": "struct FeeData",
          "name": "_feeData",
          "type": "tuple"
        },
        {
          "internalType": "uint256",
          "name": "_accountNoteHash",
          "type": "uint256"
        },
        {
          "internalType": "uint256",
          "name": "_accountNoteNullifier",
          "type": "uint256"
        },
        {
          "internalType": "uint256",
          "name": "_root",
          "type": "uint256"
        },
        {
          "internalType": "bytes",
          "name": "_snarkProof",
          "type": "bytes"
        }
      ],
      "name": "privateTransfer",
      "outputs": [],
      "stateMutability": "nonpayable",
      "type": "function"
    },
    {
      "inputs": [],
      "name": "privateTransferVerifier",
      "outputs": [
        {
          "internalType": "address",
          "name": "",
          "type": "address"
        }
      ],
      "stateMutability": "view",
      "type": "function"
    },
    {
      "inputs": [],
      "name": "root",
      "outputs": [
        {
          "internalType": "uint256",
          "name": "",
          "type": "uint256"
        }
      ],
      "stateMutability": "view",
      "type": "function"
    },
    {
      "inputs": [
        {
          "internalType": "uint256",
          "name": "",
          "type": "uint256"
        }
      ],
      "name": "roots",
      "outputs": [
        {
          "internalType": "bool",
          "name": "",
          "type": "bool"
        }
      ],
      "stateMutability": "view",
      "type": "function"
    },
    {
      "inputs": [],
      "name": "symbol",
      "outputs": [
        {
          "internalType": "string",
          "name": "",
          "type": "string"
        }
      ],
      "stateMutability": "view",
      "type": "function"
    },
    {
      "inputs": [],
      "name": "totalSupply",
      "outputs": [
        {
          "internalType": "uint256",
          "name": "",
          "type": "uint256"
        }
      ],
      "stateMutability": "view",
      "type": "function"
    },
    {
      "inputs": [
        {
          "internalType": "address",
          "name": "to",
          "type": "address"
        },
        {
          "internalType": "uint256",
          "name": "value",
          "type": "uint256"
        }
      ],
      "name": "transfer",
      "outputs": [
        {
          "internalType": "bool",
          "name": "",
          "type": "bool"
        }
      ],
      "stateMutability": "nonpayable",
      "type": "function"
    },
    {
      "inputs": [
        {
          "internalType": "address",
          "name": "from",
          "type": "address"
        },
        {
          "internalType": "address",
          "name": "to",
          "type": "address"
        },
        {
          "internalType": "uint256",
          "name": "value",
          "type": "uint256"
        }
      ],
      "name": "transferFrom",
      "outputs": [
        {
          "internalType": "bool",
          "name": "",
          "type": "bool"
        }
      ],
      "stateMutability": "nonpayable",
      "type": "function"
    },
    {
      "inputs": [],
      "name": "tree",
      "outputs": [
        {
          "internalType": "uint256",
          "name": "size",
          "type": "uint256"
        },
        {
          "internalType": "uint256",
          "name": "depth",
          "type": "uint256"
        }
      ],
      "stateMutability": "view",
      "type": "function"
    }
  ],
  "bytecode": "0x6101606040526100116012600a610339565b61001e90620f424061034e565b600b5534801561002c575f5ffd5b506040516122af3803806122af83398101604081905261004b91610365565b6040518060400160405280600d81526020016c14d8da1dd85c9e94d8da1a5b19609a1b815250604051806040016040528060038152602001620312e360ec1b815250604051806040016040528060118152602001703d35bbb7b936b437b632b996ba37b5b2b760791b8152506040518060400160405280600581526020016415d493521360da1b81525081600390816100e49190610423565b5060046100f18282610423565b50610101915083905060056101ca565b610120526101108160066101ca565b61014052815160208084019190912060e052815190820120610100524660a05261019c60e05161010051604080517f8b73c3c69bb8fe3d512ecc4cf759cc79239f7b179b0ffacaa9a75d522b39400f60208201529081019290925260608201524660808201523060a08201525f9060c00160405160208183030381529060405280519060200120905090565b60805250503060c052600c80546001600160a01b0319166001600160a01b0392909216919091179055610535565b5f6020835110156101e5576101de836101fc565b90506101f6565b816101f08482610423565b5060ff90505b92915050565b5f5f829050601f8151111561022f578260405163305a27a960e01b815260040161022691906104dd565b60405180910390fd5b805161023a82610512565b179392505050565b634e487b7160e01b5f52601160045260245ffd5b6001815b60018411156102915780850481111561027557610275610242565b600184161561028357908102905b60019390931c92800261025a565b935093915050565b5f826102a7575060016101f6565b816102b357505f6101f6565b81600181146102c957600281146102d3576102ef565b60019150506101f6565b60ff8411156102e4576102e4610242565b50506001821b6101f6565b5060208310610133831016604e8410600b8410161715610312575081810a6101f6565b61031e5f198484610256565b805f190482111561033157610331610242565b029392505050565b5f61034760ff841683610299565b9392505050565b80820281158282048414176101f6576101f6610242565b5f60208284031215610375575f5ffd5b81516001600160a01b0381168114610347575f5ffd5b634e487b7160e01b5f52604160045260245ffd5b600181811c908216806103b357607f821691505b6020821081036103d157634e487b7160e01b5f52602260045260245ffd5b50919050565b601f82111561041e57805f5260205f20601f840160051c810160208510156103fc5750805b601f840160051c820191505b8181101561041b575f8155600101610408565b50505b505050565b81516001600160401b0381111561043c5761043c61038b565b6104508161044a845461039f565b846103d7565b6020601f821160018114610482575f831561046b5750848201515b5f19600385901b1c1916600184901b17845561041b565b5f84815260208120601f198516915b828110156104b15787850151825560209485019460019092019101610491565b50848210156104ce57868401515f19600387901b60f8161c191681555b50505050600190811b01905550565b602081525f82518060208401528060208501604085015e5f604082850101526040601f19601f83011684010191505092915050565b805160208083015191908110156103d1575f1960209190910360031b1b16919050565b60805160a05160c05160e051610100516101205161014051611d296105865f395f610b2901525f610afc01525f61147e01525f61145601525f6113b101525f6113db01525f6114050152611d295ff3fe608060405234801561000f575f5ffd5b506004361061011b575f3560e01c806306fdde031461011f578063095ea7b31461013d57806318160ddd1461016057806323b872dd14610172578063313ce567146101855780633a53af40146101945780633d59e5e2146101a757806349a3df68146101bc5780634a2ef36a146101dc57806366678575146101ef57806370a08231146101f857806384b0196e146102205780638d116b841461023b578063954c80591461025057806395d89b4114610270578063a9059cbb14610278578063b56738941461028b578063c2b40ae41461029e578063d21e82ab146102c0578063dd3d3b6b146102df578063dd62ed3e146102f2578063ebf0c71714610305578063fd54b2281461030d575b5f5ffd5b610127610330565b604051610134919061168f565b60405180910390f35b61015061014b3660046116bc565b6103c0565b6040519015158152602001610134565b6002545b604051908152602001610134565b6101506101803660046116e4565b6103d9565b60405160128152602001610134565b6101646101a236600461175a565b6103fc565b6101ba6101b53660046117c0565b610499565b005b6101cf6101ca3660046117d9565b6104a8565b604051610134919061184a565b6101646101ea36600461185c565b6105af565b610164600b5481565b6101646102063660046117c0565b6001600160a01b03165f9081526020819052604090205490565b6102286105e0565b604051610134979695949392919061189d565b6101646d52454345495645445f544f54414c81565b600c54610263906001600160a01b031681565b6040516101349190611933565b610127610622565b6101506102863660046116bc565b610631565b6101ba610299366004611947565b61063e565b6101506102ac366004611a06565b60096020525f908152604090205460ff1681565b6101646102ce366004611a06565b60076020525f908152604090205481565b6101276102ed366004611a06565b6108fb565b610164610300366004611a1d565b61095a565b610164610984565b600d54600e5461031b919082565b60408051928352602083019190915201610134565b60606003805461033f90611a4e565b80601f016020809104026020016040519081016040528092919081815260200182805461036b90611a4e565b80156103b65780601f1061038d576101008083540402835291602001916103b6565b820191905f5260205f20905b81548152906001019060200180831161039957829003601f168201915b5050505050905090565b5f336103cd8185856109fd565b60019150505b92915050565b5f336103e6858285610a0f565b6103f1858585610a60565b506001949350505050565b5f5f73382abef9789c1b5fee54c72bd9aaf7983726841c6001600160a01b03168360405160200161042d9190611a86565b60408051601f198184030181529082905261044791611acd565b5f60405180830381855afa9150503d805f811461047f576040519150601f19603f3d011682016040523d82523d5f602084013e610484565b606091505b509150508061049290611ad8565b9392505050565b6104a581600b54610abd565b50565b6040805160248082526104a082019092526060915f91906020820161048080368337019050509050865f1b815f815181106104e5576104e5611afb565b602090810291909101015260015f5b602081101561053e5787816020811061050f5761050f611afb565b1a8361051b8484611b23565b8151811061052b5761052b611afb565b60209081029190910101526001016104f4565b50855f1b8260218151811061055557610555611afb565b602002602001018181525050845f1b8260228151811061057757610577611afb565b602002602001018181525050835f1b8260238151811061059957610599611afb565b6020908102919091010152509695505050505050565b5f5f73382abef9789c1b5fee54c72bd9aaf7983726841c6001600160a01b03168360405160200161042d9190611b36565b5f6060805f5f5f60606105f1610af5565b6105f9610b22565b604080515f80825260208201909252600f60f81b9b939a50919850469750309650945092509050565b60606004805461033f90611a4e565b5f336103cd818585610a60565b5f84815260076020526040902054156106985760405162461bcd60e51b81526020600482015260176024820152761b9d5b1b1a599a595c88185b1c9958591e48195e1a5cdd604a1b60448201526064015b60405180910390fd5b5f8381526009602052604090205460ff166106e45760405162461bcd60e51b815260206004820152600c60248201526b1a5b9d985b1a59081c9bdbdd60a21b604482015260640161068f565b87866060013511156107465760405162461bcd60e51b815260206004820152602560248201527f6d6178466565206973206c6172676572207468616e2074686520616d6f756e74604482015264081cd95b9960da1b606482015260840161068f565b610751886001611b23565b5f8581526007602052604081209190915561076d888a89610b4f565b90505f61077d60208901896117c0565b6001600160a01b0316036107c257610796888a88610c68565b845f516020611c945f395f51905f528a6040516107b591815260200190565b60405180910390a261084f565b5f6107d060208901896117c0565b905060016107e160208a018a6117c0565b6001600160a01b0316036107f25750335b5f5f6107fe8a8d610cec565b9150915061080d8b828b610c68565b6108245f61081e60208d018d6117c0565b84610dbb565b875f516020611c945f395f51905f528d60405161084391815260200190565b60405180910390a25050505b5f61085d8a838989896104a8565b600c54604051633a94343960e21b81529192506001600160a01b03169063ea50d0e49061089290879087908690600401611b5d565b6020604051808303815f875af11580156108ae573d5f5f3e3d5ffd5b505050506040513d601f19601f820116820180604052508101906108d29190611b99565b6108ef5760405163439cc0cd60e01b815260040160405180910390fd5b50505050505050505050565b60606040518060400160405280601c81526020017b0ca2ba3432b932bab69029b4b3b732b21026b2b9b9b0b3b29d05199960211b81525082604051602001610944929190611bb8565b6040516020818303038152906040529050919050565b6001600160a01b039182165f90815260016020908152604080832093909416825291909152205490565b604051637a3e5e1d60e11b8152600d60048201525f9073__$81047e2420497af1f397e161c4153f8e32$__9063f47cbc3a90602401602060405180830381865af41580156109d4573d5f5f3e3d5ffd5b505050506040513d601f19601f820116820180604052508101906109f89190611bd0565b905090565b610a0a8383836001610ebb565b505050565b5f610a1a848461095a565b90505f19811015610a5a5781811015610a4c57828183604051637dc7a0d960e11b815260040161068f93929190611be7565b610a5a84848484035f610ebb565b50505050565b6001600160a01b038316610a89575f604051634b637e8f60e11b815260040161068f9190611933565b6001600160a01b038216610ab2575f60405163ec442f0560e01b815260040161068f9190611933565b610a0a838383610dbb565b6001600160a01b038216610ae6575f60405163ec442f0560e01b815260040161068f9190611933565b610af15f8383610dbb565b5050565b60606109f87f00000000000000000000000000000000000000000000000000000000000000006005610f8d565b60606109f87f00000000000000000000000000000000000000000000000000000000000000006006610f8d565b5f807f910efcb7aa0a5101c53816bf7635f61df3150c75450a6e099d3d6b313ed8f6ad610b7f60208501856117c0565b602085013560408601356060870135610b9e60a0890160808a016117c0565b6040805160208101979097526001600160a01b03958616908701526060860193909352608085019190915260a08401521660c082015260e00160408051601f1981840301815282825280516020918201207f2065b2481d58beb71da0d8e6a4eee618024623e64bf0f30ec58fea10f6ad477c918401919091526001600160a01b03881691830191909152606082018690526080820181905291505f9060a001604051602081830303815290604052805190602001209050610c5e81611036565b9695505050505050565b6001600160a01b038316610c8d57600280548390039055610c8881611062565b610cb9565b6001600160a01b0383165f9081526020819052604090208054830190819055610cb7848284611198565b505b6040518281526001600160a01b038416905f905f516020611cb45f395f51905f52906020015b60405180910390a3505050565b5f8030610cff60a08601608087016117c0565b6001600160a01b031614610d6f5760405162461bcd60e51b815260206004820152603160248201527f616c7465726e6174697665207061796d656e7420746f6b656e73206973206e6f6044820152701d081a5b5c1b195b595b9d1959081e595d607a1b606482015260840161068f565b5f6040850135610d83486020880135611b23565b610d8d9190611c08565b90505f610d9a8286611c1f565b90508186606001351015610db057610db0611c32565b909590945092505050565b6001600160a01b038316610de5578060025f828254610dda9190611b23565b90915550610e429050565b6001600160a01b0383165f9081526020819052604090205481811015610e245783818360405163391434e360e21b815260040161068f93929190611be7565b6001600160a01b0384165f9081526020819052604090209082900390555b6001600160a01b038216610e5e57600280548290039055610e89565b6001600160a01b0382165f9081526020819052604090208054820190819055610e8783826112ba565b505b816001600160a01b0316836001600160a01b03165f516020611cb45f395f51905f5283604051610cdf91815260200190565b6001600160a01b038416610ee4575f60405163e602df0560e01b815260040161068f9190611933565b6001600160a01b038316610f0d575f604051634a1406b160e11b815260040161068f9190611933565b6001600160a01b038085165f9081526001602090815260408083209387168352929052208290558015610a5a57826001600160a01b0316846001600160a01b03167f8c5be1e5ebec7d5bd14f71427d1e84f3dd0314c0f7b2291e5b200ac8c7c3b92584604051610f7f91815260200190565b60405180910390a350505050565b606060ff8314610fa757610fa083611368565b90506103d3565b818054610fb390611a4e565b80601f0160208091040260200160405190810160405280929190818152602001828054610fdf90611a4e565b801561102a5780601f106110015761010080835404028352916020019161102a565b820191905f5260205f20905b81548152906001019060200180831161100d57829003601f168201915b505050505090506103d3565b5f6103d36110426113a5565b8360405161190160f01b8152600281019290925260228201526042902090565b604051632f85497160e01b8152600d60048201526024810182905273__$81047e2420497af1f397e161c4153f8e32$__90632f85497190604401602060405180830381865af41580156110b7573d5f5f3e3d5ffd5b505050506040513d601f19601f820116820180604052508101906110db9190611bd0565b506040518181525f516020611cd45f395f51905f529060200160405180910390a1604051637a3e5e1d60e11b8152600d60048201526001906009905f9073__$81047e2420497af1f397e161c4153f8e32$__9063f47cbc3a906024015b602060405180830381865af4158015611153573d5f5f3e3d5ffd5b505050506040513d601f19601f820116820180604052508101906111779190611bd0565b815260208101919091526040015f20805460ff191691151591909117905550565b6001600160a01b03831632036111b157610a0a81611062565b5f6111bc84846114ce565b60405163bc167a3160e01b8152600d60048201526024810182905290915073__$81047e2420497af1f397e161c4153f8e32$__9063bc167a3190604401602060405180830381865af4158015611214573d5f5f3e3d5ffd5b505050506040513d601f19601f820116820180604052508101906112389190611b99565b1561124b5761124682611062565b610a5a565b6040805160028082526060820183525f9260208301908036833701905050905081815f8151811061127e5761127e611afb565b602002602001018181525050828160018151811061129e5761129e611afb565b6020026020010181815250506112b38161150f565b5050505050565b6001600160a01b03821632036112ce575050565b5f6112d983836114ce565b60405163bc167a3160e01b8152600d60048201526024810182905290915073__$81047e2420497af1f397e161c4153f8e32$__9063bc167a3190604401602060405180830381865af4158015611331573d5f5f3e3d5ffd5b505050506040513d601f19601f820116820180604052508101906113559190611b99565b1561135f57505050565b610a0a81611062565b60605f6113748361161c565b6040805160208082528183019092529192505f91906020820181803683375050509182525060208101929092525090565b5f306001600160a01b037f0000000000000000000000000000000000000000000000000000000000000000161480156113fd57507f000000000000000000000000000000000000000000000000000000000000000046145b1561142757507f000000000000000000000000000000000000000000000000000000000000000090565b6109f8604080517f8b73c3c69bb8fe3d512ecc4cf759cc79239f7b179b0ffacaa9a75d522b39400f60208201527f0000000000000000000000000000000000000000000000000000000000000000918101919091527f000000000000000000000000000000000000000000000000000000000000000060608201524660808201523060a08201525f9060c00160405160208183030381529060405280519060200120905090565b5f6114d7611643565b6001600160a01b0384168152602081018390526d52454345495645445f544f54414c6040820152611507816105af565b949350505050565b604051630649a08560e01b815273__$81047e2420497af1f397e161c4153f8e32$__90630649a0859061154990600d908590600401611c46565b602060405180830381865af4158015611564573d5f5f3e3d5ffd5b505050506040513d601f19601f820116820180604052508101906115889190611bd0565b505f5b81518110156115db575f516020611cd45f395f51905f528282815181106115b4576115b4611afb565b60200260200101516040516115cb91815260200190565b60405180910390a160010161158b565b50604051637a3e5e1d60e11b8152600d60048201526001906009905f9073__$81047e2420497af1f397e161c4153f8e32$__9063f47cbc3a90602401611138565b5f60ff8216601f8111156103d357604051632cd44ac360e21b815260040160405180910390fd5b60405180606001604052806003906020820280368337509192915050565b5f81518084528060208401602086015e5f602082860101526020601f19601f83011685010191505092915050565b602081525f6104926020830184611661565b80356001600160a01b03811681146116b7575f5ffd5b919050565b5f5f604083850312156116cd575f5ffd5b6116d6836116a1565b946020939093013593505050565b5f5f5f606084860312156116f6575f5ffd5b6116ff846116a1565b925061170d602085016116a1565b929592945050506040919091013590565b604051601f8201601f191681016001600160401b038111828210171561175257634e487b7160e01b5f52604160045260245ffd5b604052919050565b5f60c0828403121561176a575f5ffd5b5f83601f840112611779575f5ffd5b505f8061178660c061171e565b905080915060c084018581111561179b575f5ffd5b845b818110156117b557803584526020938401930161179d565b509095945050505050565b5f602082840312156117d0575f5ffd5b610492826116a1565b5f5f5f5f5f60a086880312156117ed575f5ffd5b505083359560208501359550604085013594606081013594506080013592509050565b5f8151808452602084019350602083015f5b82811015611840578151865260209586019590910190600101611822565b5093949350505050565b602081525f6104926020830184611810565b5f6060828403121561186c575f5ffd5b5f83601f84011261187b575f5ffd5b505f80611888606061171e565b9050809150606084018581111561179b575f5ffd5b60ff60f81b8816815260e060208201525f6118bb60e0830189611661565b82810360408401526118cd8189611661565b606084018890526001600160a01b038716608085015260a0840186905283810360c0850152845180825260208087019350909101905f5b81811015611922578351835260209384019390920191600101611904565b50909b9a5050505050505050505050565b6001600160a01b0391909116815260200190565b5f5f5f5f5f5f5f5f888a03610160811215611960575f5ffd5b8935985061197060208b016116a1565b975060a0603f1982011215611983575f5ffd5b5060408901955060e08901359450610100890135935061012089013592506101408901356001600160401b038111156119ba575f5ffd5b8901601f81018b136119ca575f5ffd5b80356001600160401b038111156119df575f5ffd5b8b60208284010111156119f0575f5ffd5b989b979a50959850939692959194602001935050565b5f60208284031215611a16575f5ffd5b5035919050565b5f5f60408385031215611a2e575f5ffd5b611a37836116a1565b9150611a45602084016116a1565b90509250929050565b600181811c90821680611a6257607f821691505b602082108103611a8057634e487b7160e01b5f52602260045260245ffd5b50919050565b60c0810181835f5b6006811015611aad578151835260209283019290910190600101611a8e565b50505092915050565b5f81518060208401855e5f93019283525090919050565b5f6104928284611ab6565b80516020808301519190811015611a80575f1960209190910360031b1b16919050565b634e487b7160e01b5f52603260045260245ffd5b634e487b7160e01b5f52601160045260245ffd5b808201808211156103d3576103d3611b0f565b6060810181835f5b6003811015611aad578151835260209283019290910190600101611b3e565b60408152826040820152828460608301375f606084830101525f601f19601f85011682016060838203016020840152610c5e6060820185611810565b5f60208284031215611ba9575f5ffd5b81518015158114610492575f5ffd5b5f611bc38285611ab6565b9283525050602001919050565b5f60208284031215611be0575f5ffd5b5051919050565b6001600160a01b039390931683526020830191909152604082015260600190565b80820281158282048414176103d3576103d3611b0f565b818103818111156103d3576103d3611b0f565b634e487b7160e01b5f52600160045260245ffd5b5f60408201848352604060208401528084518083526060850191506020860192505f5b81811015611c87578351835260209384019390920191600101611c69565b5090969550505050505056fefc5045226225bb2bdc6cc6f3d6457b8640a63a03d47a70eca2a9f6b3b6474d04ddf252ad1be2c89b69c2b068fc378daa952ba7f163c4a11628f55a4df523b3ef297d88d6449509e687c2769e1358fbeb521f447c0ec5786c512f8f9676b4d9b1a2646970667358221220d16e0bc51b20e12f0e6f6c35759ac1e34722a2309117d7c6bfe7ae93839ceb2064736f6c634300081c0033",
  "linkReferences": {
    "project/contracts/leanIMTPoseidon2.sol": {
      "leanIMTPoseidon2": [
        {
          "length": 20,
          "start": 3874
        },
        {
          "length": 20,
          "start": 5637
        },
        {
          "length": 20,
          "start": 5792
        },
        {
          "length": 20,
          "start": 5986
        },
        {
          "length": 20,
          "start": 6271
        },
        {
          "length": 20,
          "start": 6820
        },
        {
          "length": 20,
          "start": 7040
        }
      ]
    }
  },
  "deployedLinkReferences": {
    "project/contracts/leanIMTPoseidon2.sol": {
      "leanIMTPoseidon2": [
        {
          "length": 20,
          "start": 2460
        },
        {
          "length": 20,
          "start": 4223
        },
        {
          "length": 20,
          "start": 4378
        },
        {
          "length": 20,
          "start": 4572
        },
        {
          "length": 20,
          "start": 4857
        },
        {
          "length": 20,
          "start": 5406
        },
        {
          "length": 20,
          "start": 5626
        }
      ]
    }
  },
  "immutableReferences": {
    "2111": [
      {
        "length": 32,
        "start": 5125
      }
    ],
    "2113": [
      {
        "length": 32,
        "start": 5083
      }
    ],
    "2115": [
      {
        "length": 32,
        "start": 5041
      }
    ],
    "2117": [
      {
        "length": 32,
        "start": 5206
      }
    ],
    "2119": [
      {
        "length": 32,
        "start": 5246
      }
    ],
    "2122": [
      {
        "length": 32,
        "start": 2812
      }
    ],
    "2125": [
      {
        "length": 32,
        "start": 2857
      }
    ]
  },
  "inputSourceName": "project/contracts/WormholeToken.sol",
  "buildInfoId": "solc-0_8_28-6be8db60c60b533a017400eeb962ed0ad00c899e"
}