{
  "_format": "hh3-artifact-1",
  "contractName": "WormholeToken",
  "sourceName": "contracts/WormholeToken.sol",
  "abi": [
    {
      "inputs": [
        {
          "components": [
            {
              "internalType": "address",
              "name": "contractAddress",
              "type": "address"
            },
            {
              "internalType": "uint8",
              "name": "size",
              "type": "uint8"
            }
          ],
          "internalType": "struct Verifier[]",
          "name": "_verifiers",
          "type": "tuple[]"
        },
        {
          "internalType": "bytes32",
          "name": "_powDifficulty",
          "type": "bytes32"
        },
        {
          "internalType": "uint256",
          "name": "_reMintLimit",
          "type": "uint256"
        },
        {
          "internalType": "uint16",
          "name": "_maxTreeDepth",
          "type": "uint16"
        }
      ],
      "stateMutability": "nonpayable",
      "type": "constructor"
    },
    {
      "inputs": [
        {
          "internalType": "address",
          "name": "spender",
          "type": "address"
        },
        {
          "internalType": "uint256",
          "name": "allowance",
          "type": "uint256"
        },
        {
          "internalType": "uint256",
          "name": "needed",
          "type": "uint256"
        }
      ],
      "name": "ERC20InsufficientAllowance",
      "type": "error"
    },
    {
      "inputs": [
        {
          "internalType": "address",
          "name": "sender",
          "type": "address"
        },
        {
          "internalType": "uint256",
          "name": "balance",
          "type": "uint256"
        },
        {
          "internalType": "uint256",
          "name": "needed",
          "type": "uint256"
        }
      ],
      "name": "ERC20InsufficientBalance",
      "type": "error"
    },
    {
      "inputs": [
        {
          "internalType": "address",
          "name": "approver",
          "type": "address"
        }
      ],
      "name": "ERC20InvalidApprover",
      "type": "error"
    },
    {
      "inputs": [
        {
          "internalType": "address",
          "name": "receiver",
          "type": "address"
        }
      ],
      "name": "ERC20InvalidReceiver",
      "type": "error"
    },
    {
      "inputs": [
        {
          "internalType": "address",
          "name": "sender",
          "type": "address"
        }
      ],
      "name": "ERC20InvalidSender",
      "type": "error"
    },
    {
      "inputs": [
        {
          "internalType": "address",
          "name": "spender",
          "type": "address"
        }
      ],
      "name": "ERC20InvalidSpender",
      "type": "error"
    },
    {
      "inputs": [],
      "name": "InvalidShortString",
      "type": "error"
    },
    {
      "inputs": [
        {
          "internalType": "string",
          "name": "str",
          "type": "string"
        }
      ],
      "name": "StringTooLong",
      "type": "error"
    },
    {
      "inputs": [],
      "name": "VerificationFailed",
      "type": "error"
    },
    {
      "anonymous": false,
      "inputs": [
        {
          "indexed": true,
          "internalType": "address",
          "name": "owner",
          "type": "address"
        },
        {
          "indexed": true,
          "internalType": "address",
          "name": "spender",
          "type": "address"
        },
        {
          "indexed": false,
          "internalType": "uint256",
          "name": "value",
          "type": "uint256"
        }
      ],
      "name": "Approval",
      "type": "event"
    },
    {
      "anonymous": false,
      "inputs": [],
      "name": "EIP712DomainChanged",
      "type": "event"
    },
    {
      "anonymous": false,
      "inputs": [
        {
          "indexed": false,
          "internalType": "uint256",
          "name": "leaf",
          "type": "uint256"
        }
      ],
      "name": "NewLeaf",
      "type": "event"
    },
    {
      "anonymous": false,
      "inputs": [
        {
          "indexed": true,
          "internalType": "uint256",
          "name": "nullifier",
          "type": "uint256"
        },
        {
          "indexed": false,
          "internalType": "bytes",
          "name": "encryptedTotalSpends",
          "type": "bytes"
        }
      ],
      "name": "Nullified",
      "type": "event"
    },
    {
      "anonymous": false,
      "inputs": [
        {
          "indexed": true,
          "internalType": "address",
          "name": "from",
          "type": "address"
        },
        {
          "indexed": true,
          "internalType": "address",
          "name": "to",
          "type": "address"
        },
        {
          "indexed": false,
          "internalType": "uint256",
          "name": "value",
          "type": "uint256"
        }
      ],
      "name": "Transfer",
      "type": "event"
    },
    {
      "inputs": [],
      "name": "AMOUNT_OF_VERIFIERS",
      "outputs": [
        {
          "internalType": "uint8",
          "name": "",
          "type": "uint8"
        }
      ],
      "stateMutability": "view",
      "type": "function"
    },
    {
      "inputs": [],
      "name": "MAX_TREE_DEPTH",
      "outputs": [
        {
          "internalType": "uint16",
          "name": "",
          "type": "uint16"
        }
      ],
      "stateMutability": "view",
      "type": "function"
    },
    {
      "inputs": [],
      "name": "POW_DIFFICULTY",
      "outputs": [
        {
          "internalType": "bytes32",
          "name": "",
          "type": "bytes32"
        }
      ],
      "stateMutability": "view",
      "type": "function"
    },
    {
      "inputs": [],
      "name": "RE_MINT_LIMIT",
      "outputs": [
        {
          "internalType": "bytes32",
          "name": "",
          "type": "bytes32"
        }
      ],
      "stateMutability": "view",
      "type": "function"
    },
    {
      "inputs": [],
      "name": "TOTAL_BURNED_DOMAIN",
      "outputs": [
        {
          "internalType": "uint256",
          "name": "",
          "type": "uint256"
        }
      ],
      "stateMutability": "view",
      "type": "function"
    },
    {
      "inputs": [
        {
          "internalType": "uint256",
          "name": "",
          "type": "uint256"
        }
      ],
      "name": "VERIFIER_SIZES",
      "outputs": [
        {
          "internalType": "uint8",
          "name": "",
          "type": "uint8"
        }
      ],
      "stateMutability": "view",
      "type": "function"
    },
    {
      "inputs": [
        {
          "components": [
            {
              "internalType": "uint256",
              "name": "tokensPerEthPrice",
              "type": "uint256"
            },
            {
              "internalType": "uint256",
              "name": "maxFee",
              "type": "uint256"
            },
            {
              "internalType": "uint256",
              "name": "amountForRecipient",
              "type": "uint256"
            },
            {
              "internalType": "uint256",
              "name": "relayerBonus",
              "type": "uint256"
            },
            {
              "internalType": "uint256",
              "name": "estimatedGasCost",
              "type": "uint256"
            },
            {
              "internalType": "uint256",
              "name": "estimatedPriorityFee",
              "type": "uint256"
            },
            {
              "internalType": "address",
              "name": "refundAddress",
              "type": "address"
            },
            {
              "internalType": "address",
              "name": "relayerAddress",
              "type": "address"
            }
          ],
          "internalType": "struct FeeData",
          "name": "_feeData",
          "type": "tuple"
        },
        {
          "internalType": "uint256",
          "name": "_amountToReMint",
          "type": "uint256"
        }
      ],
      "name": "_calculateFee",
      "outputs": [
        {
          "internalType": "uint256",
          "name": "",
          "type": "uint256"
        },
        {
          "internalType": "uint256",
          "name": "",
          "type": "uint256"
        }
      ],
      "stateMutability": "view",
      "type": "function"
    },
    {
      "inputs": [
        {
          "internalType": "uint256",
          "name": "_root",
          "type": "uint256"
        },
        {
          "internalType": "uint256",
          "name": "_amount",
          "type": "uint256"
        },
        {
          "internalType": "bytes32",
          "name": "_signatureHash",
          "type": "bytes32"
        },
        {
          "internalType": "uint256[]",
          "name": "_accountNoteHashes",
          "type": "uint256[]"
        },
        {
          "internalType": "uint256[]",
          "name": "_accountNoteNullifiers",
          "type": "uint256[]"
        }
      ],
      "name": "_formatPublicInputs",
      "outputs": [
        {
          "internalType": "bytes32[]",
          "name": "",
          "type": "bytes32[]"
        }
      ],
      "stateMutability": "view",
      "type": "function"
    },
    {
      "inputs": [
        {
          "components": [
            {
              "internalType": "address",
              "name": "recipient",
              "type": "address"
            },
            {
              "internalType": "uint256",
              "name": "amountToReMint",
              "type": "uint256"
            },
            {
              "internalType": "bytes",
              "name": "callData",
              "type": "bytes"
            },
            {
              "internalType": "bool",
              "name": "callCanFail",
              "type": "bool"
            },
            {
              "internalType": "uint256",
              "name": "callValue",
              "type": "uint256"
            },
            {
              "internalType": "bytes[]",
              "name": "encryptedTotalSpends",
              "type": "bytes[]"
            }
          ],
          "internalType": "struct SignatureInputs",
          "name": "_signatureInputs",
          "type": "tuple"
        }
      ],
      "name": "_hashSignatureInputs",
      "outputs": [
        {
          "internalType": "bytes32",
          "name": "",
          "type": "bytes32"
        }
      ],
      "stateMutability": "view",
      "type": "function"
    },
    {
      "inputs": [
        {
          "components": [
            {
              "internalType": "address",
              "name": "recipient",
              "type": "address"
            },
            {
              "internalType": "uint256",
              "name": "amountToReMint",
              "type": "uint256"
            },
            {
              "internalType": "bytes",
              "name": "callData",
              "type": "bytes"
            },
            {
              "internalType": "bool",
              "name": "callCanFail",
              "type": "bool"
            },
            {
              "internalType": "uint256",
              "name": "callValue",
              "type": "uint256"
            },
            {
              "internalType": "bytes[]",
              "name": "encryptedTotalSpends",
              "type": "bytes[]"
            }
          ],
          "internalType": "struct SignatureInputs",
          "name": "_signatureInputs",
          "type": "tuple"
        },
        {
          "components": [
            {
              "internalType": "uint256",
              "name": "tokensPerEthPrice",
              "type": "uint256"
            },
            {
              "internalType": "uint256",
              "name": "maxFee",
              "type": "uint256"
            },
            {
              "internalType": "uint256",
              "name": "amountForRecipient",
              "type": "uint256"
            },
            {
              "internalType": "uint256",
              "name": "relayerBonus",
              "type": "uint256"
            },
            {
              "internalType": "uint256",
              "name": "estimatedGasCost",
              "type": "uint256"
            },
            {
              "internalType": "uint256",
              "name": "estimatedPriorityFee",
              "type": "uint256"
            },
            {
              "internalType": "address",
              "name": "refundAddress",
              "type": "address"
            },
            {
              "internalType": "address",
              "name": "relayerAddress",
              "type": "address"
            }
          ],
          "internalType": "struct FeeData",
          "name": "_feeData",
          "type": "tuple"
        }
      ],
      "name": "_hashSignatureInputsRelayer",
      "outputs": [
        {
          "internalType": "bytes32",
          "name": "",
          "type": "bytes32"
        }
      ],
      "stateMutability": "view",
      "type": "function"
    },
    {
      "inputs": [
        {
          "internalType": "uint256",
          "name": "_amount",
          "type": "uint256"
        },
        {
          "internalType": "uint256[]",
          "name": "_accountNoteHashes",
          "type": "uint256[]"
        },
        {
          "internalType": "uint256[]",
          "name": "_accountNoteNullifiers",
          "type": "uint256[]"
        },
        {
          "internalType": "uint256",
          "name": "_root",
          "type": "uint256"
        },
        {
          "internalType": "bytes",
          "name": "_snarkProof",
          "type": "bytes"
        },
        {
          "internalType": "bytes[]",
          "name": "_encryptedTotalSpends",
          "type": "bytes[]"
        },
        {
          "internalType": "bytes32",
          "name": "signatureHash",
          "type": "bytes32"
        }
      ],
      "name": "_verifyReMint",
      "outputs": [],
      "stateMutability": "nonpayable",
      "type": "function"
    },
    {
      "inputs": [
        {
          "internalType": "address",
          "name": "owner",
          "type": "address"
        },
        {
          "internalType": "address",
          "name": "spender",
          "type": "address"
        }
      ],
      "name": "allowance",
      "outputs": [
        {
          "internalType": "uint256",
          "name": "",
          "type": "uint256"
        }
      ],
      "stateMutability": "view",
      "type": "function"
    },
    {
      "inputs": [],
      "name": "amountFreeTokens",
      "outputs": [
        {
          "internalType": "uint256",
          "name": "",
          "type": "uint256"
        }
      ],
      "stateMutability": "view",
      "type": "function"
    },
    {
      "inputs": [
        {
          "internalType": "address",
          "name": "spender",
          "type": "address"
        },
        {
          "internalType": "uint256",
          "name": "value",
          "type": "uint256"
        }
      ],
      "name": "approve",
      "outputs": [
        {
          "internalType": "bool",
          "name": "",
          "type": "bool"
        }
      ],
      "stateMutability": "nonpayable",
      "type": "function"
    },
    {
      "inputs": [
        {
          "internalType": "address",
          "name": "account",
          "type": "address"
        }
      ],
      "name": "balanceOf",
      "outputs": [
        {
          "internalType": "uint256",
          "name": "",
          "type": "uint256"
        }
      ],
      "stateMutability": "view",
      "type": "function"
    },
    {
      "inputs": [],
      "name": "decimals",
      "outputs": [
        {
          "internalType": "uint8",
          "name": "",
          "type": "uint8"
        }
      ],
      "stateMutability": "view",
      "type": "function"
    },
    {
      "inputs": [],
      "name": "decimalsTokenPrice",
      "outputs": [
        {
          "internalType": "uint256",
          "name": "",
          "type": "uint256"
        }
      ],
      "stateMutability": "view",
      "type": "function"
    },
    {
      "inputs": [],
      "name": "eip712Domain",
      "outputs": [
        {
          "internalType": "bytes1",
          "name": "fields",
          "type": "bytes1"
        },
        {
          "internalType": "string",
          "name": "name",
          "type": "string"
        },
        {
          "internalType": "string",
          "name": "version",
          "type": "string"
        },
        {
          "internalType": "uint256",
          "name": "chainId",
          "type": "uint256"
        },
        {
          "internalType": "address",
          "name": "verifyingContract",
          "type": "address"
        },
        {
          "internalType": "bytes32",
          "name": "salt",
          "type": "bytes32"
        },
        {
          "internalType": "uint256[]",
          "name": "extensions",
          "type": "uint256[]"
        }
      ],
      "stateMutability": "view",
      "type": "function"
    },
    {
      "inputs": [
        {
          "internalType": "address",
          "name": "_to",
          "type": "address"
        }
      ],
      "name": "getFreeTokens",
      "outputs": [],
      "stateMutability": "nonpayable",
      "type": "function"
    },
    {
      "inputs": [
        {
          "internalType": "uint256[3]",
          "name": "input",
          "type": "uint256[3]"
        }
      ],
      "name": "hashPoseidon2T3",
      "outputs": [
        {
          "internalType": "uint256",
          "name": "",
          "type": "uint256"
        }
      ],
      "stateMutability": "view",
      "type": "function"
    },
    {
      "inputs": [
        {
          "internalType": "uint256[6]",
          "name": "input",
          "type": "uint256[6]"
        }
      ],
      "name": "hashPoseidon2T6",
      "outputs": [
        {
          "internalType": "uint256",
          "name": "",
          "type": "uint256"
        }
      ],
      "stateMutability": "view",
      "type": "function"
    },
    {
      "inputs": [],
      "name": "name",
      "outputs": [
        {
          "internalType": "string",
          "name": "",
          "type": "string"
        }
      ],
      "stateMutability": "view",
      "type": "function"
    },
    {
      "inputs": [
        {
          "internalType": "uint256",
          "name": "",
          "type": "uint256"
        }
      ],
      "name": "nullifiers",
      "outputs": [
        {
          "internalType": "uint256",
          "name": "",
          "type": "uint256"
        }
      ],
      "stateMutability": "view",
      "type": "function"
    },
    {
      "inputs": [
        {
          "internalType": "uint256[]",
          "name": "_accountNoteHashes",
          "type": "uint256[]"
        },
        {
          "internalType": "uint256[]",
          "name": "_accountNoteNullifiers",
          "type": "uint256[]"
        },
        {
          "internalType": "uint256",
          "name": "_root",
          "type": "uint256"
        },
        {
          "internalType": "bytes",
          "name": "_snarkProof",
          "type": "bytes"
        },
        {
          "components": [
            {
              "internalType": "address",
              "name": "recipient",
              "type": "address"
            },
            {
              "internalType": "uint256",
              "name": "amountToReMint",
              "type": "uint256"
            },
            {
              "internalType": "bytes",
              "name": "callData",
              "type": "bytes"
            },
            {
              "internalType": "bool",
              "name": "callCanFail",
              "type": "bool"
            },
            {
              "internalType": "uint256",
              "name": "callValue",
              "type": "uint256"
            },
            {
              "internalType": "bytes[]",
              "name": "encryptedTotalSpends",
              "type": "bytes[]"
            }
          ],
          "internalType": "struct SignatureInputs",
          "name": "_signatureInputs",
          "type": "tuple"
        }
      ],
      "name": "reMint",
      "outputs": [],
      "stateMutability": "nonpayable",
      "type": "function"
    },
    {
      "inputs": [
        {
          "internalType": "uint256[]",
          "name": "_accountNoteHashes",
          "type": "uint256[]"
        },
        {
          "internalType": "uint256[]",
          "name": "_accountNoteNullifiers",
          "type": "uint256[]"
        },
        {
          "internalType": "uint256",
          "name": "_root",
          "type": "uint256"
        },
        {
          "internalType": "bytes",
          "name": "_snarkProof",
          "type": "bytes"
        },
        {
          "components": [
            {
              "internalType": "address",
              "name": "recipient",
              "type": "address"
            },
            {
              "internalType": "uint256",
              "name": "amountToReMint",
              "type": "uint256"
            },
            {
              "internalType": "bytes",
              "name": "callData",
              "type": "bytes"
            },
            {
              "internalType": "bool",
              "name": "callCanFail",
              "type": "bool"
            },
            {
              "internalType": "uint256",
              "name": "callValue",
              "type": "uint256"
            },
            {
              "internalType": "bytes[]",
              "name": "encryptedTotalSpends",
              "type": "bytes[]"
            }
          ],
          "internalType": "struct SignatureInputs",
          "name": "_signatureInputs",
          "type": "tuple"
        },
        {
          "components": [
            {
              "internalType": "uint256",
              "name": "tokensPerEthPrice",
              "type": "uint256"
            },
            {
              "internalType": "uint256",
              "name": "maxFee",
              "type": "uint256"
            },
            {
              "internalType": "uint256",
              "name": "amountForRecipient",
              "type": "uint256"
            },
            {
              "internalType": "uint256",
              "name": "relayerBonus",
              "type": "uint256"
            },
            {
              "internalType": "uint256",
              "name": "estimatedGasCost",
              "type": "uint256"
            },
            {
              "internalType": "uint256",
              "name": "estimatedPriorityFee",
              "type": "uint256"
            },
            {
              "internalType": "address",
              "name": "refundAddress",
              "type": "address"
            },
            {
              "internalType": "address",
              "name": "relayerAddress",
              "type": "address"
            }
          ],
          "internalType": "struct FeeData",
          "name": "_feeData",
          "type": "tuple"
        }
      ],
      "name": "reMintRelayer",
      "outputs": [],
      "stateMutability": "nonpayable",
      "type": "function"
    },
    {
      "inputs": [],
      "name": "root",
      "outputs": [
        {
          "internalType": "uint256",
          "name": "",
          "type": "uint256"
        }
      ],
      "stateMutability": "view",
      "type": "function"
    },
    {
      "inputs": [
        {
          "internalType": "uint256",
          "name": "",
          "type": "uint256"
        }
      ],
      "name": "roots",
      "outputs": [
        {
          "internalType": "bool",
          "name": "",
          "type": "bool"
        }
      ],
      "stateMutability": "view",
      "type": "function"
    },
    {
      "inputs": [],
      "name": "symbol",
      "outputs": [
        {
          "internalType": "string",
          "name": "",
          "type": "string"
        }
      ],
      "stateMutability": "view",
      "type": "function"
    },
    {
      "inputs": [],
      "name": "totalSupply",
      "outputs": [
        {
          "internalType": "uint256",
          "name": "",
          "type": "uint256"
        }
      ],
      "stateMutability": "view",
      "type": "function"
    },
    {
      "inputs": [
        {
          "internalType": "address",
          "name": "to",
          "type": "address"
        },
        {
          "internalType": "uint256",
          "name": "value",
          "type": "uint256"
        }
      ],
      "name": "transfer",
      "outputs": [
        {
          "internalType": "bool",
          "name": "",
          "type": "bool"
        }
      ],
      "stateMutability": "nonpayable",
      "type": "function"
    },
    {
      "inputs": [
        {
          "internalType": "address",
          "name": "from",
          "type": "address"
        },
        {
          "internalType": "address",
          "name": "to",
          "type": "address"
        },
        {
          "internalType": "uint256",
          "name": "value",
          "type": "uint256"
        }
      ],
      "name": "transferFrom",
      "outputs": [
        {
          "internalType": "bool",
          "name": "",
          "type": "bool"
        }
      ],
      "stateMutability": "nonpayable",
      "type": "function"
    },
    {
      "inputs": [],
      "name": "tree",
      "outputs": [
        {
          "internalType": "uint256",
          "name": "size",
          "type": "uint256"
        },
        {
          "internalType": "uint256",
          "name": "depth",
          "type": "uint256"
        }
      ],
      "stateMutability": "view",
      "type": "function"
    },
    {
      "inputs": [],
      "name": "treeSize",
      "outputs": [
        {
          "internalType": "uint256",
          "name": "",
          "type": "uint256"
        }
      ],
      "stateMutability": "view",
      "type": "function"
    },
    {
      "inputs": [
        {
          "internalType": "uint8",
          "name": "",
          "type": "uint8"
        }
      ],
      "name": "verifierPerSize",
      "outputs": [
        {
          "internalType": "address",
          "name": "",
          "type": "address"
        }
      ],
      "stateMutability": "view",
      "type": "function"
    }
  ],
  "bytecode": "0x6101606040526100116012600a610469565b61001e90620f424061047e565b600a556008600b55348015610031575f5ffd5b506040516139b33803806139b383398101604081905261005091610517565b6040805180820182526011808252703d35bbb7b936b437b632b996ba37b5b2b760791b60208084018290528451808601865260018152603160f81b8183015285518087018752938452838201929092528451808601909552600585526415d493521360da1b90850152919260036100c783826106b6565b5060046100d482826106b6565b506100e491508390506005610303565b610120526100f3816006610303565b61014052815160208084019190912060e052815190820120610100524660a05261017f60e05161010051604080517f8b73c3c69bb8fe3d512ecc4cf759cc79239f7b179b0ffacaa9a75d522b39400f60208201529081019290925260608201524660808201523060a08201525f9060c00160405160208183030381529060405280519060200120905090565b60805250503060c05283516012805460ff191660ff9092169190911790555f805b85518110156102dd575f8682815181106101bc576101bc610770565b60200260200101519050806020015160ff168360ff161061024a5760405162461bcd60e51b815260206004820152603b60248201527f5f766572696669657273206e6565647320746f20626520736f7274656420667260448201527f6f6d20736d616c6c65737420746f206c6172676573742073697a65000000000060648201526084015b60405180910390fd5b60208082018051925160ff8085165f908152601085526040812080546001600160a01b039094166001600160a01b03199094169390931790925591516011805460018181018355919093529382047f31ecc21a745e3968a04e9570e4425bc18fa8019c68028196b546d1669c200c68018054918416601f9093166101000a928302929093021916179055909250016101a0565b50506013929092556014556015805461ffff191661ffff909216919091179055506107dc565b5f60208351101561031e5761031783610335565b905061032f565b8161032984826106b6565b5060ff90505b92915050565b5f5f829050601f8151111561035f578260405163305a27a960e01b81526004016102419190610784565b805161036a826107b9565b179392505050565b634e487b7160e01b5f52601160045260245ffd5b6001815b60018411156103c1578085048111156103a5576103a5610372565b60018416156103b357908102905b60019390931c92800261038a565b935093915050565b5f826103d75750600161032f565b816103e357505f61032f565b81600181146103f957600281146104035761041f565b600191505061032f565b60ff84111561041457610414610372565b50506001821b61032f565b5060208310610133831016604e8410600b8410161715610442575081810a61032f565b61044e5f198484610386565b805f190482111561046157610461610372565b029392505050565b5f61047760ff8416836103c9565b9392505050565b808202811582820484141761032f5761032f610372565b634e487b7160e01b5f52604160045260245ffd5b604080519081016001600160401b03811182821017156104cb576104cb610495565b60405290565b604051601f8201601f191681016001600160401b03811182821017156104f9576104f9610495565b604052919050565b805161ffff81168114610512575f5ffd5b919050565b5f5f5f5f6080858703121561052a575f5ffd5b84516001600160401b0381111561053f575f5ffd5b8501601f8101871361054f575f5ffd5b80516001600160401b0381111561056857610568610495565b61057760208260051b016104d1565b8082825260208201915060208360061b850101925089831115610598575f5ffd5b6020840193505b82841015610605576040848b0312156105b6575f5ffd5b6105be6104a9565b84516001600160a01b03811681146105d4575f5ffd5b8152602085015160ff811681146105e9575f5ffd5b806020830152508083525060208201915060408401935061059f565b602089015160408a015191985096509450610627925050606087019050610501565b905092959194509250565b600181811c9082168061064657607f821691505b60208210810361066457634e487b7160e01b5f52602260045260245ffd5b50919050565b601f8211156106b157805f5260205f20601f840160051c8101602085101561068f5750805b601f840160051c820191505b818110156106ae575f815560010161069b565b50505b505050565b81516001600160401b038111156106cf576106cf610495565b6106e3816106dd8454610632565b8461066a565b6020601f821160018114610715575f83156106fe5750848201515b5f19600385901b1c1916600184901b1784556106ae565b5f84815260208120601f198516915b828110156107445787850151825560209485019460019092019101610724565b508482101561076157868401515f19600387901b60f8161c191681555b50505050600190811b01905550565b634e487b7160e01b5f52603260045260245ffd5b602081525f82518060208401528060208501604085015e5f604082850101526040601f19601f83011684010191505092915050565b80516020808301519190811015610664575f1960209190910360031b1b16919050565b60805160a05160c05160e05161010051610120516101405161318661082d5f395f61148401525f61145701525f611b0f01525f611ae701525f611a4201525f611a6c01525f611a9601526131865ff3fe608060405234801561000f575f5ffd5b50600436106101a3575f3560e01c806384b0196e116100e757806384b0196e146103215780638d1ddfb11461033c57806395d89b4114610344578063a38535ff1461034c578063a9059cbb1461035f578063bc8910b714610372578063bf86232e14610385578063c2b40ae414610398578063c6570bfb146103ba578063d21e82ab146103c3578063dd62ed3e146103e2578063e1c5d751146103f5578063e38df5f014610402578063ebf0c71714610423578063f09220681461042b578063f21df1fa14610460578063fd54b22814610473575f5ffd5b80630290faea146101a757806306fdde03146101c3578063095ea7b3146101d85780631012c212146101fb57806318160ddd1461020e57806323b872dd1461021657806330d8c55d14610229578063313ce567146102325780633a53af40146102475780633d59e5e21461025a5780634a2ef36a1461026f5780634b164c0f1461028257806366678575146102a25780636b2ee80b146102ab57806370a08231146102be57806377d066f7146102e65780637c32ba9d146102f9575b5f5ffd5b6101b060135481565b6040519081526020015b60405180910390f35b6101cb610481565b6040516101ba9190612351565b6101eb6101e636600461237e565b610511565b60405190151581526020016101ba565b6101b06b544f54414c5f4255524e454481565b6002546101b0565b6101eb6102243660046123a6565b61052a565b6101b0600b5481565b60125b60405160ff90911681526020016101ba565b6101b061025536600461244d565b61054d565b61026d6102683660046124b3565b6105ea565b005b6101b061027d3660046124cc565b6105f9565b610295610290366004612599565b61062a565b6040516101ba9190612651565b6101b0600a5481565b6101b06102b9366004612679565b61083a565b6101b06102cc3660046124b3565b6001600160a01b03165f9081526020819052604090205490565b6101b06102f43660046126bb565b61092a565b61030c610307366004612707565b610a31565b604080519283526020830191909152016101ba565b610329610bc5565b6040516101ba9796959493929190612732565b600c546101b0565b6101cb610c07565b61026d61035a366004612845565b610c16565b6101eb61036d36600461237e565b610e7d565b61026d61038036600461291e565b610e8a565b6102356103933660046129e0565b610ee3565b6101eb6103a63660046129e0565b60086020525f908152604090205460ff1681565b6101b060145481565b6101b06103d13660046129e0565b60076020525f908152604090205481565b6101b06103f03660046129f7565b610f14565b6012546102359060ff1681565b6015546104109061ffff1681565b60405161ffff90911681526020016101ba565b6101b0610f3e565b610453610439366004612a1f565b60106020525f90815260409020546001600160a01b031681565b6040516101ba9190612a3f565b61026d61046e366004612a53565b610fb7565b600c54600d5461030c919082565b60606003805461049090612b28565b80601f01602080910402602001604051908101604052809291908181526020018280546104bc90612b28565b80156105075780601f106104de57610100808354040283529160200191610507565b820191905f5260205f20905b8154815290600101906020018083116104ea57829003601f168201915b5050505050905090565b5f3361051e8185856111a0565b60019150505b92915050565b5f336105378582856111b2565b610542858585611203565b506001949350505050565b5f5f73382abef9789c1b5fee54c72bd9aaf7983726841c6001600160a01b03168360405160200161057e9190612b5a565b60408051601f198184030181529082905261059891612b8a565b5f60405180830381855afa9150503d805f81146105d0576040519150601f19603f3d011682016040523d82523d5f602084013e6105d5565b606091505b50915050806105e390612ba0565b9392505050565b6105f681600a54611260565b50565b5f5f73382abef9789c1b5fee54c72bd9aaf7983726841c6001600160a01b03168360405160200161057e9190612bc3565b80516060905f61063b826002612bfe565b610646906024612c15565b6001600160401b0381111561065d5761065d6123e0565b604051908082528060200260200182016040528015610686578160200160208202803683370190505b509050875f1b815f8151811061069e5761069e612c28565b602002602001018181525050865f1b816001815181106106c0576106c0612c28565b602002602001018181525050601354816002815181106106e2576106e2612c28565b6020026020010181815250506014548160038151811061070457610704612c28565b602090810291909101015260045f5b602081101561075d5787816020811061072e5761072e612c28565b1a8361073a8484612c15565b8151811061074a5761074a612c28565b6020908102919091010152600101610713565b505f61076a826020612c15565b90505f5b875181101561082b5787818151811061078957610789612c28565b60200260200101515f1b84838360026107a29190612bfe565b6107ac9190612c15565b815181106107bc576107bc612c28565b6020026020010181815250508681815181106107da576107da612c28565b60200260200101515f1b84838360026107f39190612bfe565b6107fd9190612c15565b610808906001612c15565b8151811061081857610818612c28565b602090810291909101015260010161076e565b50919998505050505050505050565b5f807f92710af927a6d321180e112678b11a1c15cc90b03497152e693f5d61d038113161086a60208501856124b3565b602085013561087c6040870187612c3c565b60405161088a929190612c7e565b6040519081900390206108a36080880160608901612c9a565b60808801356108c66108b860a08b018b612cb5565b6108c191612cfa565b611298565b6040805160208101989098526001600160a01b039096169587019590955260608601939093526080850191909152151560a084015260c083015260e0820152610100016040516020818303038152906040528051906020012090506105e381611360565b5f807fa956ffedcbed122e3a8ce57cf7721516d7d31eb7b6d40c60075f419ea038036f61095a60208601866124b3565b602086013561096c6040880188612c3c565b60405161097a929190612c7e565b6040519081900390206109936080890160608a01612c9a565b60808901356109a86108b860a08c018c612cb5565b6109bf6109ba368c90038c018c612dba565b61138c565b6040805160208101999099526001600160a01b039097169688019690965260608701949094526080860192909252151560a085015260c084015260e083015261010082015261012001604051602081830303815290604052805190602001209050610a2981611360565b949350505050565b5f8080610a4260a086013548612c15565b610a50906080870135612bfe565b90505f8560600135600b54600a610a679190612f17565b610a72883585612bfe565b610a7c9190612f22565b610a869190612c15565b905085602001358110610ada5760405162461bcd60e51b81526020600482015260176024820152760e4cad8c2f2cae440cccaca40d2e640e8dede40d0d2ced604b1b60448201526064015b60405180910390fd5b808511610b385760405162461bcd60e51b815260206004820152602660248201527f666565206973206d6f7265207468656e20616d6f756e74206265696e67207265604482015265135a5b9d195960d21b6064820152608401610ad1565b6040860135610b478287612f41565b1015610ba65760405162461bcd60e51b815260206004820152602860248201527f6e6f7420656e6f756768206c656674206166746572206665657320666f7220726044820152671958da5c1a595b9d60c21b6064820152608401610ad1565b5f610bb5826020890135612f41565b91945090925050505b9250929050565b5f6060805f5f5f6060610bd6611450565b610bde61147d565b604080515f80825260208201909252600f60f81b9b939a50919850469750309650945092509050565b60606004805461049090612b28565b5f8681526008602052604090205460ff16610c625760405162461bcd60e51b815260206004820152600c60248201526b1a5b9d985b1a59081c9bdbdd60a21b6044820152606401610ad1565b5f5b8751811015610d59575f888281518110610c8057610c80612c28565b602002602001015190505f60075f8381526020019081526020015f205414610ce45760405162461bcd60e51b81526020600482015260176024820152761b9d5b1b1a599a595c88185b1c9958591e48195e1a5cdd604a1b6044820152606401610ad1565b5f818152600760205260409020439055807fdea71a061c0e15a14191f2e29163dac18565965624c0422ba9025b541d0abc99868685818110610d2857610d28612c28565b9050602002810190610d3a9190612c3c565b604051610d48929190612f7c565b60405180910390a250600101610c64565b505f610d68878b848c8c61062a565b885160ff81165f90815260106020526040902054919250906001600160a01b031680610de25760405162461bcd60e51b815260206004820152602360248201527f616d6f756e74206f66206e6f746520686173686573206e6f7420737570706f726044820152621d195960ea1b6064820152608401610ad1565b604051633a94343960e21b81526001600160a01b0382169063ea50d0e490610e12908b908b908890600401612f8f565b6020604051808303815f875af1158015610e2e573d5f5f3e3d5ffd5b505050506040513d601f19601f82011682018060405250810190610e529190612fbe565b610e6f5760405163439cc0cd60e01b815260040160405180910390fd5b505050505050505050505050565b5f3361051e818585611203565b5f610e948261083a565b9050610eb660208301358888888888610eb060a08a018a612cb5565b89610c16565b610ed1610ec660208401846124b3565b8360200135896114aa565b610eda8261157a565b50505050505050565b60118181548110610ef2575f80fd5b905f5260205f209060209182820401919006915054906101000a900460ff1681565b6001600160a01b039182165f90815260016020908152604080832093909416825291909152205490565b604051637a3e5e1d60e11b8152600c60048201525f9073__$81047e2420497af1f397e161c4153f8e32$__9063f47cbc3a90602401602060405180830381865af4158015610f8e573d5f5f3e3d5ffd5b505050506040513d601f19601f82011682018060405250810190610fb29190612fd9565b905090565b5f5f610fc7838560200135610a31565b915091505f610fd6858561092a565b9050610ff260208601358b8b8b8b8b610eb060a08d018d612cb5565b5f6001611006610100870160e088016124b3565b6001600160a01b03160361101b57503361102f565b61102c610100860160e087016124b3565b90505b604080516003808252608082019092525f916020820160608036833701905050905061105e60208801886124b3565b815f8151811061107057611070612c28565b6001600160a01b039092166020928302919091019091015261109860e0870160c088016124b3565b816001815181106110ab576110ab612c28565b60200260200101906001600160a01b031690816001600160a01b03168152505081816002815181106110df576110df612c28565b6001600160a01b0392909216602092830291909101820152604080516003808252608082019092525f9290919082016060803683370190505090508660400135815f8151811061113157611131612c28565b602002602001018181525050848160018151811061115157611151612c28565b602002602001018181525050858160028151811061117157611171612c28565b60200260200101818152505061118882828f61168e565b6111918861157a565b50505050505050505050505050565b6111ad8383836001611818565b505050565b5f6111bd8484610f14565b90505f198110156111fd57818110156111ef57828183604051637dc7a0d960e11b8152600401610ad193929190612ff0565b6111fd84848484035f611818565b50505050565b6001600160a01b03831661122c575f604051634b637e8f60e11b8152600401610ad19190612a3f565b6001600160a01b038216611255575f60405163ec442f0560e01b8152600401610ad19190612a3f565b6111ad8383836118ea565b6001600160a01b038216611289575f60405163ec442f0560e01b8152600401610ad19190612a3f565b6112945f83836118ea565b5050565b5f5f82516001600160401b038111156112b3576112b36123e0565b6040519080825280602002602001820160405280156112dc578160200160208202803683370190505b5090505f5b8351811015611330578381815181106112fc576112fc612c28565b60200260200101518051906020012082828151811061131d5761131d612c28565b60209081029190910101526001016112e1565b50806040516020016113429190613011565b60405160208183030381529060405280519060200120915050919050565b5f61052461136c611a36565b8360405161190160f01b8152600281019290925260228201526042902090565b5f7f23ebbcc1e130851ed075a3c8252e154cf333d2ba187b279850791bf66764188f825f015183602001518460400151856060015186608001518760a001518860c001518960e0015160405160200161143399989796959493929190988952602089019790975260408801959095526060870193909352608086019190915260a085015260c08401526001600160a01b0390811660e0840152166101008201526101200190565b604051602081830303815290604052805190602001209050919050565b6060610fb27f00000000000000000000000000000000000000000000000000000000000000006005611b5f565b6060610fb27f00000000000000000000000000000000000000000000000000000000000000006006611b5f565b6001600160a01b0383166114cf576002805483900390556114ca81611c08565b611547565b6001600160a01b0383165f908152602081905260408120546114f2908490612c15565b6001600160a01b0385165f90815260208190526040902081905590505f5160206130f15f395f51905f52811061153a5760405162461bcd60e51b8152600401610ad190613046565b611545848284611d71565b505b6040518281526001600160a01b038416905f905f5160206131115f395f51905f52906020015b60405180910390a3505050565b6115876040820182612c3c565b151590508061159957505f8160800135115b156105f6575f6115ac60208301836124b3565b6001600160a01b031660808301356115c76040850185612c3c565b6040516115d5929190612c7e565b5f6040518083038185875af1925050503d805f811461160f576040519150601f19603f3d011682016040523d82523d5f602084013e611614565b606091505b5090915061162a90506080830160608401612c9a565b806116325750805b6112945760405162461bcd60e51b815260206004820152602760248201527f63616c6c206661696c656420616e6420776173206e6f7420616c6c6f776564206044820152661d1bc819985a5b60ca1b6064820152608401610ad1565b5f82516001600160401b038111156116a8576116a86123e0565b6040519080825280602002602001820160405280156116d1578160200160208202803683370190505b5090505f5b845181101561180c575f8582815181106116f2576116f2612c28565b602002602001015190505f85838151811061170f5761170f612c28565b602002602001015190505f6001600160a01b0316826001600160a01b0316036117495760028054829003905561174485611c08565b6117d5565b6001600160a01b0382165f9081526020819052604081205461176c908390612c15565b6001600160a01b0384165f90815260208190526040902081905590505f5160206130f15f395f51905f5281106117b45760405162461bcd60e51b8152600401610ad190613046565b808585815181106117c7576117c7612c28565b602002602001018181525050505b6040518181526001600160a01b038316905f905f5160206131115f395f51905f529060200160405180910390a350506001016116d6565b506111fd848284611efb565b6001600160a01b038416611841575f60405163e602df0560e01b8152600401610ad19190612a3f565b6001600160a01b03831661186a575f604051634a1406b160e11b8152600401610ad19190612a3f565b6001600160a01b038085165f90815260016020908152604080832093871683529290522082905580156111fd57826001600160a01b0316846001600160a01b03167f8c5be1e5ebec7d5bd14f71427d1e84f3dd0314c0f7b2291e5b200ac8c7c3b925846040516118dc91815260200190565b60405180910390a350505050565b6001600160a01b038316611914578060025f8282546119099190612c15565b909155506119719050565b6001600160a01b0383165f90815260208190526040902054818110156119535783818360405163391434e360e21b8152600401610ad193929190612ff0565b6001600160a01b0384165f9081526020819052604090209082900390555b6001600160a01b03821661198d57600280548290039055611a04565b6001600160a01b0382165f908152602081905260408120546119b0908390612c15565b90505f5160206130f15f395f51905f5281106119de5760405162461bcd60e51b8152600401610ad190613046565b6001600160a01b0383165f908152602081905260409020819055611a0283826120e2565b505b816001600160a01b0316836001600160a01b03165f5160206131115f395f51905f528360405161156d91815260200190565b5f306001600160a01b037f000000000000000000000000000000000000000000000000000000000000000016148015611a8e57507f000000000000000000000000000000000000000000000000000000000000000046145b15611ab857507f000000000000000000000000000000000000000000000000000000000000000090565b610fb2604080517f8b73c3c69bb8fe3d512ecc4cf759cc79239f7b179b0ffacaa9a75d522b39400f60208201527f0000000000000000000000000000000000000000000000000000000000000000918101919091527f000000000000000000000000000000000000000000000000000000000000000060608201524660808201523060a08201525f9060c00160405160208183030381529060405280519060200120905090565b606060ff8314611b7957611b7283612190565b9050610524565b818054611b8590612b28565b80601f0160208091040260200160405190810160405280929190818152602001828054611bb190612b28565b8015611bfc5780601f10611bd357610100808354040283529160200191611bfc565b820191905f5260205f20905b815481529060010190602001808311611bdf57829003601f168201915b50505050509050610524565b604051630649a08560e01b815273__$81047e2420497af1f397e161c4153f8e32$__90630649a08590611c4290600c90859060040161308b565b602060405180830381865af4158015611c5d573d5f5f3e3d5ffd5b505050506040513d601f19601f82011682018060405250810190611c819190612fd9565b505f5b8151811015611cd4575f5160206131315f395f51905f52828281518110611cad57611cad612c28565b6020026020010151604051611cc491815260200190565b60405180910390a1600101611c84565b50604051637a3e5e1d60e11b8152600c60048201526001906008905f9073__$81047e2420497af1f397e161c4153f8e32$__9063f47cbc3a906024015b602060405180830381865af4158015611d2c573d5f5f3e3d5ffd5b505050506040513d601f19601f82011682018060405250810190611d509190612fd9565b815260208101919091526040015f20805460ff191691151591909117905550565b6001600160a01b0383163203611d8a576111ad81611c08565b5f611d9584846121cd565b60405163bc167a3160e01b8152600c60048201526024810182905290915073__$81047e2420497af1f397e161c4153f8e32$__9063bc167a3190604401602060405180830381865af4158015611ded573d5f5f3e3d5ffd5b505050506040513d601f19601f82011682018060405250810190611e119190612fbe565b15611e2457611e1f82611c08565b6111fd565b5f82516001611e339190612c15565b6001600160401b03811115611e4a57611e4a6123e0565b604051908082528060200260200182016040528015611e73578160200160208202803683370190505b50905081815f81518110611e8957611e89612c28565b60209081029190910101525f5b8351811015611eea57838181518110611eb157611eb1612c28565b602002602001015182826001611ec79190612c15565b81518110611ed757611ed7612c28565b6020908102919091010152600101611e96565b50611ef481611c08565b5050505050565b5f81518451611f0a9190612c15565b6001600160401b03811115611f2157611f216123e0565b604051908082528060200260200182016040528015611f4a578160200160208202803683370190505b5090505f805b855181101561207e57858181518110611f6b57611f6b612c28565b60200260200101516001600160a01b0316326001600160a01b031614612076575f611fc8878381518110611fa157611fa1612c28565b6020026020010151878481518110611fbb57611fbb612c28565b60200260200101516121cd565b60405163bc167a3160e01b8152600c60048201526024810182905290915073__$81047e2420497af1f397e161c4153f8e32$__9063bc167a3190604401602060405180830381865af4158015612020573d5f5f3e3d5ffd5b505050506040513d601f19601f820116820180604052508101906120449190612fbe565b1561207457808484612055816130d8565b95508151811061206757612067612c28565b6020026020010181815250505b505b600101611f50565b505f5b83518110156120d55783818151811061209c5761209c612c28565b60200260200101518383806120b0906130d8565b9450815181106120c2576120c2612c28565b6020908102919091010152600101612081565b50808252611ef482611c08565b6001600160a01b03821632036120f6575050565b5f61210183836121cd565b60405163bc167a3160e01b8152600c60048201526024810182905290915073__$81047e2420497af1f397e161c4153f8e32$__9063bc167a3190604401602060405180830381865af4158015612159573d5f5f3e3d5ffd5b505050506040513d601f19601f8201168201806040525081019061217d9190612fbe565b1561218757505050565b6111ad81612204565b60605f61219c836122de565b6040805160208082528183019092529192505f91906020820181803683375050509182525060208101929092525090565b5f6121d6612305565b6001600160a01b0384168152602081018390526b544f54414c5f4255524e45446040820152610a29816105f9565b604051632f85497160e01b8152600c60048201526024810182905273__$81047e2420497af1f397e161c4153f8e32$__90632f85497190604401602060405180830381865af4158015612259573d5f5f3e3d5ffd5b505050506040513d601f19601f8201168201806040525081019061227d9190612fd9565b506040518181525f5160206131315f395f51905f529060200160405180910390a1604051637a3e5e1d60e11b8152600c60048201526001906008905f9073__$81047e2420497af1f397e161c4153f8e32$__9063f47cbc3a90602401611d11565b5f60ff8216601f81111561052457604051632cd44ac360e21b815260040160405180910390fd5b60405180606001604052806003906020820280368337509192915050565b5f81518084528060208401602086015e5f602082860101526020601f19601f83011685010191505092915050565b602081525f6105e36020830184612323565b80356001600160a01b0381168114612379575f5ffd5b919050565b5f5f6040838503121561238f575f5ffd5b61239883612363565b946020939093013593505050565b5f5f5f606084860312156123b8575f5ffd5b6123c184612363565b92506123cf60208501612363565b929592945050506040919091013590565b634e487b7160e01b5f52604160045260245ffd5b60405161010081016001600160401b0381118282101715612417576124176123e0565b60405290565b604051601f8201601f191681016001600160401b0381118282101715612445576124456123e0565b604052919050565b5f60c0828403121561245d575f5ffd5b5f83601f84011261246c575f5ffd5b505f8061247960c061241d565b905080915060c084018581111561248e575f5ffd5b845b818110156124a8578035845260209384019301612490565b509095945050505050565b5f602082840312156124c3575f5ffd5b6105e382612363565b5f606082840312156124dc575f5ffd5b5f83601f8401126124eb575f5ffd5b505f806124f8606061241d565b9050809150606084018581111561248e575f5ffd5b5f6001600160401b03821115612525576125256123e0565b5060051b60200190565b5f82601f83011261253e575f5ffd5b813561255161254c8261250d565b61241d565b8082825260208201915060208360051b860101925085831115612572575f5ffd5b602085015b8381101561258f578035835260209283019201612577565b5095945050505050565b5f5f5f5f5f60a086880312156125ad575f5ffd5b85359450602086013593506040860135925060608601356001600160401b038111156125d7575f5ffd5b6125e38882890161252f565b92505060808601356001600160401b038111156125fe575f5ffd5b61260a8882890161252f565b9150509295509295909350565b5f8151808452602084019350602083015f5b82811015612647578151865260209586019590910190600101612629565b5093949350505050565b602081525f6105e36020830184612617565b5f60c08284031215612673575f5ffd5b50919050565b5f60208284031215612689575f5ffd5b81356001600160401b0381111561269e575f5ffd5b610a2984828501612663565b5f6101008284031215612673575f5ffd5b5f5f61012083850312156126cd575f5ffd5b82356001600160401b038111156126e2575f5ffd5b6126ee85828601612663565b9250506126fe84602085016126aa565b90509250929050565b5f5f6101208385031215612719575f5ffd5b61272384846126aa565b94610100939093013593505050565b60ff60f81b8816815260e060208201525f61275060e0830189612323565b82810360408401526127628189612323565b606084018890526001600160a01b038716608085015260a0840186905283810360c0850152845180825260208087019350909101905f5b818110156127b7578351835260209384019390920191600101612799565b50909b9a5050505050505050505050565b5f5f83601f8401126127d8575f5ffd5b5081356001600160401b038111156127ee575f5ffd5b602083019150836020828501011115610bbe575f5ffd5b5f5f83601f840112612815575f5ffd5b5081356001600160401b0381111561282b575f5ffd5b6020830191508360208260051b8501011115610bbe575f5ffd5b5f5f5f5f5f5f5f5f5f60e08a8c03121561285d575f5ffd5b8935985060208a01356001600160401b03811115612879575f5ffd5b6128858c828d0161252f565b98505060408a01356001600160401b038111156128a0575f5ffd5b6128ac8c828d0161252f565b97505060608a0135955060808a01356001600160401b038111156128ce575f5ffd5b6128da8c828d016127c8565b90965094505060a08a01356001600160401b038111156128f8575f5ffd5b6129048c828d01612805565b9a9d999c50979a9699959894979660c00135949350505050565b5f5f5f5f5f5f60a08789031215612933575f5ffd5b86356001600160401b03811115612948575f5ffd5b61295489828a0161252f565b96505060208701356001600160401b0381111561296f575f5ffd5b61297b89828a0161252f565b9550506040870135935060608701356001600160401b0381111561299d575f5ffd5b6129a989828a016127c8565b90945092505060808701356001600160401b038111156129c7575f5ffd5b6129d389828a01612663565b9150509295509295509295565b5f602082840312156129f0575f5ffd5b5035919050565b5f5f60408385031215612a08575f5ffd5b612a1183612363565b91506126fe60208401612363565b5f60208284031215612a2f575f5ffd5b813560ff811681146105e3575f5ffd5b6001600160a01b0391909116815260200190565b5f5f5f5f5f5f5f6101a0888a031215612a6a575f5ffd5b87356001600160401b03811115612a7f575f5ffd5b612a8b8a828b0161252f565b97505060208801356001600160401b03811115612aa6575f5ffd5b612ab28a828b0161252f565b9650506040880135945060608801356001600160401b03811115612ad4575f5ffd5b612ae08a828b016127c8565b90955093505060808801356001600160401b03811115612afe575f5ffd5b612b0a8a828b01612663565b925050612b1a8960a08a016126aa565b905092959891949750929550565b600181811c90821680612b3c57607f821691505b60208210810361267357634e487b7160e01b5f52602260045260245ffd5b60c0810181835f5b6006811015612b81578151835260209283019290910190600101612b62565b50505092915050565b5f82518060208501845e5f920191825250919050565b80516020808301519190811015612673575f1960209190910360031b1b16919050565b6060810181835f5b6003811015612b81578151835260209283019290910190600101612bcb565b634e487b7160e01b5f52601160045260245ffd5b808202811582820484141761052457610524612bea565b8082018082111561052457610524612bea565b634e487b7160e01b5f52603260045260245ffd5b5f5f8335601e19843603018112612c51575f5ffd5b8301803591506001600160401b03821115612c6a575f5ffd5b602001915036819003821315610bbe575f5ffd5b818382375f9101908152919050565b80151581146105f6575f5ffd5b5f60208284031215612caa575f5ffd5b81356105e381612c8d565b5f5f8335601e19843603018112612cca575f5ffd5b8301803591506001600160401b03821115612ce3575f5ffd5b6020019150600581901b3603821315610bbe575f5ffd5b5f612d0761254c8461250d565b8381526020810190600585901b840136811115612d22575f5ffd5b845b818110156124a85780356001600160401b03811115612d41575f5ffd5b860136601f820112612d51575f5ffd5b80356001600160401b03811115612d6a57612d6a6123e0565b612d7d601f8201601f191660200161241d565b818152366020838501011115612d91575f5ffd5b816020840160208301375f60208383010152808752505050602084019350602081019050612d24565b5f610100828403128015612dcc575f5ffd5b50612dd56123f4565b823581526020808401359082015260408084013590820152606080840135908201526080808401359082015260a08084013590820152612e1760c08401612363565b60c0820152612e2860e08401612363565b60e08201529392505050565b6001815b6001841115612e6f57808504811115612e5357612e53612bea565b6001841615612e6157908102905b60019390931c928002612e38565b935093915050565b5f82612e8557506001610524565b81612e9157505f610524565b8160018114612ea75760028114612eb157612ecd565b6001915050610524565b60ff841115612ec257612ec2612bea565b50506001821b610524565b5060208310610133831016604e8410600b8410161715612ef0575081810a610524565b612efc5f198484612e34565b805f1904821115612f0f57612f0f612bea565b029392505050565b5f6105e38383612e77565b5f82612f3c57634e487b7160e01b5f52601260045260245ffd5b500490565b8181038181111561052457610524612bea565b81835281816020850137505f828201602090810191909152601f909101601f19169091010190565b602081525f610a29602083018486612f54565b604081525f612fa2604083018587612f54565b8281036020840152612fb48185612617565b9695505050505050565b5f60208284031215612fce575f5ffd5b81516105e381612c8d565b5f60208284031215612fe9575f5ffd5b5051919050565b6001600160a01b039390931683526020830191909152604082015260600190565b81515f90829060208501835b8281101561303b57815184526020938401939091019060010161301d565b509195945050505050565b60208082526025908201527f62616c616e63652063616e277420676f206f76657220746865204649454c4420604082015264131253525560da1b606082015260800190565b5f60408201848352604060208401528084518083526060850191506020860192505f5b818110156130cc5783518352602093840193909201916001016130ae565b50909695505050505050565b5f600182016130e9576130e9612bea565b506001019056fe30644e72e131a029b85045b68181585d2833e84879b9709143e1f593f0000001ddf252ad1be2c89b69c2b068fc378daa952ba7f163c4a11628f55a4df523b3ef297d88d6449509e687c2769e1358fbeb521f447c0ec5786c512f8f9676b4d9b1a26469706673582212200a88583242f991cb5ac8b52e44d560cbc23f72db141ce8c01eade087c7ac686464736f6c634300081c0033",
  "linkReferences": {
    "project/contracts/leanIMTPoseidon2.sol": {
      "leanIMTPoseidon2": [
        {
          "length": 20,
          "start": 6019
        },
        {
          "length": 20,
          "start": 9284
        },
        {
          "length": 20,
          "start": 9504
        },
        {
          "length": 20,
          "start": 9698
        },
        {
          "length": 20,
          "start": 10261
        },
        {
          "length": 20,
          "start": 10574
        },
        {
          "length": 20,
          "start": 10830
        },
        {
          "length": 20,
          "start": 10985
        }
      ]
    }
  },
  "deployedLinkReferences": {
    "project/contracts/leanIMTPoseidon2.sol": {
      "leanIMTPoseidon2": [
        {
          "length": 20,
          "start": 3926
        },
        {
          "length": 20,
          "start": 7191
        },
        {
          "length": 20,
          "start": 7411
        },
        {
          "length": 20,
          "start": 7605
        },
        {
          "length": 20,
          "start": 8168
        },
        {
          "length": 20,
          "start": 8481
        },
        {
          "length": 20,
          "start": 8737
        },
        {
          "length": 20,
          "start": 8892
        }
      ]
    }
  },
  "immutableReferences": {
    "2111": [
      {
        "length": 32,
        "start": 6806
      }
    ],
    "2113": [
      {
        "length": 32,
        "start": 6764
      }
    ],
    "2115": [
      {
        "length": 32,
        "start": 6722
      }
    ],
    "2117": [
      {
        "length": 32,
        "start": 6887
      }
    ],
    "2119": [
      {
        "length": 32,
        "start": 6927
      }
    ],
    "2122": [
      {
        "length": 32,
        "start": 5207
      }
    ],
    "2125": [
      {
        "length": 32,
        "start": 5252
      }
    ]
  },
  "inputSourceName": "project/contracts/WormholeToken.sol",
  "buildInfoId": "solc-0_8_28-7b39a0b48f5248d337de55e0487e4827a876f07c"
}