{
  "_format": "hh3-artifact-1",
  "contractName": "WormholeToken",
  "sourceName": "contracts/WormholeToken.sol",
  "abi": [
    {
      "inputs": [
        {
          "internalType": "address",
          "name": "_privateTransferVerifier",
          "type": "address"
        }
      ],
      "stateMutability": "nonpayable",
      "type": "constructor"
    },
    {
      "inputs": [
        {
          "internalType": "address",
          "name": "spender",
          "type": "address"
        },
        {
          "internalType": "uint256",
          "name": "allowance",
          "type": "uint256"
        },
        {
          "internalType": "uint256",
          "name": "needed",
          "type": "uint256"
        }
      ],
      "name": "ERC20InsufficientAllowance",
      "type": "error"
    },
    {
      "inputs": [
        {
          "internalType": "address",
          "name": "sender",
          "type": "address"
        },
        {
          "internalType": "uint256",
          "name": "balance",
          "type": "uint256"
        },
        {
          "internalType": "uint256",
          "name": "needed",
          "type": "uint256"
        }
      ],
      "name": "ERC20InsufficientBalance",
      "type": "error"
    },
    {
      "inputs": [
        {
          "internalType": "address",
          "name": "approver",
          "type": "address"
        }
      ],
      "name": "ERC20InvalidApprover",
      "type": "error"
    },
    {
      "inputs": [
        {
          "internalType": "address",
          "name": "receiver",
          "type": "address"
        }
      ],
      "name": "ERC20InvalidReceiver",
      "type": "error"
    },
    {
      "inputs": [
        {
          "internalType": "address",
          "name": "sender",
          "type": "address"
        }
      ],
      "name": "ERC20InvalidSender",
      "type": "error"
    },
    {
      "inputs": [
        {
          "internalType": "address",
          "name": "spender",
          "type": "address"
        }
      ],
      "name": "ERC20InvalidSpender",
      "type": "error"
    },
    {
      "inputs": [],
      "name": "VerificationFailed",
      "type": "error"
    },
    {
      "anonymous": false,
      "inputs": [
        {
          "indexed": true,
          "internalType": "address",
          "name": "owner",
          "type": "address"
        },
        {
          "indexed": true,
          "internalType": "address",
          "name": "spender",
          "type": "address"
        },
        {
          "indexed": false,
          "internalType": "uint256",
          "name": "value",
          "type": "uint256"
        }
      ],
      "name": "Approval",
      "type": "event"
    },
    {
      "anonymous": false,
      "inputs": [
        {
          "indexed": false,
          "internalType": "uint256",
          "name": "leaf",
          "type": "uint256"
        }
      ],
      "name": "NewLeaf",
      "type": "event"
    },
    {
      "anonymous": false,
      "inputs": [
        {
          "indexed": true,
          "internalType": "uint256",
          "name": "accountNoteNullifier",
          "type": "uint256"
        },
        {
          "indexed": false,
          "internalType": "uint256",
          "name": "amount",
          "type": "uint256"
        }
      ],
      "name": "PrivateTransfer",
      "type": "event"
    },
    {
      "anonymous": false,
      "inputs": [
        {
          "indexed": true,
          "internalType": "address",
          "name": "from",
          "type": "address"
        },
        {
          "indexed": true,
          "internalType": "address",
          "name": "to",
          "type": "address"
        },
        {
          "indexed": false,
          "internalType": "uint256",
          "name": "value",
          "type": "uint256"
        }
      ],
      "name": "Transfer",
      "type": "event"
    },
    {
      "inputs": [],
      "name": "TOTAL_RECEIVED_DOMAIN",
      "outputs": [
        {
          "internalType": "uint256",
          "name": "",
          "type": "uint256"
        }
      ],
      "stateMutability": "view",
      "type": "function"
    },
    {
      "inputs": [
        {
          "internalType": "uint256",
          "name": "_amount",
          "type": "uint256"
        },
        {
          "internalType": "address",
          "name": "_to",
          "type": "address"
        },
        {
          "components": [
            {
              "internalType": "address",
              "name": "relayerAddress",
              "type": "address"
            },
            {
              "internalType": "uint256",
              "name": "priorityFee",
              "type": "uint256"
            },
            {
              "internalType": "uint256",
              "name": "conversionRate",
              "type": "uint256"
            },
            {
              "internalType": "uint256",
              "name": "maxFee",
              "type": "uint256"
            },
            {
              "internalType": "address",
              "name": "feeToken",
              "type": "address"
            }
          ],
          "internalType": "struct FeeData",
          "name": "_feeData",
          "type": "tuple"
        },
        {
          "internalType": "uint256",
          "name": "_accountNoteHash",
          "type": "uint256"
        },
        {
          "internalType": "uint256",
          "name": "_accountNoteNullifier",
          "type": "uint256"
        },
        {
          "internalType": "uint256",
          "name": "_root",
          "type": "uint256"
        }
      ],
      "name": "_formatPublicInputs",
      "outputs": [
        {
          "internalType": "bytes32[]",
          "name": "",
          "type": "bytes32[]"
        }
      ],
      "stateMutability": "pure",
      "type": "function"
    },
    {
      "inputs": [
        {
          "internalType": "address",
          "name": "owner",
          "type": "address"
        },
        {
          "internalType": "address",
          "name": "spender",
          "type": "address"
        }
      ],
      "name": "allowance",
      "outputs": [
        {
          "internalType": "uint256",
          "name": "",
          "type": "uint256"
        }
      ],
      "stateMutability": "view",
      "type": "function"
    },
    {
      "inputs": [],
      "name": "amountFreeTokens",
      "outputs": [
        {
          "internalType": "uint256",
          "name": "",
          "type": "uint256"
        }
      ],
      "stateMutability": "view",
      "type": "function"
    },
    {
      "inputs": [
        {
          "internalType": "address",
          "name": "spender",
          "type": "address"
        },
        {
          "internalType": "uint256",
          "name": "value",
          "type": "uint256"
        }
      ],
      "name": "approve",
      "outputs": [
        {
          "internalType": "bool",
          "name": "",
          "type": "bool"
        }
      ],
      "stateMutability": "nonpayable",
      "type": "function"
    },
    {
      "inputs": [
        {
          "internalType": "address",
          "name": "account",
          "type": "address"
        }
      ],
      "name": "balanceOf",
      "outputs": [
        {
          "internalType": "uint256",
          "name": "",
          "type": "uint256"
        }
      ],
      "stateMutability": "view",
      "type": "function"
    },
    {
      "inputs": [],
      "name": "decimals",
      "outputs": [
        {
          "internalType": "uint8",
          "name": "",
          "type": "uint8"
        }
      ],
      "stateMutability": "view",
      "type": "function"
    },
    {
      "inputs": [
        {
          "internalType": "address",
          "name": "_to",
          "type": "address"
        }
      ],
      "name": "getFreeTokens",
      "outputs": [],
      "stateMutability": "nonpayable",
      "type": "function"
    },
    {
      "inputs": [
        {
          "internalType": "uint256[3]",
          "name": "input",
          "type": "uint256[3]"
        }
      ],
      "name": "hashPoseidon2T3",
      "outputs": [
        {
          "internalType": "uint256",
          "name": "",
          "type": "uint256"
        }
      ],
      "stateMutability": "view",
      "type": "function"
    },
    {
      "inputs": [],
      "name": "name",
      "outputs": [
        {
          "internalType": "string",
          "name": "",
          "type": "string"
        }
      ],
      "stateMutability": "view",
      "type": "function"
    },
    {
      "inputs": [
        {
          "internalType": "uint256",
          "name": "",
          "type": "uint256"
        }
      ],
      "name": "nullifiers",
      "outputs": [
        {
          "internalType": "uint256",
          "name": "",
          "type": "uint256"
        }
      ],
      "stateMutability": "view",
      "type": "function"
    },
    {
      "inputs": [
        {
          "internalType": "uint256",
          "name": "_amount",
          "type": "uint256"
        },
        {
          "internalType": "address",
          "name": "_to",
          "type": "address"
        },
        {
          "components": [
            {
              "internalType": "address",
              "name": "relayerAddress",
              "type": "address"
            },
            {
              "internalType": "uint256",
              "name": "priorityFee",
              "type": "uint256"
            },
            {
              "internalType": "uint256",
              "name": "conversionRate",
              "type": "uint256"
            },
            {
              "internalType": "uint256",
              "name": "maxFee",
              "type": "uint256"
            },
            {
              "internalType": "address",
              "name": "feeToken",
              "type": "address"
            }
          ],
          "internalType": "struct FeeData",
          "name": "_feeData",
          "type": "tuple"
        },
        {
          "internalType": "uint256",
          "name": "_accountNoteHash",
          "type": "uint256"
        },
        {
          "internalType": "uint256",
          "name": "_accountNoteNullifier",
          "type": "uint256"
        },
        {
          "internalType": "uint256",
          "name": "_root",
          "type": "uint256"
        },
        {
          "internalType": "bytes",
          "name": "_snarkProof",
          "type": "bytes"
        }
      ],
      "name": "privateTransfer",
      "outputs": [],
      "stateMutability": "nonpayable",
      "type": "function"
    },
    {
      "inputs": [],
      "name": "privateTransferVerifier",
      "outputs": [
        {
          "internalType": "address",
          "name": "",
          "type": "address"
        }
      ],
      "stateMutability": "view",
      "type": "function"
    },
    {
      "inputs": [],
      "name": "root",
      "outputs": [
        {
          "internalType": "uint256",
          "name": "",
          "type": "uint256"
        }
      ],
      "stateMutability": "view",
      "type": "function"
    },
    {
      "inputs": [
        {
          "internalType": "uint256",
          "name": "",
          "type": "uint256"
        }
      ],
      "name": "roots",
      "outputs": [
        {
          "internalType": "bool",
          "name": "",
          "type": "bool"
        }
      ],
      "stateMutability": "view",
      "type": "function"
    },
    {
      "inputs": [],
      "name": "symbol",
      "outputs": [
        {
          "internalType": "string",
          "name": "",
          "type": "string"
        }
      ],
      "stateMutability": "view",
      "type": "function"
    },
    {
      "inputs": [],
      "name": "totalSupply",
      "outputs": [
        {
          "internalType": "uint256",
          "name": "",
          "type": "uint256"
        }
      ],
      "stateMutability": "view",
      "type": "function"
    },
    {
      "inputs": [
        {
          "internalType": "address",
          "name": "to",
          "type": "address"
        },
        {
          "internalType": "uint256",
          "name": "value",
          "type": "uint256"
        }
      ],
      "name": "transfer",
      "outputs": [
        {
          "internalType": "bool",
          "name": "",
          "type": "bool"
        }
      ],
      "stateMutability": "nonpayable",
      "type": "function"
    },
    {
      "inputs": [
        {
          "internalType": "address",
          "name": "from",
          "type": "address"
        },
        {
          "internalType": "address",
          "name": "to",
          "type": "address"
        },
        {
          "internalType": "uint256",
          "name": "value",
          "type": "uint256"
        }
      ],
      "name": "transferFrom",
      "outputs": [
        {
          "internalType": "bool",
          "name": "",
          "type": "bool"
        }
      ],
      "stateMutability": "nonpayable",
      "type": "function"
    },
    {
      "inputs": [],
      "name": "tree",
      "outputs": [
        {
          "internalType": "uint256",
          "name": "size",
          "type": "uint256"
        },
        {
          "internalType": "uint256",
          "name": "depth",
          "type": "uint256"
        }
      ],
      "stateMutability": "view",
      "type": "function"
    }
  ],
  "bytecode": "0x60806040526100106012600a6101d0565b61001d90620f42406101e5565b60095534801561002b575f5ffd5b50604051611ae9380380611ae983398101604081905261004a916101fc565b604051806040016040528060118152602001703d35bbb7b936b437b632b996ba37b5b2b760791b8152506040518060400160405280600581526020016415d493521360da1b81525081600390816100a191906102ba565b5060046100ae82826102ba565b5050600a80546001600160a01b0319166001600160a01b03939093169290921790915550610374565b634e487b7160e01b5f52601160045260245ffd5b6001815b60018411156101265780850481111561010a5761010a6100d7565b600184161561011857908102905b60019390931c9280026100ef565b935093915050565b5f8261013c575060016101ca565b8161014857505f6101ca565b816001811461015e576002811461016857610184565b60019150506101ca565b60ff841115610179576101796100d7565b50506001821b6101ca565b5060208310610133831016604e8410600b84101617156101a7575081810a6101ca565b6101b35f1984846100eb565b805f19048211156101c6576101c66100d7565b0290505b92915050565b5f6101de60ff84168361012e565b9392505050565b80820281158282048414176101ca576101ca6100d7565b5f6020828403121561020c575f5ffd5b81516001600160a01b03811681146101de575f5ffd5b634e487b7160e01b5f52604160045260245ffd5b600181811c9082168061024a57607f821691505b60208210810361026857634e487b7160e01b5f52602260045260245ffd5b50919050565b601f8211156102b557805f5260205f20601f840160051c810160208510156102935750805b601f840160051c820191505b818110156102b2575f815560010161029f565b50505b505050565b81516001600160401b038111156102d3576102d3610222565b6102e7816102e18454610236565b8461026e565b6020601f821160018114610319575f83156103025750848201515b5f19600385901b1c1916600184901b1784556102b2565b5f84815260208120601f198516915b828110156103485787850151825560209485019460019092019101610328565b508482101561036557868401515f19600387901b60f8161c191681555b50505050600190811b01905550565b611768806103815f395ff3fe608060405234801561000f575f5ffd5b50600436106100fa575f3560e01c806306fdde03146100fe578063095ea7b31461011c57806310add6f01461013f57806318160ddd1461015f57806323b872dd14610171578063313ce567146101845780633d59e5e2146101935780634a2ef36a146101a857806366678575146101bb57806370a08231146101c45780638d116b84146101ec578063954c80591461020157806395d89b4114610221578063a9059cbb14610229578063b56738941461023c578063c2b40ae41461024f578063d21e82ab14610271578063dd62ed3e14610290578063ebf0c717146102a3578063fd54b228146102ab575b5f5ffd5b6101066102ce565b60405161011391906111b1565b60405180910390f35b61012f61012a366004611201565b61035e565b6040519015158152602001610113565b61015261014d36600461123f565b610377565b60405161011391906112d1565b6002545b604051908152602001610113565b61012f61017f3660046112e3565b61053a565b60405160128152602001610113565b6101a66101a136600461131d565b61055d565b005b6101636101b636600461134a565b61056c565b61016360095481565b6101636101d236600461131d565b6001600160a01b03165f9081526020819052604090205490565b6101636d52454345495645445f544f54414c81565b600a54610214906001600160a01b031681565b60405161011391906113c3565b610106610609565b61012f610237366004611201565b610618565b6101a661024a3660046113d7565b610625565b61012f61025d36600461148c565b60076020525f908152604090205460ff1681565b61016361027f36600461148c565b60056020525f908152604090205481565b61016361029e3660046114a3565b610874565b61016361089e565b600b54600c546102b9919082565b60408051928352602083019190915201610113565b6060600380546102dd906114d4565b80601f0160208091040260200160405190810160405280929190818152602001828054610309906114d4565b80156103545780601f1061032b57610100808354040283529160200191610354565b820191905f5260205f20905b81548152906001019060200180831161033757829003601f168201915b5050505050905090565b5f3361036b818585610917565b60019150505b92915050565b60408051600a80825261016082019092526060915f91906020820161014080368337019050509050875f1b815f815181106103b4576103b4611506565b6020026020010181815250506103c987610929565b5f1b816001815181106103de576103de611506565b602002602001018181525050610404865f0160208101906103ff919061131d565b610929565b5f1b8160028151811061041957610419611506565b60200260200101818152505085602001355f1b8160038151811061043f5761043f611506565b60200260200101818152505085604001355f1b8160048151811061046557610465611506565b60200260200101818152505085606001355f1b8160058151811061048b5761048b611506565b60209081029190910101526104a96103ff60a088016080890161131d565b5f1b816006815181106104be576104be611506565b602002602001018181525050845f1b816007815181106104e0576104e0611506565b602002602001018181525050835f1b8160088151811061050257610502611506565b602002602001018181525050825f1b8160098151811061052457610524611506565b6020908102919091010152979650505050505050565b5f33610547858285610935565b610552858585610986565b506001949350505050565b610569816009546109e3565b50565b5f5f73382abef9789c1b5fee54c72bd9aaf7983726841c6001600160a01b03168360405160200161059d919061151a565b60408051601f19818403018152908290526105b79161154a565b5f60405180830381855afa9150503d805f81146105ef576040519150601f19603f3d011682016040523d82523d5f602084013e6105f4565b606091505b509150508061060290611560565b9392505050565b6060600480546102dd906114d4565b5f3361036b818585610986565b5f848152600560205260409020541561067f5760405162461bcd60e51b81526020600482015260176024820152761b9d5b1b1a599a595c88185b1c9958591e48195e1a5cdd604a1b60448201526064015b60405180910390fd5b5f8381526007602052604090205460ff166106cb5760405162461bcd60e51b815260206004820152600c60248201526b1a5b9d985b1a59081c9bdbdd60a21b6044820152606401610676565b6106d6886001611597565b5f858152600560209081526040822092909255906106f69088018861131d565b6001600160a01b03160361073b5761070f878987610a1b565b835f5160206116d35f395f51905f528960405161072e91815260200190565b60405180910390a26107c8565b5f610749602088018861131d565b9050600161075a602089018961131d565b6001600160a01b03160361076b5750335b5f5f610777898c610a9f565b915091506107868a828a610a1b565b61079d5f61079760208c018c61131d565b84610b6e565b865f5160206116d35f395f51905f528c6040516107bc91815260200190565b60405180910390a25050505b5f6107d7898989898989610377565b600a54604051633a94343960e21b81529192506001600160a01b03169063ea50d0e49061080c908690869086906004016115aa565b6020604051808303815f875af1158015610828573d5f5f3e3d5ffd5b505050506040513d601f19601f8201168201806040525081019061084c91906115f0565b6108695760405163439cc0cd60e01b815260040160405180910390fd5b505050505050505050565b6001600160a01b039182165f90815260016020908152604080832093909416825291909152205490565b604051637a3e5e1d60e11b8152600b60048201525f9073__$81047e2420497af1f397e161c4153f8e32$__9063f47cbc3a90602401602060405180830381865af41580156108ee573d5f5f3e3d5ffd5b505050506040513d601f19601f82011682018060405250810190610912919061160f565b905090565b6109248383836001610c6e565b505050565b6001600160a01b031690565b5f6109408484610874565b90505f19811015610980578181101561097257828183604051637dc7a0d960e11b815260040161067693929190611626565b61098084848484035f610c6e565b50505050565b6001600160a01b0383166109af575f604051634b637e8f60e11b815260040161067691906113c3565b6001600160a01b0382166109d8575f60405163ec442f0560e01b815260040161067691906113c3565b610924838383610b6e565b6001600160a01b038216610a0c575f60405163ec442f0560e01b815260040161067691906113c3565b610a175f8383610b6e565b5050565b6001600160a01b038316610a4057600280548390039055610a3b81610d40565b610a6c565b6001600160a01b0383165f9081526020819052604090208054830190819055610a6a848284610e76565b505b6040518281526001600160a01b038416905f905f5160206116f35f395f51905f52906020015b60405180910390a3505050565b5f8030610ab260a086016080870161131d565b6001600160a01b031614610b225760405162461bcd60e51b815260206004820152603160248201527f616c7465726e6174697665207061796d656e7420746f6b656e73206973206e6f6044820152701d081a5b5c1b195b595b9d1959081e595d607a1b6064820152608401610676565b5f6040850135610b36486020880135611597565b610b409190611647565b90505f610b4d828661165e565b90508186606001351015610b6357610b63611671565b909590945092505050565b6001600160a01b038316610b98578060025f828254610b8d9190611597565b90915550610bf59050565b6001600160a01b0383165f9081526020819052604090205481811015610bd75783818360405163391434e360e21b815260040161067693929190611626565b6001600160a01b0384165f9081526020819052604090209082900390555b6001600160a01b038216610c1157600280548290039055610c3c565b6001600160a01b0382165f9081526020819052604090208054820190819055610c3a8382610f98565b505b816001600160a01b0316836001600160a01b03165f5160206116f35f395f51905f5283604051610a9291815260200190565b6001600160a01b038416610c97575f60405163e602df0560e01b815260040161067691906113c3565b6001600160a01b038316610cc0575f604051634a1406b160e11b815260040161067691906113c3565b6001600160a01b038085165f908152600160209081526040808320938716835292905220829055801561098057826001600160a01b0316846001600160a01b03167f8c5be1e5ebec7d5bd14f71427d1e84f3dd0314c0f7b2291e5b200ac8c7c3b92584604051610d3291815260200190565b60405180910390a350505050565b604051632f85497160e01b8152600b60048201526024810182905273__$81047e2420497af1f397e161c4153f8e32$__90632f85497190604401602060405180830381865af4158015610d95573d5f5f3e3d5ffd5b505050506040513d601f19601f82011682018060405250810190610db9919061160f565b506040518181525f5160206117135f395f51905f529060200160405180910390a1604051637a3e5e1d60e11b8152600b60048201526001906007905f9073__$81047e2420497af1f397e161c4153f8e32$__9063f47cbc3a906024015b602060405180830381865af4158015610e31573d5f5f3e3d5ffd5b505050506040513d601f19601f82011682018060405250810190610e55919061160f565b815260208101919091526040015f20805460ff191691151591909117905550565b6001600160a01b0383163203610e8f5761092481610d40565b5f610e9a8484611046565b60405163bc167a3160e01b8152600b60048201526024810182905290915073__$81047e2420497af1f397e161c4153f8e32$__9063bc167a3190604401602060405180830381865af4158015610ef2573d5f5f3e3d5ffd5b505050506040513d601f19601f82011682018060405250810190610f1691906115f0565b15610f2957610f2482610d40565b610980565b6040805160028082526060820183525f9260208301908036833701905050905081815f81518110610f5c57610f5c611506565b6020026020010181815250508281600181518110610f7c57610f7c611506565b602002602001018181525050610f9181611086565b5050505050565b6001600160a01b0382163203610fac575050565b5f610fb78383611046565b60405163bc167a3160e01b8152600b60048201526024810182905290915073__$81047e2420497af1f397e161c4153f8e32$__9063bc167a3190604401602060405180830381865af415801561100f573d5f5f3e3d5ffd5b505050506040513d601f19601f8201168201806040525081019061103391906115f0565b1561103d57505050565b61092481610d40565b5f61104f611193565b61105884610929565b8152602081018390526d52454345495645445f544f54414c604082015261107e8161056c565b949350505050565b604051630649a08560e01b815273__$81047e2420497af1f397e161c4153f8e32$__90630649a085906110c090600b908590600401611685565b602060405180830381865af41580156110db573d5f5f3e3d5ffd5b505050506040513d601f19601f820116820180604052508101906110ff919061160f565b505f5b8151811015611152575f5160206117135f395f51905f5282828151811061112b5761112b611506565b602002602001015160405161114291815260200190565b60405180910390a1600101611102565b50604051637a3e5e1d60e11b8152600b60048201526001906007905f9073__$81047e2420497af1f397e161c4153f8e32$__9063f47cbc3a90602401610e16565b60405180606001604052806003906020820280368337509192915050565b602081525f82518060208401528060208501604085015e5f604082850101526040601f19601f83011684010191505092915050565b80356001600160a01b03811681146111fc575f5ffd5b919050565b5f5f60408385031215611212575f5ffd5b61121b836111e6565b946020939093013593505050565b5f60a08284031215611239575f5ffd5b50919050565b5f5f5f5f5f5f6101408789031215611255575f5ffd5b86359550611265602088016111e6565b94506112748860408901611229565b9598949750949560e0810135955061010081013594610120909101359350915050565b5f8151808452602084019350602083015f5b828110156112c75781518652602095860195909101906001016112a9565b5093949350505050565b602081525f6106026020830184611297565b5f5f5f606084860312156112f5575f5ffd5b6112fe846111e6565b925061130c602085016111e6565b929592945050506040919091013590565b5f6020828403121561132d575f5ffd5b610602826111e6565b634e487b7160e01b5f52604160045260245ffd5b5f6060828403121561135a575f5ffd5b82601f830112611368575f5ffd5b604051606081018181106001600160401b038211171561138a5761138a611336565b60405280606084018581111561139e575f5ffd5b845b818110156113b85780358352602092830192016113a0565b509195945050505050565b6001600160a01b0391909116815260200190565b5f5f5f5f5f5f5f5f610160898b0312156113ef575f5ffd5b883597506113ff60208a016111e6565b965061140e8a60408b01611229565b955060e08901359450610100890135935061012089013592506101408901356001600160401b03811115611440575f5ffd5b8901601f81018b13611450575f5ffd5b80356001600160401b03811115611465575f5ffd5b8b6020828401011115611476575f5ffd5b989b979a50959850939692959194602001935050565b5f6020828403121561149c575f5ffd5b5035919050565b5f5f604083850312156114b4575f5ffd5b6114bd836111e6565b91506114cb602084016111e6565b90509250929050565b600181811c908216806114e857607f821691505b60208210810361123957634e487b7160e01b5f52602260045260245ffd5b634e487b7160e01b5f52603260045260245ffd5b6060810181835f5b6003811015611541578151835260209283019290910190600101611522565b50505092915050565b5f82518060208501845e5f920191825250919050565b80516020808301519190811015611239575f1960209190910360031b1b16919050565b634e487b7160e01b5f52601160045260245ffd5b8082018082111561037157610371611583565b60408152826040820152828460608301375f606084830101525f601f19601f850116820160608382030160208401526115e66060820185611297565b9695505050505050565b5f60208284031215611600575f5ffd5b81518015158114610602575f5ffd5b5f6020828403121561161f575f5ffd5b5051919050565b6001600160a01b039390931683526020830191909152604082015260600190565b808202811582820484141761037157610371611583565b8181038181111561037157610371611583565b634e487b7160e01b5f52600160045260245ffd5b5f60408201848352604060208401528084518083526060850191506020860192505f5b818110156116c65783518352602093840193909201916001016116a8565b5090969550505050505056fefc5045226225bb2bdc6cc6f3d6457b8640a63a03d47a70eca2a9f6b3b6474d04ddf252ad1be2c89b69c2b068fc378daa952ba7f163c4a11628f55a4df523b3ef297d88d6449509e687c2769e1358fbeb521f447c0ec5786c512f8f9676b4d9b1a2646970667358221220dfa0879dadc4394bb21f33b602aefc2844e2c45a9061f64ca02dd25a09e3786564736f6c634300081c0033",
  "linkReferences": {
    "project/contracts/leanIMTPoseidon2.sol": {
      "leanIMTPoseidon2": [
        {
          "length": 20,
          "start": 3127
        },
        {
          "length": 20,
          "start": 4318
        },
        {
          "length": 20,
          "start": 4473
        },
        {
          "length": 20,
          "start": 4667
        },
        {
          "length": 20,
          "start": 4952
        },
        {
          "length": 20,
          "start": 5142
        },
        {
          "length": 20,
          "start": 5362
        }
      ]
    }
  },
  "deployedLinkReferences": {
    "project/contracts/leanIMTPoseidon2.sol": {
      "leanIMTPoseidon2": [
        {
          "length": 20,
          "start": 2230
        },
        {
          "length": 20,
          "start": 3421
        },
        {
          "length": 20,
          "start": 3576
        },
        {
          "length": 20,
          "start": 3770
        },
        {
          "length": 20,
          "start": 4055
        },
        {
          "length": 20,
          "start": 4245
        },
        {
          "length": 20,
          "start": 4465
        }
      ]
    }
  },
  "immutableReferences": {},
  "inputSourceName": "project/contracts/WormholeToken.sol",
  "buildInfoId": "solc-0_8_28-b91fc8b4f39de083100577d2630de3691368071c"
}