{
  "_format": "hh3-artifact-1",
  "contractName": "WormholeToken",
  "sourceName": "contracts/WormholeToken.sol",
  "abi": [
    {
      "inputs": [
        {
          "internalType": "address",
          "name": "_privateTransferVerifier2In",
          "type": "address"
        },
        {
          "internalType": "address",
          "name": "_privateTransferVerifier100In",
          "type": "address"
        },
        {
          "internalType": "bytes32",
          "name": "_powDifficulty",
          "type": "bytes32"
        },
        {
          "internalType": "uint256",
          "name": "_maxTotalReMintLimit",
          "type": "uint256"
        }
      ],
      "stateMutability": "nonpayable",
      "type": "constructor"
    },
    {
      "inputs": [
        {
          "internalType": "address",
          "name": "spender",
          "type": "address"
        },
        {
          "internalType": "uint256",
          "name": "allowance",
          "type": "uint256"
        },
        {
          "internalType": "uint256",
          "name": "needed",
          "type": "uint256"
        }
      ],
      "name": "ERC20InsufficientAllowance",
      "type": "error"
    },
    {
      "inputs": [
        {
          "internalType": "address",
          "name": "sender",
          "type": "address"
        },
        {
          "internalType": "uint256",
          "name": "balance",
          "type": "uint256"
        },
        {
          "internalType": "uint256",
          "name": "needed",
          "type": "uint256"
        }
      ],
      "name": "ERC20InsufficientBalance",
      "type": "error"
    },
    {
      "inputs": [
        {
          "internalType": "address",
          "name": "approver",
          "type": "address"
        }
      ],
      "name": "ERC20InvalidApprover",
      "type": "error"
    },
    {
      "inputs": [
        {
          "internalType": "address",
          "name": "receiver",
          "type": "address"
        }
      ],
      "name": "ERC20InvalidReceiver",
      "type": "error"
    },
    {
      "inputs": [
        {
          "internalType": "address",
          "name": "sender",
          "type": "address"
        }
      ],
      "name": "ERC20InvalidSender",
      "type": "error"
    },
    {
      "inputs": [
        {
          "internalType": "address",
          "name": "spender",
          "type": "address"
        }
      ],
      "name": "ERC20InvalidSpender",
      "type": "error"
    },
    {
      "inputs": [],
      "name": "InvalidShortString",
      "type": "error"
    },
    {
      "inputs": [
        {
          "internalType": "string",
          "name": "str",
          "type": "string"
        }
      ],
      "name": "StringTooLong",
      "type": "error"
    },
    {
      "inputs": [],
      "name": "VerificationFailed",
      "type": "error"
    },
    {
      "anonymous": false,
      "inputs": [
        {
          "indexed": true,
          "internalType": "address",
          "name": "owner",
          "type": "address"
        },
        {
          "indexed": true,
          "internalType": "address",
          "name": "spender",
          "type": "address"
        },
        {
          "indexed": false,
          "internalType": "uint256",
          "name": "value",
          "type": "uint256"
        }
      ],
      "name": "Approval",
      "type": "event"
    },
    {
      "anonymous": false,
      "inputs": [],
      "name": "EIP712DomainChanged",
      "type": "event"
    },
    {
      "anonymous": false,
      "inputs": [
        {
          "indexed": false,
          "internalType": "uint256",
          "name": "leaf",
          "type": "uint256"
        }
      ],
      "name": "NewLeaf",
      "type": "event"
    },
    {
      "anonymous": false,
      "inputs": [
        {
          "indexed": true,
          "internalType": "uint256",
          "name": "nullifier",
          "type": "uint256"
        },
        {
          "indexed": false,
          "internalType": "bytes",
          "name": "encryptedTotalSpends",
          "type": "bytes"
        }
      ],
      "name": "Nullified",
      "type": "event"
    },
    {
      "anonymous": false,
      "inputs": [
        {
          "indexed": true,
          "internalType": "address",
          "name": "from",
          "type": "address"
        },
        {
          "indexed": true,
          "internalType": "address",
          "name": "to",
          "type": "address"
        },
        {
          "indexed": false,
          "internalType": "uint256",
          "name": "value",
          "type": "uint256"
        }
      ],
      "name": "Transfer",
      "type": "event"
    },
    {
      "inputs": [],
      "name": "MAX_TOTAL_RE_MINT_LIMIT",
      "outputs": [
        {
          "internalType": "bytes32",
          "name": "",
          "type": "bytes32"
        }
      ],
      "stateMutability": "view",
      "type": "function"
    },
    {
      "inputs": [],
      "name": "POW_DIFFICULTY",
      "outputs": [
        {
          "internalType": "bytes32",
          "name": "",
          "type": "bytes32"
        }
      ],
      "stateMutability": "view",
      "type": "function"
    },
    {
      "inputs": [],
      "name": "TOTAL_BURNED_DOMAIN",
      "outputs": [
        {
          "internalType": "uint256",
          "name": "",
          "type": "uint256"
        }
      ],
      "stateMutability": "view",
      "type": "function"
    },
    {
      "inputs": [
        {
          "components": [
            {
              "internalType": "uint256",
              "name": "tokensPerEthPrice",
              "type": "uint256"
            },
            {
              "internalType": "uint256",
              "name": "maxFee",
              "type": "uint256"
            },
            {
              "internalType": "uint256",
              "name": "amountForRecipient",
              "type": "uint256"
            },
            {
              "internalType": "uint256",
              "name": "relayerBonus",
              "type": "uint256"
            },
            {
              "internalType": "uint256",
              "name": "estimatedGasCost",
              "type": "uint256"
            },
            {
              "internalType": "uint256",
              "name": "estimatedPriorityFee",
              "type": "uint256"
            },
            {
              "internalType": "address",
              "name": "refundAddress",
              "type": "address"
            },
            {
              "internalType": "address",
              "name": "relayerAddress",
              "type": "address"
            }
          ],
          "internalType": "struct FeeData",
          "name": "_feeData",
          "type": "tuple"
        },
        {
          "internalType": "uint256",
          "name": "_amountToReMint",
          "type": "uint256"
        }
      ],
      "name": "_calculateFee",
      "outputs": [
        {
          "internalType": "uint256",
          "name": "",
          "type": "uint256"
        },
        {
          "internalType": "uint256",
          "name": "",
          "type": "uint256"
        }
      ],
      "stateMutability": "view",
      "type": "function"
    },
    {
      "inputs": [
        {
          "internalType": "uint256",
          "name": "_root",
          "type": "uint256"
        },
        {
          "internalType": "uint256",
          "name": "_amount",
          "type": "uint256"
        },
        {
          "internalType": "bytes32",
          "name": "_signatureHash",
          "type": "bytes32"
        },
        {
          "internalType": "uint256[]",
          "name": "_accountNoteHashes",
          "type": "uint256[]"
        },
        {
          "internalType": "uint256[]",
          "name": "_accountNoteNullifiers",
          "type": "uint256[]"
        }
      ],
      "name": "_formatPublicInputs",
      "outputs": [
        {
          "internalType": "bytes32[]",
          "name": "",
          "type": "bytes32[]"
        }
      ],
      "stateMutability": "view",
      "type": "function"
    },
    {
      "inputs": [
        {
          "components": [
            {
              "internalType": "address",
              "name": "recipient",
              "type": "address"
            },
            {
              "internalType": "uint256",
              "name": "amountToReMint",
              "type": "uint256"
            },
            {
              "internalType": "bytes",
              "name": "callData",
              "type": "bytes"
            },
            {
              "internalType": "bool",
              "name": "callCanFail",
              "type": "bool"
            },
            {
              "internalType": "uint256",
              "name": "callValue",
              "type": "uint256"
            },
            {
              "internalType": "bytes[]",
              "name": "encryptedTotalSpends",
              "type": "bytes[]"
            }
          ],
          "internalType": "struct SignatureInputs",
          "name": "_signatureInputs",
          "type": "tuple"
        }
      ],
      "name": "_hashSignatureInputs",
      "outputs": [
        {
          "internalType": "bytes32",
          "name": "",
          "type": "bytes32"
        }
      ],
      "stateMutability": "view",
      "type": "function"
    },
    {
      "inputs": [
        {
          "components": [
            {
              "internalType": "address",
              "name": "recipient",
              "type": "address"
            },
            {
              "internalType": "uint256",
              "name": "amountToReMint",
              "type": "uint256"
            },
            {
              "internalType": "bytes",
              "name": "callData",
              "type": "bytes"
            },
            {
              "internalType": "bool",
              "name": "callCanFail",
              "type": "bool"
            },
            {
              "internalType": "uint256",
              "name": "callValue",
              "type": "uint256"
            },
            {
              "internalType": "bytes[]",
              "name": "encryptedTotalSpends",
              "type": "bytes[]"
            }
          ],
          "internalType": "struct SignatureInputs",
          "name": "_signatureInputs",
          "type": "tuple"
        },
        {
          "components": [
            {
              "internalType": "uint256",
              "name": "tokensPerEthPrice",
              "type": "uint256"
            },
            {
              "internalType": "uint256",
              "name": "maxFee",
              "type": "uint256"
            },
            {
              "internalType": "uint256",
              "name": "amountForRecipient",
              "type": "uint256"
            },
            {
              "internalType": "uint256",
              "name": "relayerBonus",
              "type": "uint256"
            },
            {
              "internalType": "uint256",
              "name": "estimatedGasCost",
              "type": "uint256"
            },
            {
              "internalType": "uint256",
              "name": "estimatedPriorityFee",
              "type": "uint256"
            },
            {
              "internalType": "address",
              "name": "refundAddress",
              "type": "address"
            },
            {
              "internalType": "address",
              "name": "relayerAddress",
              "type": "address"
            }
          ],
          "internalType": "struct FeeData",
          "name": "_feeData",
          "type": "tuple"
        }
      ],
      "name": "_hashSignatureInputsRelayer",
      "outputs": [
        {
          "internalType": "bytes32",
          "name": "",
          "type": "bytes32"
        }
      ],
      "stateMutability": "view",
      "type": "function"
    },
    {
      "inputs": [
        {
          "internalType": "uint256",
          "name": "_amount",
          "type": "uint256"
        },
        {
          "internalType": "uint256[]",
          "name": "_accountNoteHashes",
          "type": "uint256[]"
        },
        {
          "internalType": "uint256[]",
          "name": "_accountNoteNullifiers",
          "type": "uint256[]"
        },
        {
          "internalType": "uint256",
          "name": "_root",
          "type": "uint256"
        },
        {
          "internalType": "bytes",
          "name": "_snarkProof",
          "type": "bytes"
        },
        {
          "internalType": "bytes[]",
          "name": "_encryptedTotalSpends",
          "type": "bytes[]"
        },
        {
          "internalType": "bytes32",
          "name": "signatureHash",
          "type": "bytes32"
        }
      ],
      "name": "_verifyReMint",
      "outputs": [],
      "stateMutability": "nonpayable",
      "type": "function"
    },
    {
      "inputs": [
        {
          "internalType": "address",
          "name": "owner",
          "type": "address"
        },
        {
          "internalType": "address",
          "name": "spender",
          "type": "address"
        }
      ],
      "name": "allowance",
      "outputs": [
        {
          "internalType": "uint256",
          "name": "",
          "type": "uint256"
        }
      ],
      "stateMutability": "view",
      "type": "function"
    },
    {
      "inputs": [],
      "name": "amountFreeTokens",
      "outputs": [
        {
          "internalType": "uint256",
          "name": "",
          "type": "uint256"
        }
      ],
      "stateMutability": "view",
      "type": "function"
    },
    {
      "inputs": [
        {
          "internalType": "address",
          "name": "spender",
          "type": "address"
        },
        {
          "internalType": "uint256",
          "name": "value",
          "type": "uint256"
        }
      ],
      "name": "approve",
      "outputs": [
        {
          "internalType": "bool",
          "name": "",
          "type": "bool"
        }
      ],
      "stateMutability": "nonpayable",
      "type": "function"
    },
    {
      "inputs": [
        {
          "internalType": "address",
          "name": "account",
          "type": "address"
        }
      ],
      "name": "balanceOf",
      "outputs": [
        {
          "internalType": "uint256",
          "name": "",
          "type": "uint256"
        }
      ],
      "stateMutability": "view",
      "type": "function"
    },
    {
      "inputs": [],
      "name": "decimals",
      "outputs": [
        {
          "internalType": "uint8",
          "name": "",
          "type": "uint8"
        }
      ],
      "stateMutability": "view",
      "type": "function"
    },
    {
      "inputs": [],
      "name": "decimalsTokenPrice",
      "outputs": [
        {
          "internalType": "uint256",
          "name": "",
          "type": "uint256"
        }
      ],
      "stateMutability": "view",
      "type": "function"
    },
    {
      "inputs": [],
      "name": "eip712Domain",
      "outputs": [
        {
          "internalType": "bytes1",
          "name": "fields",
          "type": "bytes1"
        },
        {
          "internalType": "string",
          "name": "name",
          "type": "string"
        },
        {
          "internalType": "string",
          "name": "version",
          "type": "string"
        },
        {
          "internalType": "uint256",
          "name": "chainId",
          "type": "uint256"
        },
        {
          "internalType": "address",
          "name": "verifyingContract",
          "type": "address"
        },
        {
          "internalType": "bytes32",
          "name": "salt",
          "type": "bytes32"
        },
        {
          "internalType": "uint256[]",
          "name": "extensions",
          "type": "uint256[]"
        }
      ],
      "stateMutability": "view",
      "type": "function"
    },
    {
      "inputs": [
        {
          "internalType": "address",
          "name": "_to",
          "type": "address"
        }
      ],
      "name": "getFreeTokens",
      "outputs": [],
      "stateMutability": "nonpayable",
      "type": "function"
    },
    {
      "inputs": [
        {
          "internalType": "uint256[3]",
          "name": "input",
          "type": "uint256[3]"
        }
      ],
      "name": "hashPoseidon2T3",
      "outputs": [
        {
          "internalType": "uint256",
          "name": "",
          "type": "uint256"
        }
      ],
      "stateMutability": "view",
      "type": "function"
    },
    {
      "inputs": [
        {
          "internalType": "uint256[6]",
          "name": "input",
          "type": "uint256[6]"
        }
      ],
      "name": "hashPoseidon2T6",
      "outputs": [
        {
          "internalType": "uint256",
          "name": "",
          "type": "uint256"
        }
      ],
      "stateMutability": "view",
      "type": "function"
    },
    {
      "inputs": [],
      "name": "name",
      "outputs": [
        {
          "internalType": "string",
          "name": "",
          "type": "string"
        }
      ],
      "stateMutability": "view",
      "type": "function"
    },
    {
      "inputs": [
        {
          "internalType": "uint256",
          "name": "",
          "type": "uint256"
        }
      ],
      "name": "nullifiers",
      "outputs": [
        {
          "internalType": "uint256",
          "name": "",
          "type": "uint256"
        }
      ],
      "stateMutability": "view",
      "type": "function"
    },
    {
      "inputs": [
        {
          "internalType": "uint256[]",
          "name": "_accountNoteHashes",
          "type": "uint256[]"
        },
        {
          "internalType": "uint256[]",
          "name": "_accountNoteNullifiers",
          "type": "uint256[]"
        },
        {
          "internalType": "uint256",
          "name": "_root",
          "type": "uint256"
        },
        {
          "internalType": "bytes",
          "name": "_snarkProof",
          "type": "bytes"
        },
        {
          "components": [
            {
              "internalType": "address",
              "name": "recipient",
              "type": "address"
            },
            {
              "internalType": "uint256",
              "name": "amountToReMint",
              "type": "uint256"
            },
            {
              "internalType": "bytes",
              "name": "callData",
              "type": "bytes"
            },
            {
              "internalType": "bool",
              "name": "callCanFail",
              "type": "bool"
            },
            {
              "internalType": "uint256",
              "name": "callValue",
              "type": "uint256"
            },
            {
              "internalType": "bytes[]",
              "name": "encryptedTotalSpends",
              "type": "bytes[]"
            }
          ],
          "internalType": "struct SignatureInputs",
          "name": "_signatureInputs",
          "type": "tuple"
        }
      ],
      "name": "privateReMint",
      "outputs": [],
      "stateMutability": "nonpayable",
      "type": "function"
    },
    {
      "inputs": [
        {
          "internalType": "uint256[]",
          "name": "_accountNoteHashes",
          "type": "uint256[]"
        },
        {
          "internalType": "uint256[]",
          "name": "_accountNoteNullifiers",
          "type": "uint256[]"
        },
        {
          "internalType": "uint256",
          "name": "_root",
          "type": "uint256"
        },
        {
          "internalType": "bytes",
          "name": "_snarkProof",
          "type": "bytes"
        },
        {
          "components": [
            {
              "internalType": "address",
              "name": "recipient",
              "type": "address"
            },
            {
              "internalType": "uint256",
              "name": "amountToReMint",
              "type": "uint256"
            },
            {
              "internalType": "bytes",
              "name": "callData",
              "type": "bytes"
            },
            {
              "internalType": "bool",
              "name": "callCanFail",
              "type": "bool"
            },
            {
              "internalType": "uint256",
              "name": "callValue",
              "type": "uint256"
            },
            {
              "internalType": "bytes[]",
              "name": "encryptedTotalSpends",
              "type": "bytes[]"
            }
          ],
          "internalType": "struct SignatureInputs",
          "name": "_signatureInputs",
          "type": "tuple"
        },
        {
          "components": [
            {
              "internalType": "uint256",
              "name": "tokensPerEthPrice",
              "type": "uint256"
            },
            {
              "internalType": "uint256",
              "name": "maxFee",
              "type": "uint256"
            },
            {
              "internalType": "uint256",
              "name": "amountForRecipient",
              "type": "uint256"
            },
            {
              "internalType": "uint256",
              "name": "relayerBonus",
              "type": "uint256"
            },
            {
              "internalType": "uint256",
              "name": "estimatedGasCost",
              "type": "uint256"
            },
            {
              "internalType": "uint256",
              "name": "estimatedPriorityFee",
              "type": "uint256"
            },
            {
              "internalType": "address",
              "name": "refundAddress",
              "type": "address"
            },
            {
              "internalType": "address",
              "name": "relayerAddress",
              "type": "address"
            }
          ],
          "internalType": "struct FeeData",
          "name": "_feeData",
          "type": "tuple"
        }
      ],
      "name": "privateReMintRelayer",
      "outputs": [],
      "stateMutability": "nonpayable",
      "type": "function"
    },
    {
      "inputs": [],
      "name": "privateTransferVerifier100In",
      "outputs": [
        {
          "internalType": "address",
          "name": "",
          "type": "address"
        }
      ],
      "stateMutability": "view",
      "type": "function"
    },
    {
      "inputs": [],
      "name": "privateTransferVerifier2In",
      "outputs": [
        {
          "internalType": "address",
          "name": "",
          "type": "address"
        }
      ],
      "stateMutability": "view",
      "type": "function"
    },
    {
      "inputs": [],
      "name": "root",
      "outputs": [
        {
          "internalType": "uint256",
          "name": "",
          "type": "uint256"
        }
      ],
      "stateMutability": "view",
      "type": "function"
    },
    {
      "inputs": [
        {
          "internalType": "uint256",
          "name": "",
          "type": "uint256"
        }
      ],
      "name": "roots",
      "outputs": [
        {
          "internalType": "bool",
          "name": "",
          "type": "bool"
        }
      ],
      "stateMutability": "view",
      "type": "function"
    },
    {
      "inputs": [],
      "name": "symbol",
      "outputs": [
        {
          "internalType": "string",
          "name": "",
          "type": "string"
        }
      ],
      "stateMutability": "view",
      "type": "function"
    },
    {
      "inputs": [],
      "name": "totalSupply",
      "outputs": [
        {
          "internalType": "uint256",
          "name": "",
          "type": "uint256"
        }
      ],
      "stateMutability": "view",
      "type": "function"
    },
    {
      "inputs": [
        {
          "internalType": "address",
          "name": "to",
          "type": "address"
        },
        {
          "internalType": "uint256",
          "name": "value",
          "type": "uint256"
        }
      ],
      "name": "transfer",
      "outputs": [
        {
          "internalType": "bool",
          "name": "",
          "type": "bool"
        }
      ],
      "stateMutability": "nonpayable",
      "type": "function"
    },
    {
      "inputs": [
        {
          "internalType": "address",
          "name": "from",
          "type": "address"
        },
        {
          "internalType": "address",
          "name": "to",
          "type": "address"
        },
        {
          "internalType": "uint256",
          "name": "value",
          "type": "uint256"
        }
      ],
      "name": "transferFrom",
      "outputs": [
        {
          "internalType": "bool",
          "name": "",
          "type": "bool"
        }
      ],
      "stateMutability": "nonpayable",
      "type": "function"
    },
    {
      "inputs": [],
      "name": "tree",
      "outputs": [
        {
          "internalType": "uint256",
          "name": "size",
          "type": "uint256"
        },
        {
          "internalType": "uint256",
          "name": "depth",
          "type": "uint256"
        }
      ],
      "stateMutability": "view",
      "type": "function"
    },
    {
      "inputs": [],
      "name": "treeSize",
      "outputs": [
        {
          "internalType": "uint256",
          "name": "",
          "type": "uint256"
        }
      ],
      "stateMutability": "view",
      "type": "function"
    }
  ],
  "bytecode": "0x6101606040526100116012600a610335565b61001e90620f424061034a565b600a556008600b55348015610031575f5ffd5b5060405161384c38038061384c8339810160408190526100509161037c565b6040805180820182526011808252703d35bbb7b936b437b632b996ba37b5b2b760791b60208084018290528451808601865260018152603160f81b8183015285518087018752938452838201929092528451808601909552600585526415d493521360da1b90850152919260036100c78382610454565b5060046100d48282610454565b506100e4915083905060056101c6565b610120526100f38160066101c6565b61014052815160208084019190912060e052815190820120610100524660a05261017f60e05161010051604080517f8b73c3c69bb8fe3d512ecc4cf759cc79239f7b179b0ffacaa9a75d522b39400f60208201529081019290925260608201524660808201523060a08201525f9060c00160405160208183030381529060405280519060200120905090565b60805250503060c052600e80546001600160a01b039586166001600160a01b031991821617909155600f805494909516931692909217909255600c91909155600d55610566565b5f6020835110156101e1576101da836101f8565b90506101f2565b816101ec8482610454565b5060ff90505b92915050565b5f5f829050601f8151111561022b578260405163305a27a960e01b8152600401610222919061050e565b60405180910390fd5b805161023682610543565b179392505050565b634e487b7160e01b5f52601160045260245ffd5b6001815b600184111561028d578085048111156102715761027161023e565b600184161561027f57908102905b60019390931c928002610256565b935093915050565b5f826102a3575060016101f2565b816102af57505f6101f2565b81600181146102c557600281146102cf576102eb565b60019150506101f2565b60ff8411156102e0576102e061023e565b50506001821b6101f2565b5060208310610133831016604e8410600b841016171561030e575081810a6101f2565b61031a5f198484610252565b805f190482111561032d5761032d61023e565b029392505050565b5f61034360ff841683610295565b9392505050565b80820281158282048414176101f2576101f261023e565b80516001600160a01b0381168114610377575f5ffd5b919050565b5f5f5f5f6080858703121561038f575f5ffd5b61039885610361565b93506103a660208601610361565b6040860151606090960151949790965092505050565b634e487b7160e01b5f52604160045260245ffd5b600181811c908216806103e457607f821691505b60208210810361040257634e487b7160e01b5f52602260045260245ffd5b50919050565b601f82111561044f57805f5260205f20601f840160051c8101602085101561042d5750805b601f840160051c820191505b8181101561044c575f8155600101610439565b50505b505050565b81516001600160401b0381111561046d5761046d6103bc565b6104818161047b84546103d0565b84610408565b6020601f8211600181146104b3575f831561049c5750848201515b5f19600385901b1c1916600184901b17845561044c565b5f84815260208120601f198516915b828110156104e257878501518255602094850194600190920191016104c2565b50848210156104ff57868401515f19600387901b60f8161c191681555b50505050600190811b01905550565b602081525f82518060208401528060208501604085015e5f604082850101526040601f19601f83011684010191505092915050565b80516020808301519190811015610402575f1960209190910360031b1b16919050565b60805160a05160c05160e0516101005161012051610140516132956105b75f395f61192101525f6118f401525f61211801525f6120f001525f61204b01525f61207501525f61209f01526132955ff3fe608060405234801561000f575f5ffd5b506004361061017e575f3560e01c80630290faea1461018257806306fdde031461019e578063095ea7b3146101b35780631012c212146101d657806310261805146101e957806311bec319146101fe57806318160ddd1461021157806323b872dd1461021957806330d8c55d1461022c578063313ce567146102355780633a53af40146102445780633d59e5e2146102575780634a2ef36a1461026a5780634b164c0f1461027d578063666785751461029d5780636b2ee80b146102a657806370a08231146102b957806377d066f7146102e15780637c32ba9d146102f457806384b0196e1461031c5780638c46f626146103375780638d1ddfb114610357578063957b21db1461035f57806395d89b41146103725780639fb3714c1461037a578063a38535ff14610383578063a9059cbb14610396578063c2b40ae4146103a9578063d21e82ab146103cb578063dd62ed3e146103ea578063ebf0c717146103fd578063fd54b22814610405575b5f5ffd5b61018b600c5481565b6040519081526020015b60405180910390f35b6101a6610413565b6040516101959190612480565b6101c66101c13660046124ad565b6104a3565b6040519015158152602001610195565b61018b6b544f54414c5f4255524e454481565b6101fc6101f7366004612632565b6104bc565b005b6101fc61020c366004612707565b6106ab565b60025461018b565b6101c66102273660046127c9565b6106fe565b61018b600b5481565b60405160128152602001610195565b61018b610252366004612803565b610721565b6101fc610265366004612869565b6107be565b61018b610278366004612882565b6107cd565b61029061028b3660046128c3565b6107fe565b604051610195919061297b565b61018b600a5481565b61018b6102b436600461298d565b610c0c565b61018b6102c7366004612869565b6001600160a01b03165f9081526020819052604090205490565b61018b6102ef3660046129be565b610cfc565b610307610302366004612a0a565b610e03565b60408051928352602083019190915201610195565b610324610f92565b6040516101959796959493929190612a35565b600e5461034a906001600160a01b031681565b6040516101959190612acb565b60105461018b565b600f5461034a906001600160a01b031681565b6101a6610fd4565b61018b600d5481565b6101fc610391366004612b1f565b610fe3565b6101c66103a43660046124ad565b61121f565b6101c66103b7366004612bf8565b60086020525f908152604090205460ff1681565b61018b6103d9366004612bf8565b60076020525f908152604090205481565b61018b6103f8366004612c0f565b61122c565b61018b611256565b601054601154610307919082565b60606003805461042290612c37565b80601f016020809104026020016040519081016040528092919081815260200182805461044e90612c37565b80156104995780601f1061047057610100808354040283529160200191610499565b820191905f5260205f20905b81548152906001019060200180831161047c57829003601f168201915b5050505050905090565b5f336104b08185856112cf565b60019150505b92915050565b5f5f6104cc838560200135610e03565b915091505f6104db8585610cfc565b90506104fd60208601358b8b8b8b8b6104f760a08d018d612c69565b89610fe3565b5f6001610511610100870160e08801612869565b6001600160a01b03160361052657503361053a565b610537610100860160e08701612869565b90505b604080516003808252608082019092525f91602082016060803683370190505090506105696020880188612869565b815f8151811061057b5761057b612cae565b6001600160a01b03909216602092830291909101909101526105a360e0870160c08801612869565b816001815181106105b6576105b6612cae565b60200260200101906001600160a01b031690816001600160a01b03168152505081816002815181106105ea576105ea612cae565b6001600160a01b0392909216602092830291909101820152604080516003808252608082019092525f9290919082016060803683370190505090508660400135815f8151811061063c5761063c612cae565b602002602001018181525050848160018151811061065c5761065c612cae565b602002602001018181525050858160028151811061067c5761067c612cae565b60200260200101818152505061069382828f6112e1565b61069c88611471565b50505050505050505050505050565b5f6106b582610c0c565b90506106d1602083013588888888886104f760a08a018a612c69565b6106ec6106e16020840184612869565b836020013589611589565b6106f582611471565b50505050505050565b5f3361070b858285611659565b6107168585856116a4565b506001949350505050565b5f5f73382abef9789c1b5fee54c72bd9aaf7983726841c6001600160a01b0316836040516020016107529190612cc2565b60408051601f198184030181529082905261076c91612cf2565b5f60405180830381855afa9150503d805f81146107a4576040519150601f19603f3d011682016040523d82523d5f602084013e6107a9565b606091505b50915050806107b790612d08565b9392505050565b6107ca81600a54611701565b50565b5f5f73382abef9789c1b5fee54c72bd9aaf7983726841c6001600160a01b0316836040516020016107529190612d2b565b606082516002036109db5760408051602880825261052082019092525f916020820161050080368337019050509050865f1b815f8151811061084257610842612cae565b602002602001018181525050855f1b8160018151811061086457610864612cae565b602002602001018181525050600c548160028151811061088657610886612cae565b602002602001018181525050600d54816003815181106108a8576108a8612cae565b602090810291909101015260045f5b6020811015610901578681602081106108d2576108d2612cae565b1a836108de8484612d66565b815181106108ee576108ee612cae565b60209081029190910101526001016108b7565b505f61090e826020612d66565b90505f5b86518110156109cf5786818151811061092d5761092d612cae565b60200260200101515f1b84838360026109469190612d79565b6109509190612d66565b8151811061096057610960612cae565b60200260200101818152505085818151811061097e5761097e612cae565b60200260200101515f1b84838360026109979190612d79565b6109a19190612d66565b6109ac906001612d66565b815181106109bc576109bc612cae565b6020908102919091010152600101610912565b50829350505050610c03565b8251606403610baa576040805160ec808252611da082019092525f9160208201611d8080368337019050509050865f1b815f81518110610a1d57610a1d612cae565b602002602001018181525050855f1b81600181518110610a3f57610a3f612cae565b602002602001018181525050600c5481600281518110610a6157610a61612cae565b602002602001018181525050600d5481600381518110610a8357610a83612cae565b602090810291909101015260045f5b6020811015610adc57868160208110610aad57610aad612cae565b1a83610ab98484612d66565b81518110610ac957610ac9612cae565b6020908102919091010152600101610a92565b505f610ae9826020612d66565b90505f5b86518110156109cf57868181518110610b0857610b08612cae565b60200260200101515f1b8483836002610b219190612d79565b610b2b9190612d66565b81518110610b3b57610b3b612cae565b602002602001018181525050858181518110610b5957610b59612cae565b60200260200101515f1b8483836002610b729190612d79565b610b7c9190612d66565b610b87906001612d66565b81518110610b9757610b97612cae565b6020908102919091010152600101610aed565b60405162461bcd60e51b815260206004820152602360248201527f616d6f756e74206f66206e6f746520686173686573206e6f7420737570706f726044820152621d195960ea1b60648201526084015b60405180910390fd5b95945050505050565b5f807f3d3a509c00692f90c0933ff19f1afeff256c343909a9f31e9928531354bde17a610c3c6020850185612869565b6020850135610c4e6040870187612d90565b604051610c5c929190612dd2565b604051908190039020610c756080880160608901612dee565b6080880135610c98610c8a60a08b018b612c69565b610c9391612e09565b611735565b6040805160208101989098526001600160a01b039096169587019590955260608601939093526080850191909152151560a084015260c083015260e0820152610100016040516020818303038152906040528051906020012090506107b7816117fd565b5f807ff2fc19cedbbd5eaede9a71932423441438fbf780fb2abd90d2ed637ea6e82e84610d2c6020860186612869565b6020860135610d3e6040880188612d90565b604051610d4c929190612dd2565b604051908190039020610d656080890160608a01612dee565b6080890135610d7a610c8a60a08c018c612c69565b610d91610d8c368c90038c018c612ec9565b611829565b6040805160208101999099526001600160a01b039097169688019690965260608701949094526080860192909252151560a085015260c084015260e083015261010082015261012001604051602081830303815290604052805190602001209050610dfb816117fd565b949350505050565b5f8080610e1460a086013548612d66565b610e22906080870135612d79565b90505f8560600135600b54600a610e399190613026565b610e44883585612d79565b610e4e9190613031565b610e589190612d66565b905085602001358110610ea75760405162461bcd60e51b81526020600482015260176024820152760e4cad8c2f2cae440cccaca40d2e640e8dede40d0d2ced604b1b6044820152606401610bfa565b808511610f055760405162461bcd60e51b815260206004820152602660248201527f666565206973206d6f7265207468656e20616d6f756e74206265696e67207265604482015265135a5b9d195960d21b6064820152608401610bfa565b6040860135610f148287613050565b1015610f735760405162461bcd60e51b815260206004820152602860248201527f6e6f7420656e6f756768206c656674206166746572206665657320666f7220726044820152671958da5c1a595b9d60c21b6064820152608401610bfa565b5f610f82826020890135613050565b91945090925050505b9250929050565b5f6060805f5f5f6060610fa36118ed565b610fab61191a565b604080515f80825260208201909252600f60f81b9b939a50919850469750309650945092509050565b60606004805461042290612c37565b5f8681526008602052604090205460ff1661102f5760405162461bcd60e51b815260206004820152600c60248201526b1a5b9d985b1a59081c9bdbdd60a21b6044820152606401610bfa565b5f5b8751811015611126575f88828151811061104d5761104d612cae565b602002602001015190505f60075f8381526020019081526020015f2054146110b15760405162461bcd60e51b81526020600482015260176024820152761b9d5b1b1a599a595c88185b1c9958591e48195e1a5cdd604a1b6044820152606401610bfa565b5f818152600760205260409020439055807fdea71a061c0e15a14191f2e29163dac18565965624c0422ba9025b541d0abc998686858181106110f5576110f5612cae565b90506020028101906111079190612d90565b60405161111592919061308b565b60405180910390a250600101611031565b505f611135878b848c8c6107fe565b905087516002036111d657600e54604051633a94343960e21b81526001600160a01b039091169063ea50d0e4906111749089908990869060040161309e565b6020604051808303815f875af1158015611190573d5f5f3e3d5ffd5b505050506040513d601f19601f820116820180604052508101906111b491906130cd565b6111d15760405163439cc0cd60e01b815260040160405180910390fd5b611213565b8751606403610baa57600f54604051633a94343960e21b81526001600160a01b039091169063ea50d0e4906111749089908990869060040161309e565b50505050505050505050565b5f336104b08185856116a4565b6001600160a01b039182165f90815260016020908152604080832093909416825291909152205490565b604051637a3e5e1d60e11b8152601060048201525f9073__$81047e2420497af1f397e161c4153f8e32$__9063f47cbc3a90602401602060405180830381865af41580156112a6573d5f5f3e3d5ffd5b505050506040513d601f19601f820116820180604052508101906112ca91906130e8565b905090565b6112dc8383836001611947565b505050565b5f82516001600160401b038111156112fb576112fb6124d5565b604051908082528060200260200182016040528015611324578160200160208202803683370190505b5090505f5b845181101561145f575f85828151811061134557611345612cae565b602002602001015190505f85838151811061136257611362612cae565b602002602001015190505f6001600160a01b0316826001600160a01b03160361139c5760028054829003905561139785611a19565b611428565b6001600160a01b0382165f908152602081905260408120546113bf908390612d66565b6001600160a01b0384165f90815260208190526040902081905590505f5160206132005f395f51905f5281106114075760405162461bcd60e51b8152600401610bfa906130ff565b8085858151811061141a5761141a612cae565b602002602001018181525050505b6040518181526001600160a01b038316905f905f5160206132205f395f51905f529060200160405180910390a35050600101611329565b5061146b848284611b82565b50505050565b61147e6040820182612d90565b151590508061149057505f8160800135115b156107ca575f6114a36020830183612869565b6001600160a01b031660808301356114be6040850185612d90565b6040516114cc929190612dd2565b5f6040518083038185875af1925050503d805f8114611506576040519150601f19603f3d011682016040523d82523d5f602084013e61150b565b606091505b5090915061152190506080830160608401612dee565b806115295750805b6115855760405162461bcd60e51b815260206004820152602760248201527f63616c6c206661696c656420616e6420776173206e6f7420616c6c6f776564206044820152661d1bc819985a5b60ca1b6064820152608401610bfa565b5050565b6001600160a01b0383166115ae576002805483900390556115a981611a19565b611626565b6001600160a01b0383165f908152602081905260408120546115d1908490612d66565b6001600160a01b0385165f90815260208190526040902081905590505f5160206132005f395f51905f5281106116195760405162461bcd60e51b8152600401610bfa906130ff565b611624848284611d70565b505b6040518281526001600160a01b038416905f905f5160206132205f395f51905f52906020015b60405180910390a3505050565b5f611664848461122c565b90505f1981101561146b578181101561169657828183604051637dc7a0d960e11b8152600401610bfa93929190613144565b61146b84848484035f611947565b6001600160a01b0383166116cd575f604051634b637e8f60e11b8152600401610bfa9190612acb565b6001600160a01b0382166116f6575f60405163ec442f0560e01b8152600401610bfa9190612acb565b6112dc838383611ef3565b6001600160a01b03821661172a575f60405163ec442f0560e01b8152600401610bfa9190612acb565b6115855f8383611ef3565b5f5f82516001600160401b03811115611750576117506124d5565b604051908082528060200260200182016040528015611779578160200160208202803683370190505b5090505f5b83518110156117cd5783818151811061179957611799612cae565b6020026020010151805190602001208282815181106117ba576117ba612cae565b602090810291909101015260010161177e565b50806040516020016117df9190613165565b60405160208183030381529060405280519060200120915050919050565b5f6104b661180961203f565b8360405161190160f01b8152600281019290925260228201526042902090565b5f7f23ebbcc1e130851ed075a3c8252e154cf333d2ba187b279850791bf66764188f825f015183602001518460400151856060015186608001518760a001518860c001518960e001516040516020016118d099989796959493929190988952602089019790975260408801959095526060870193909352608086019190915260a085015260c08401526001600160a01b0390811660e0840152166101008201526101200190565b604051602081830303815290604052805190602001209050919050565b60606112ca7f00000000000000000000000000000000000000000000000000000000000000006005612168565b60606112ca7f00000000000000000000000000000000000000000000000000000000000000006006612168565b6001600160a01b038416611970575f60405163e602df0560e01b8152600401610bfa9190612acb565b6001600160a01b038316611999575f604051634a1406b160e11b8152600401610bfa9190612acb565b6001600160a01b038085165f908152600160209081526040808320938716835292905220829055801561146b57826001600160a01b0316846001600160a01b03167f8c5be1e5ebec7d5bd14f71427d1e84f3dd0314c0f7b2291e5b200ac8c7c3b92584604051611a0b91815260200190565b60405180910390a350505050565b604051630649a08560e01b815273__$81047e2420497af1f397e161c4153f8e32$__90630649a08590611a5390601090859060040161319a565b602060405180830381865af4158015611a6e573d5f5f3e3d5ffd5b505050506040513d601f19601f82011682018060405250810190611a9291906130e8565b505f5b8151811015611ae5575f5160206132405f395f51905f52828281518110611abe57611abe612cae565b6020026020010151604051611ad591815260200190565b60405180910390a1600101611a95565b50604051637a3e5e1d60e11b8152601060048201526001906008905f9073__$81047e2420497af1f397e161c4153f8e32$__9063f47cbc3a906024015b602060405180830381865af4158015611b3d573d5f5f3e3d5ffd5b505050506040513d601f19601f82011682018060405250810190611b6191906130e8565b815260208101919091526040015f20805460ff191691151591909117905550565b5f81518451611b919190612d66565b6001600160401b03811115611ba857611ba86124d5565b604051908082528060200260200182016040528015611bd1578160200160208202803683370190505b5090505f805b8551811015611d0557858181518110611bf257611bf2612cae565b60200260200101516001600160a01b0316326001600160a01b031614611cfd575f611c4f878381518110611c2857611c28612cae565b6020026020010151878481518110611c4257611c42612cae565b6020026020010151612211565b60405163bc167a3160e01b8152601060048201526024810182905290915073__$81047e2420497af1f397e161c4153f8e32$__9063bc167a3190604401602060405180830381865af4158015611ca7573d5f5f3e3d5ffd5b505050506040513d601f19601f82011682018060405250810190611ccb91906130cd565b15611cfb57808484611cdc816131e7565b955081518110611cee57611cee612cae565b6020026020010181815250505b505b600101611bd7565b505f5b8351811015611d5c57838181518110611d2357611d23612cae565b6020026020010151838380611d37906131e7565b945081518110611d4957611d49612cae565b6020908102919091010152600101611d08565b50808252611d6982611a19565b5050505050565b6001600160a01b0383163203611d89576112dc81611a19565b5f611d948484612211565b60405163bc167a3160e01b8152601060048201526024810182905290915073__$81047e2420497af1f397e161c4153f8e32$__9063bc167a3190604401602060405180830381865af4158015611dec573d5f5f3e3d5ffd5b505050506040513d601f19601f82011682018060405250810190611e1091906130cd565b15611e2357611e1e82611a19565b61146b565b5f82516001611e329190612d66565b6001600160401b03811115611e4957611e496124d5565b604051908082528060200260200182016040528015611e72578160200160208202803683370190505b50905081815f81518110611e8857611e88612cae565b60209081029190910101525f5b8351811015611ee957838181518110611eb057611eb0612cae565b602002602001015182826001611ec69190612d66565b81518110611ed657611ed6612cae565b6020908102919091010152600101611e95565b50611d6981611a19565b6001600160a01b038316611f1d578060025f828254611f129190612d66565b90915550611f7a9050565b6001600160a01b0383165f9081526020819052604090205481811015611f5c5783818360405163391434e360e21b8152600401610bfa93929190613144565b6001600160a01b0384165f9081526020819052604090209082900390555b6001600160a01b038216611f965760028054829003905561200d565b6001600160a01b0382165f90815260208190526040812054611fb9908390612d66565b90505f5160206132005f395f51905f528110611fe75760405162461bcd60e51b8152600401610bfa906130ff565b6001600160a01b0383165f90815260208190526040902081905561200b8382612248565b505b816001600160a01b0316836001600160a01b03165f5160206132205f395f51905f528360405161164c91815260200190565b5f306001600160a01b037f00000000000000000000000000000000000000000000000000000000000000001614801561209757507f000000000000000000000000000000000000000000000000000000000000000046145b156120c157507f000000000000000000000000000000000000000000000000000000000000000090565b6112ca604080517f8b73c3c69bb8fe3d512ecc4cf759cc79239f7b179b0ffacaa9a75d522b39400f60208201527f0000000000000000000000000000000000000000000000000000000000000000918101919091527f000000000000000000000000000000000000000000000000000000000000000060608201524660808201523060a08201525f9060c00160405160208183030381529060405280519060200120905090565b606060ff83146121825761217b836122f6565b90506104b6565b81805461218e90612c37565b80601f01602080910402602001604051908101604052809291908181526020018280546121ba90612c37565b80156122055780601f106121dc57610100808354040283529160200191612205565b820191905f5260205f20905b8154815290600101906020018083116121e857829003601f168201915b505050505090506104b6565b5f61221a612434565b6001600160a01b0384168152602081018390526b544f54414c5f4255524e45446040820152610dfb816107cd565b6001600160a01b038216320361225c575050565b5f6122678383612211565b60405163bc167a3160e01b8152601060048201526024810182905290915073__$81047e2420497af1f397e161c4153f8e32$__9063bc167a3190604401602060405180830381865af41580156122bf573d5f5f3e3d5ffd5b505050506040513d601f19601f820116820180604052508101906122e391906130cd565b156122ed57505050565b6112dc81612333565b60605f6123028361240d565b6040805160208082528183019092529192505f91906020820181803683375050509182525060208101929092525090565b604051632f85497160e01b8152601060048201526024810182905273__$81047e2420497af1f397e161c4153f8e32$__90632f85497190604401602060405180830381865af4158015612388573d5f5f3e3d5ffd5b505050506040513d601f19601f820116820180604052508101906123ac91906130e8565b506040518181525f5160206132405f395f51905f529060200160405180910390a1604051637a3e5e1d60e11b8152601060048201526001906008905f9073__$81047e2420497af1f397e161c4153f8e32$__9063f47cbc3a90602401611b22565b5f60ff8216601f8111156104b657604051632cd44ac360e21b815260040160405180910390fd5b60405180606001604052806003906020820280368337509192915050565b5f81518084528060208401602086015e5f602082860101526020601f19601f83011685010191505092915050565b602081525f6107b76020830184612452565b80356001600160a01b03811681146124a8575f5ffd5b919050565b5f5f604083850312156124be575f5ffd5b6124c783612492565b946020939093013593505050565b634e487b7160e01b5f52604160045260245ffd5b60405161010081016001600160401b038111828210171561250c5761250c6124d5565b60405290565b604051601f8201601f191681016001600160401b038111828210171561253a5761253a6124d5565b604052919050565b5f6001600160401b0382111561255a5761255a6124d5565b5060051b60200190565b5f82601f830112612573575f5ffd5b813561258661258182612542565b612512565b8082825260208201915060208360051b8601019250858311156125a7575f5ffd5b602085015b838110156125c45780358352602092830192016125ac565b5095945050505050565b5f5f83601f8401126125de575f5ffd5b5081356001600160401b038111156125f4575f5ffd5b602083019150836020828501011115610f8b575f5ffd5b5f60c0828403121561261b575f5ffd5b50919050565b5f610100828403121561261b575f5ffd5b5f5f5f5f5f5f5f6101a0888a031215612649575f5ffd5b87356001600160401b0381111561265e575f5ffd5b61266a8a828b01612564565b97505060208801356001600160401b03811115612685575f5ffd5b6126918a828b01612564565b9650506040880135945060608801356001600160401b038111156126b3575f5ffd5b6126bf8a828b016125ce565b90955093505060808801356001600160401b038111156126dd575f5ffd5b6126e98a828b0161260b565b9250506126f98960a08a01612621565b905092959891949750929550565b5f5f5f5f5f5f60a0878903121561271c575f5ffd5b86356001600160401b03811115612731575f5ffd5b61273d89828a01612564565b96505060208701356001600160401b03811115612758575f5ffd5b61276489828a01612564565b9550506040870135935060608701356001600160401b03811115612786575f5ffd5b61279289828a016125ce565b90945092505060808701356001600160401b038111156127b0575f5ffd5b6127bc89828a0161260b565b9150509295509295509295565b5f5f5f606084860312156127db575f5ffd5b6127e484612492565b92506127f260208501612492565b929592945050506040919091013590565b5f60c08284031215612813575f5ffd5b5f83601f840112612822575f5ffd5b505f8061282f60c0612512565b905080915060c0840185811115612844575f5ffd5b845b8181101561285e578035845260209384019301612846565b509095945050505050565b5f60208284031215612879575f5ffd5b6107b782612492565b5f60608284031215612892575f5ffd5b5f83601f8401126128a1575f5ffd5b505f806128ae6060612512565b90508091506060840185811115612844575f5ffd5b5f5f5f5f5f60a086880312156128d7575f5ffd5b85359450602086013593506040860135925060608601356001600160401b03811115612901575f5ffd5b61290d88828901612564565b92505060808601356001600160401b03811115612928575f5ffd5b61293488828901612564565b9150509295509295909350565b5f8151808452602084019350602083015f5b82811015612971578151865260209586019590910190600101612953565b5093949350505050565b602081525f6107b76020830184612941565b5f6020828403121561299d575f5ffd5b81356001600160401b038111156129b2575f5ffd5b610dfb8482850161260b565b5f5f61012083850312156129d0575f5ffd5b82356001600160401b038111156129e5575f5ffd5b6129f18582860161260b565b925050612a018460208501612621565b90509250929050565b5f5f6101208385031215612a1c575f5ffd5b612a268484612621565b94610100939093013593505050565b60ff60f81b8816815260e060208201525f612a5360e0830189612452565b8281036040840152612a658189612452565b606084018890526001600160a01b038716608085015260a0840186905283810360c0850152845180825260208087019350909101905f5b81811015612aba578351835260209384019390920191600101612a9c565b50909b9a5050505050505050505050565b6001600160a01b0391909116815260200190565b5f5f83601f840112612aef575f5ffd5b5081356001600160401b03811115612b05575f5ffd5b6020830191508360208260051b8501011115610f8b575f5ffd5b5f5f5f5f5f5f5f5f5f60e08a8c031215612b37575f5ffd5b8935985060208a01356001600160401b03811115612b53575f5ffd5b612b5f8c828d01612564565b98505060408a01356001600160401b03811115612b7a575f5ffd5b612b868c828d01612564565b97505060608a0135955060808a01356001600160401b03811115612ba8575f5ffd5b612bb48c828d016125ce565b90965094505060a08a01356001600160401b03811115612bd2575f5ffd5b612bde8c828d01612adf565b9a9d999c50979a9699959894979660c00135949350505050565b5f60208284031215612c08575f5ffd5b5035919050565b5f5f60408385031215612c20575f5ffd5b612c2983612492565b9150612a0160208401612492565b600181811c90821680612c4b57607f821691505b60208210810361261b57634e487b7160e01b5f52602260045260245ffd5b5f5f8335601e19843603018112612c7e575f5ffd5b8301803591506001600160401b03821115612c97575f5ffd5b6020019150600581901b3603821315610f8b575f5ffd5b634e487b7160e01b5f52603260045260245ffd5b60c0810181835f5b6006811015612ce9578151835260209283019290910190600101612cca565b50505092915050565b5f82518060208501845e5f920191825250919050565b8051602080830151919081101561261b575f1960209190910360031b1b16919050565b6060810181835f5b6003811015612ce9578151835260209283019290910190600101612d33565b634e487b7160e01b5f52601160045260245ffd5b808201808211156104b6576104b6612d52565b80820281158282048414176104b6576104b6612d52565b5f5f8335601e19843603018112612da5575f5ffd5b8301803591506001600160401b03821115612dbe575f5ffd5b602001915036819003821315610f8b575f5ffd5b818382375f9101908152919050565b80151581146107ca575f5ffd5b5f60208284031215612dfe575f5ffd5b81356107b781612de1565b5f612e1661258184612542565b8381526020810190600585901b840136811115612e31575f5ffd5b845b8181101561285e5780356001600160401b03811115612e50575f5ffd5b860136601f820112612e60575f5ffd5b80356001600160401b03811115612e7957612e796124d5565b612e8c601f8201601f1916602001612512565b818152366020838501011115612ea0575f5ffd5b816020840160208301375f60208383010152808752505050602084019350602081019050612e33565b5f610100828403128015612edb575f5ffd5b50612ee46124e9565b823581526020808401359082015260408084013590820152606080840135908201526080808401359082015260a08084013590820152612f2660c08401612492565b60c0820152612f3760e08401612492565b60e08201529392505050565b6001815b6001841115612f7e57808504811115612f6257612f62612d52565b6001841615612f7057908102905b60019390931c928002612f47565b935093915050565b5f82612f94575060016104b6565b81612fa057505f6104b6565b8160018114612fb65760028114612fc057612fdc565b60019150506104b6565b60ff841115612fd157612fd1612d52565b50506001821b6104b6565b5060208310610133831016604e8410600b8410161715612fff575081810a6104b6565b61300b5f198484612f43565b805f190482111561301e5761301e612d52565b029392505050565b5f6107b78383612f86565b5f8261304b57634e487b7160e01b5f52601260045260245ffd5b500490565b818103818111156104b6576104b6612d52565b81835281816020850137505f828201602090810191909152601f909101601f19169091010190565b602081525f610dfb602083018486613063565b604081525f6130b1604083018587613063565b82810360208401526130c38185612941565b9695505050505050565b5f602082840312156130dd575f5ffd5b81516107b781612de1565b5f602082840312156130f8575f5ffd5b5051919050565b60208082526025908201527f62616c616e63652063616e277420676f206f76657220746865204649454c4420604082015264131253525560da1b606082015260800190565b6001600160a01b039390931683526020830191909152604082015260600190565b81515f90829060208501835b8281101561318f578151845260209384019390910190600101613171565b509195945050505050565b5f60408201848352604060208401528084518083526060850191506020860192505f5b818110156131db5783518352602093840193909201916001016131bd565b50909695505050505050565b5f600182016131f8576131f8612d52565b506001019056fe30644e72e131a029b85045b68181585d2833e84879b9709143e1f593f0000001ddf252ad1be2c89b69c2b068fc378daa952ba7f163c4a11628f55a4df523b3ef297d88d6449509e687c2769e1358fbeb521f447c0ec5786c512f8f9676b4d9b1a2646970667358221220624db9f40e7e2309bf2121198d866e77f4bad8e647a1390d12d67cf3135079ed64736f6c634300081c0033",
  "linkReferences": {
    "project/contracts/leanIMTPoseidon2.sol": {
      "leanIMTPoseidon2": [
        {
          "length": 20,
          "start": 6181
        },
        {
          "length": 20,
          "start": 8159
        },
        {
          "length": 20,
          "start": 8379
        },
        {
          "length": 20,
          "start": 8742
        },
        {
          "length": 20,
          "start": 9067
        },
        {
          "length": 20,
          "start": 10302
        },
        {
          "length": 20,
          "start": 10503
        },
        {
          "length": 20,
          "start": 10658
        }
      ]
    }
  },
  "deployedLinkReferences": {
    "project/contracts/leanIMTPoseidon2.sol": {
      "leanIMTPoseidon2": [
        {
          "length": 20,
          "start": 4718
        },
        {
          "length": 20,
          "start": 6696
        },
        {
          "length": 20,
          "start": 6916
        },
        {
          "length": 20,
          "start": 7279
        },
        {
          "length": 20,
          "start": 7604
        },
        {
          "length": 20,
          "start": 8839
        },
        {
          "length": 20,
          "start": 9040
        },
        {
          "length": 20,
          "start": 9195
        }
      ]
    }
  },
  "immutableReferences": {
    "2111": [
      {
        "length": 32,
        "start": 8351
      }
    ],
    "2113": [
      {
        "length": 32,
        "start": 8309
      }
    ],
    "2115": [
      {
        "length": 32,
        "start": 8267
      }
    ],
    "2117": [
      {
        "length": 32,
        "start": 8432
      }
    ],
    "2119": [
      {
        "length": 32,
        "start": 8472
      }
    ],
    "2122": [
      {
        "length": 32,
        "start": 6388
      }
    ],
    "2125": [
      {
        "length": 32,
        "start": 6433
      }
    ]
  },
  "inputSourceName": "project/contracts/WormholeToken.sol",
  "buildInfoId": "solc-0_8_28-65325a4651dc9eda66cad78717193513795ea408"
}