{
  "_format": "hh3-artifact-1",
  "contractName": "reMint32Verifier",
  "sourceName": "contracts/reMint32Verifier.sol",
  "abi": [
    {
      "inputs": [],
      "name": "ConsistencyCheckFailed",
      "type": "error"
    },
    {
      "inputs": [],
      "name": "GeminiChallengeInSubgroup",
      "type": "error"
    },
    {
      "inputs": [],
      "name": "ProofLengthWrong",
      "type": "error"
    },
    {
      "inputs": [
        {
          "internalType": "uint256",
          "name": "logN",
          "type": "uint256"
        },
        {
          "internalType": "uint256",
          "name": "actualLength",
          "type": "uint256"
        },
        {
          "internalType": "uint256",
          "name": "expectedLength",
          "type": "uint256"
        }
      ],
      "name": "ProofLengthWrongWithLogN",
      "type": "error"
    },
    {
      "inputs": [],
      "name": "PublicInputsLengthWrong",
      "type": "error"
    },
    {
      "inputs": [],
      "name": "ShpleminiFailed",
      "type": "error"
    },
    {
      "inputs": [],
      "name": "SumcheckFailed",
      "type": "error"
    },
    {
      "inputs": [
        {
          "internalType": "bytes",
          "name": "proof",
          "type": "bytes"
        },
        {
          "internalType": "bytes32[]",
          "name": "publicInputs",
          "type": "bytes32[]"
        }
      ],
      "name": "verify",
      "outputs": [
        {
          "internalType": "bool",
          "name": "verified",
          "type": "bool"
        }
      ],
      "stateMutability": "view",
      "type": "function"
    }
  ],
  "bytecode": "0x610100604052348015610010575f5ffd5b5062080000608052601360a0527f18746f8092073637ea504376abf840f65c6862b564ecd2e36c657f3c961c41a960c052607460e05260805160a05160c05160e051615caa6100dd5f395f81816101b0015261090201525f61018e01525f8181605b01528181609401528181610101015281816101d201528181610a3001528181610b3d01528181610bdc01528181610c0a01528181610c9001528181611524015281816115d3015281816116060152818161181001528181612b470152612e4a01525f5050615caa5ff3fe608060405234801561000f575f5ffd5b5060043610610029575f3560e01c8063ea50d0e41461002d575b5f5ffd5b61004061003b366004615473565b610054565b604051901515815260200160405180910390f35b5f5f61007f7f00000000000000000000000000000000000000000000000000000000000000006102ee565b905061008c81602061554b565b85146100ee577f0000000000000000000000000000000000000000000000000000000000000000856100bf83602061554b565b6040516359895a5360e01b81526004810193909352602483019190915260448201526064015b60405180910390fd5b5f6100f76103e4565b90505f61012588887f00000000000000000000000000000000000000000000000000000000000000006103f9565b9050601082604001516101389190615562565b85146101575760405163fa06659360e01b815260040160405180910390fd5b60405163995bf45760e01b81525f9073__$fb25f878f0b05c8a47929780b82d5c75cc$__9063995bf457906101fa9085908b908b907f0000000000000000000000000000000000000000000000000000000000000000907f0000000000000000000000000000000000000000000000000000000000000000907f0000000000000000000000000000000000000000000000000000000000000000906004016156e0565b610be060405180830381865af4158015610216573d5f5f3e3d5ffd5b505050506040513d601f19601f8201168201806040525081019061023a91906159f6565b905061028a8787808060200260200160405190810160405280939291908181526020018383602002808284375f9201919091525050855185516060810151608090910151919350915060016108ac565b815160a0015261029a8282610a13565b6102b7576040516313f8744360e31b815260040160405180910390fd5b6102c2828483610bc8565b6102df576040516352ec174560e11b815260040160405180910390fd5b50600198975050505050505050565b5f806102fc6002600861554b565b905061030a6002600461554b565b6103149082615aa0565b9050600161032360098561554b565b61032d919061554b565b6103379082615aa0565b90506103456001602961554b565b61034f9082615aa0565b905061035d6001600361554b565b6103679082615aa0565b905061037460018461554b565b61037e9082615aa0565b905061038c6001600461554b565b6103969082615aa0565b905060026103a5600185615562565b6103af919061554b565b6103b99082615aa0565b90506103c660028061554b565b6103d09082615aa0565b90506103dd601082615aa0565b9392505050565b6103ec614fbf565b6103f4611c0a565b905090565b610401615149565b5f805b60108110156104635761043086838761041e602083615aa0565b9261042b93929190615ab3565b612542565b8351826010811061044357610443615ada565b6020020181815250506020826104599190615aa0565b9150600101610404565b50610487858286610475604083615aa0565b9261048293929190615ab3565b612555565b6020830152610497604082615aa0565b90506104aa858286610475604083615aa0565b6040808401919091526104bd9082615aa0565b90506104d0858286610475604083615aa0565b60608301526104e0604082615aa0565b90506104f3858286610475604083615aa0565b60a0830152610503604082615aa0565b9050610516858286610475604083615aa0565b60c0830152610526604082615aa0565b9050610539858286610475604083615aa0565b6080830152610549604082615aa0565b905061055c858286610475604083615aa0565b60e083015261056c604082615aa0565b905061057f858286610475604083615aa0565b610100830152610590604082615aa0565b90506105a3858286610475604083615aa0565b610120830151526105b5604082615aa0565b90506105c885828661041e602083615aa0565b6101408301526105d9602082615aa0565b90505f5b83811015610657575f5b600981101561064e5761060187848861041e602083615aa0565b84610160015183601c811061061857610618615ada565b6020020151826009811061062e5761062e615ada565b6020020181815250506020836106449190615aa0565b92506001016105e7565b506001016105dd565b505f5b60298110156106ab5761067486838761041e602083615aa0565b836101800151826029811061068b5761068b615ada565b6020020181815250506020826106a19190615aa0565b915060010161065a565b506106bd85828661041e602083615aa0565b6101a08301526106ce602082615aa0565b90506106e1858286610475604083615aa0565b610120830151602001526106f6604082615aa0565b9050610709858286610475604083615aa0565b61012083015160026020020152610721604082615aa0565b9050610734858286610475604083615aa0565b6101c0830152610745604082615aa0565b905061075885828661041e602083615aa0565b6101e0830152610769602082615aa0565b90505f5b610778600185615562565b8110156107c157610790868387610475604083615aa0565b83610200015182601b81106107a7576107a7615ada565b60200201526107b7604083615aa0565b915060010161076d565b505f5b83811015610814576107dd86838761041e602083615aa0565b83610220015182601c81106107f4576107f4615ada565b60200201818152505060208261080a9190615aa0565b91506001016107c4565b505f5b60048110156108685761083186838761041e602083615aa0565b836102400151826004811061084857610848615ada565b60200201818152505060208261085e9190615aa0565b9150600101610817565b5061087a858286610475604083615aa0565b61026083015261088b604082615aa0565b905061089e858286610475604083615aa0565b610280830152509392505050565b5f600180826108d9866108d4896108cf6108ca8a6310000000615aa0565b6125d7565b6125ef565b61260a565b90505f6108f7876108f28a6108cf6108ca8b6001615aa0565b612623565b90505f5b61092660107f0000000000000000000000000000000000000000000000000000000000000000615562565b811015610993575f6109508c838151811061094357610943615ada565b602002602001015161264b565b9050610960866108cf868461260a565b9550610970856108cf858461260a565b945061097c848b61260a565b9350610988838b612623565b9250506001016108fb565b505f5b60108110156109fa575f8a82601081106109b2576109b2615ada565b602002015190506109c7866108cf868461260a565b95506109d7856108cf858461260a565b94506109e3848b61260a565b93506109ef838b612623565b925050600101610996565b50610a058484612660565b9a9950505050505050505050565b5f5f610a2883606001518561014001516125ef565b905060015f5b7f0000000000000000000000000000000000000000000000000000000000000000811015610b1a575f86610160015182601c8110610a6e57610a6e615ada565b602002015180519091505f90610a8c908360015b602002015161260a565b9050848114610aae576040516313f8744360e31b815260040160405180910390fd5b5f876080015184601c8110610ac557610ac5615ada565b60200201519050610ad6838261266e565b9550610b0a856108cf60016108d4856108cf8e604001518b601c8110610afe57610afe615ada565b60200201516001612623565b9450505050806001019050610a2e565b505f610b34866101800151865f01518760200151856127d0565b9050600160025b7f0000000000000000000000000000000000000000000000000000000000000000811015610b9157610b8782886080015183601c8110610b7d57610b7d615ada565b60200201516125ef565b9150600101610b3b565b50610bb7610ba4836108cf600185612623565b6108d4896101a0015189606001516125ef565b91508382145b979650505050505050565b5f610bd1615232565b5f610c008460c001517f0000000000000000000000000000000000000000000000000000000000000000612849565b90505f6003610c307f00000000000000000000000000000000000000000000000000000000000000006024615aa0565b610c3a9190615aa0565b610c45906003615aa0565b6001600160401b03811115610c5c57610c5c6158a7565b604051908082528060200260200182016040528015610c85578160200160208202803683370190505b5090505f6003610cb67f00000000000000000000000000000000000000000000000000000000000000006024615aa0565b610cc09190615aa0565b610ccb906003615aa0565b6001600160401b03811115610ce257610ce26158a7565b604051908082528060200260200182016040528015610d1b57816020015b610d086152a2565b815260200190600190039081610d005790505b509050610d4e610d49876101000151855f81518110610d3c57610d3c615ada565b6020026020010151612623565b612912565b84610120018181525050610d83610d49876101000151855f81518110610d7657610d76615ada565b602002602001015161260a565b610140850181905261012085015160e0880151610da4926108d491906125ef565b845260c0860151610dd490610db890612912565b6108cf8661012001516108f28a60e001518961014001516125ef565b6020850152815160019083905f90610dee57610dee615ada565b602002602001018181525050876102600151815f81518110610e1257610e12615ada565b60209081029190910101526101e088015160c085015260a080870151908501528351610e3d90612982565b60408501526020840151610e5090612982565b60608501526040840151825183906001908110610e6f57610e6f615ada565b60209081029190910101525f5b6024811015610f1657610e9785604001518660a001516125ef565b83610ea3836002615aa0565b81518110610eb357610eb3615ada565b602002602001018181525050610ef08560c001516108d48b61018001518460298110610ee157610ee1615ada565b60200201518860a001516125ef565b60c086015260a08086015190880151610f0991906125ef565b60a0860152600101610e7c565b505f5b6005811015610fe4575f610f2e601e83615aa0565b90505f610f3c602484615aa0565b9050610f6d858381518110610f5357610f53615ada565b60200260200101516108d489606001518a60a001516125ef565b858381518110610f7f57610f7f615ada565b602002602001018181525050610fbc8760c001516108d48d61018001518460298110610fad57610fad615ada565b60200201518a60a001516125ef565b60c088015260a080880151908a0151610fd591906125ef565b60a08801525050600101610f19565b50876101c0015181600181518110610ffe57610ffe615ada565b602002602001018190525086606001518160028151811061102157611021615ada565b602002602001018190525086608001518160038151811061104457611044615ada565b60200260200101819052508660a001518160048151811061106757611067615ada565b60200260200101819052508660c001518160058151811061108a5761108a615ada565b60200260200101819052508660e00151816006815181106110ad576110ad615ada565b6020026020010181905250866101000151816007815181106110d1576110d1615ada565b6020026020010181905250866101200151816008815181106110f5576110f5615ada565b60200260200101819052508661014001518160098151811061111957611119615ada565b602002602001018190525086610160015181600a8151811061113d5761113d615ada565b6020026020010181905250866101c0015181600b8151811061116157611161615ada565b602002602001018190525086610180015181600c8151811061118557611185615ada565b6020026020010181905250866101a0015181600d815181106111a9576111a9615ada565b6020026020010181905250866101e0015181600e815181106111cd576111cd615ada565b602002602001018190525086610200015181600f815181106111f1576111f1615ada565b60200260200101819052508661022001518160108151811061121557611215615ada565b60200260200101819052508661024001518160118151811061123957611239615ada565b60200260200101819052508661026001518160128151811061125d5761125d615ada565b60200260200101819052508661028001518160138151811061128157611281615ada565b6020026020010181905250866102a00151816014815181106112a5576112a5615ada565b6020026020010181905250866102c00151816015815181106112c9576112c9615ada565b6020026020010181905250866102e00151816016815181106112ed576112ed615ada565b60200260200101819052508661030001518160178151811061131157611311615ada565b60200260200101819052508661032001518160188151811061133557611335615ada565b60200260200101819052508661034001518160198151811061135957611359615ada565b602002602001018190525086610360015181601a8151811061137d5761137d615ada565b602002602001018190525086610380015181601b815181106113a1576113a1615ada565b6020026020010181905250866103a0015181601c815181106113c5576113c5615ada565b6020026020010181905250866103c0015181601d815181106113e9576113e9615ada565b6020026020010181905250876020015181601e8151811061140c5761140c615ada565b6020026020010181905250876040015181601f8151811061142f5761142f615ada565b602002602001018190525087606001518160208151811061145257611452615ada565b602002602001018190525087608001518160218151811061147557611475615ada565b60200260200101819052508761010001518160228151811061149957611499615ada565b60200260200101819052508760e00151816023815181106114bc576114bc615ada565b60200260200101819052508760a00151816024815181106114df576114df615ada565b60200260200101819052508760c001518160258151811061150257611502615ada565b60200260200101819052505f61154887608001518660c001518b6102200151877f0000000000000000000000000000000000000000000000000000000000000000612994565b9050611572815f8151811061155f5761155f615ada565b60200260200101518661012001516125ef565b608086018190526102208a01515160e08901516115a392916108d49161159891906125ef565b8861014001516125ef565b608086015260e08701516115b690612af2565b60a08601525f6115c860246002615aa0565b90505f5b6115f760017f0000000000000000000000000000000000000000000000000000000000000000615562565b811015611808575f61162a60017f0000000000000000000000000000000000000000000000000000000000000000615562565b8210159050806117995761165e610d498b61010001518985600161164e9190615aa0565b81518110610d3c57610d3c615ada565b6101208901526101008a015161168e90610d49908961167e866001615aa0565b81518110610d7657610d76615ada565b61014089015260a08801516101208901516116a991906125ef565b61016089015260a088015160e08b01516116d1916116c6916125ef565b8961014001516125ef565b61018089018190526116f4906116e690612982565b6108d48a6101600151612982565b866116ff8486615aa0565b8151811061170f5761170f615ada565b6020026020010181815250505f6117488961018001518e61022001518560016117389190615aa0565b601c8110610b7d57610b7d615ada565b9050611782816108d48b6101600151888760016117659190615aa0565b8151811061177557611775615ada565b60200260200101516125ef565b905061179289608001518261260a565b60808a0152505b6117b86117ae8960a001518c60e001516125ef565b8b60e001516125ef565b60a08901526102008c015182601b81106117d4576117d4615ada565b6020020151856117e48486615aa0565b815181106117f4576117f4615ada565b6020908102919091010152506001016115cc565b5061183460017f0000000000000000000000000000000000000000000000000000000000000000615562565b61183e9082615aa0565b905061185e6118568961010001518a60c00151612623565b600190612660565b60e08701515261010088015160c08901516118a291611856916108f2907f07b0c561a6148404f086204a9f36ffb0617942546750f230c893619174a57a76906125ef565b60e0878101805160200192909252815180516040909101529051805160609091015260a0870151908901516118e4916118da916125ef565b8960e001516125ef565b60a08701525f5b6004811015611992575f61191d8860e00151836004811061190e5761190e615ada565b60200201518960a001516125ef565b905061192881612982565b886101000151836004811061193f5761193f615ada565b602002015260a088015160e08b015161195891906125ef565b8860a001818152505061198488608001516108d4838f61024001518660048110610b7d57610b7d615ada565b6080890152506001016118eb565b506101008601515184518590839081106119ae576119ae615ada565b602090810291909101810191909152610100870151908101516119d2916002610a82565b846119de836001615aa0565b815181106119ee576119ee615ada565b60209081029190910101526101008601516060015184611a0f836002615aa0565b81518110611a1f57611a1f615ada565b60209081029190910101525f5b6003811015611a81578a61012001518160038110611a4c57611a4c615ada565b60200201518483611a5c81615aee565b945081518110611a6e57611a6e615ada565b6020908102919091010152600101611a2c565b506040518060400160405280600181526020016002815250838281518110611aab57611aab615ada565b60200260200101819052508560800151848280611ac790615aee565b935081518110611ad957611ad9615ada565b602002602001018181525050611b038a61024001518960c001518a608001518d6101a00151612afd565b611b205760405163a2a2ac8360e01b815260040160405180910390fd5b5f8a6102800151905080848381518110611b3c57611b3c615ada565b6020026020010181905250886101000151858381518110611b5f57611b5f615ada565b602002602001018181525050611b736152ba565b611b7d8587612e3a565b8152611b8882612f56565b602082018190528c5182515f92611ba0929190612f9c565b90505f5f611bb08f5f0151613022565b91509150611bbd826130e3565b611bc6816130e3565b8351611bd3908385613182565b84526020840151611be5908285613182565b602085018190528451611bf7916131b1565b9f9e505050505050505050505050505050565b611c12614fbf565b50604080516103e0810182526208000081526013602080830191909152607482840152825180840184527f2ba1376761827a22331e610369ffd1d9803d962a2e8635614a0a46e8c5a550cf81527f11a8122480cc77c6516e0547ea29d21f4d8e668aa33b9c1fb426961aa3c68bb4818301526060830152825180840184527f1c264e72b1164e735ec73870726c1ce5496c76d97eb71423b6aa5a492a6a2da081527f0193e1a1faf61a19e0c8312587e469230702f5bc2b93c9e4b7d402ec755dd517818301526080830152825180840184527f2b749f317e0acf85650d1ec946a45cda214f3747bf8cc3aff8ee48327bf1938b81527f07461226da0e5efc3eec7f926ac2f39e085c122f3198fb7c2ea095741039dd128183015260a0830152825180840184527ef274e9a44c9c9359df7d8badc53579b9ef662546030a68c14b4107e37bdcca81527f19f2f0941cca284108c5fb7ab4f4ab9542037bf54c39dc3100588b48ba62965b8183015260c0830152825180840184527f1e7548b0416c2c85e9bd69c57e3d7fa90baea442a3477efc5db06f68c1f2ce8d81527f1396dc4cfa4c8cee98e7fd5dc8f7e85e42f2fa249c66bd1b79a53083005e07728183015260e0830152825180840184527f076d757e4fb4963bd8b4e641969d4a18899720f7a034417df92cb6d0d95f8eda81527f029201ba0a75e991400451847e2b73875292a8b49266279961cc7ac730cc043581830152610100830152825180840184527f267037bb729808d03e2976e162bec3f19018c9908548845c59951176b923a5ed81527f1385417713f8bc7e4b95cb738c8e725d2f4f9f90e926703b58e2b0cd37033ab881830152610120830152825180840184527f0bb559bce71dcc38332e9384d9348a94abb1fcbcde9da77c2068731b382914dc81527f1c551f189ad0c679681b5ce812947a5da1773288da5c5ec4607641283ccffd9f81830152610140830152825180840184527f1bd1fa37024b29d2d64fde125aba23013f8712743f9bb3dc9f0143cc5c621e0781527f21db4ff2c44fdf4b45ef2904ac15fd80641fd5b6c24ee9a88e0edcf633e9b12181830152610160830152825180840184527f25ecd5f6267a9c2cdcf064862e3893e712af3e5421ee0d8589ff7c0d405e598581527f2b70027408d7e041f963318443159f8f825fcd23c02af0871784c7a6c256022681830152610180830152825180840184527f13601fdf4b0e438029a5abb37ccc554f51b38395a46794e197f60bdadde20a9b81527f2e467fe5de140c4213d96c70d6cc1bdab19e56229c33dba65945714ee97f4633818301526101a0830152825180840184527f1ef0f5b94174daa67665719ceaf0d93535796d41302a06ab5700308d3bd5ae8c81527f15813ad756f428b415e656cdc06274e50b1bf4b3c3f5212c12ca172a73db4f17818301526101c0830152825180840184527f17cf4538df651a360f04608fb8fa13e5855124957e9738000ac94494c7aff58581527f28f0d924f039107c21b5cfa95a5548ccc8ed0e9151c126e3e6e1e06cf6774b06818301526101e0830152825180840184527f14092dc3c35debe03028235bf93d5eb82849ff8a3515185d64e0b1eda4dffbb781527f28025ebebdc124642e867989e802e10bf37275a3131c3109f3ff6790e726a82a81830152610200830152825180840184527f11a7648f0c9139a633e3859121793d219288ad6fa3f72639102a061444e4f48481527f1fa821ab96fe999bb0367f51f9d4e2411a123c148b7547da465d1a48dd07752581830152610220830152825180840184527f2cbe43fe4bd1d6e7eca12895452c307633f9a40b6feb698ce9fb8eb0a98a14d981527f0e5a5b5d978e05d14eeb615fdede1ca1607a986e6b6eebc193eaf46032e4d66181830152610240830152825180840184527f24745472b9186cb860cd174e859ff8b2f7e10775191a888cb22ec47c4d64269981527f0861bd820df5bc3e38bc0e26dd58f54fe8e9b8a673f8bad1424671d67430b1b781830152610260830152825180840184527f2fd0cd4521c5b40aaf8b9a8ed69400d57ed3b9ec00668aecefe9c34607864c3b81527e26725c4f72f0ac7131675ed9472b11d5eb9d608a3937ebde41c8b8b3ec074a81830152610280830152825180840184527f1c36c2f01b88a655635f98eb50a29de6afe7f6accf3e7270c72775b260550a0981527f20d1e505d20c85792855059d29755d17502d0f32026389c018642ba2e469af66818301526102a0830152825180840184527f1fa953bee33b94613850f04f5425e4ee8030cc599ba663f4a0bf613ecfef903c81527f0898aadb89f509821f0cab6998a427f661f7be29c5f0a842bc15a203e96cfd61818301526102c0830152825180840184527f21f7b5650ed404d191b7b86befb39ab68d85858d77f10642ec0b125e884e8b2f81527f13effa5cbb8a935673d6e3773d60a8b2f5834fe6919e052b9bee5ceb11447636818301526102e0830152825180840184527f1a7e9fece5d6eb591838e3ed6b2c575e9b166a402b4df9554c5f65eac59b861a81527f2a4efe1b7b195bcf2e9efcec8411719ddbebc7909b824eda675106f7b5a9f6fd81830152610300830152825180840184527eca456f15fbc0be6292a5bbf87794822866f3e5f2002b9cbd7be7e9595a239981527f0e4c2514da31b28dee9f4b85587077d5fb3c11245c058c6e52b294a00380b55481830152610320830152825180840184527f225b57c4ff17eb0abbea36b200eb11038becd636e8c95718d6b92280cd63e60781527f2be8f04c74bfcb4d81ded42f88a1294f7198f8061b23c7301a166ed903728c8d81830152610340830152825180840184527f11f1e13ce43c60469271a788e2a8c1cf5783a93bd5b244a50885018aa2b8379181527f0c2efdb54c784de692440dc7aed24756ae26a17e79abf6fc5c97f1e9e28b4c7e81830152610360830152825180840184527f126789cf3d08948c851f8d609559d2cc7ef7aa9db2c0e29f150da1ddd575245881527f293c32dd65412f9c9c7a8461f2f4adc942ba825d7a09f23300a489e72ca60c118183015261038083015282518084018452600181526002818301526103a083015282518084019093527f2f40b8f7c4a5f7303f9fab28783e9827aa285cf7ecd4d8bc1aa10084a8681ab083527f0edb35ac3d545ce14fb80d91f1c4f3a9029c84d1e08a648dee195e718f729343908301526103c081019190915290565b5f6103dd6125508385615b06565b61264b565b61255d6152a2565b60408051808201909152805f516020615bf55f395f51905f5261258360205f8789615ab3565b61258c91615b06565b6125969190615b23565b81526020908101905f516020615bf55f395f51905f52906125bb906040908789615ab3565b6125c491615b06565b6125ce9190615b23565b90529392505050565b5f5f516020615c355f395f51905f52825b0692915050565b5f5f516020615c355f395f51905f5282840990505b92915050565b5f5f516020615c355f395f51905f528284089392505050565b5f5f516020615c355f395f51905f52825f516020615c355f395f51905f520384089392505050565b5f5f516020615c355f395f51905f52826125e8565b5f6103dd836108cf84612912565b5f5f604051806101200160405280619d8081526020015f516020615c555f395f51905f5281526020016105a081526020015f516020615bd55f395f51905f52815260200161024081526020015f516020615bd55f395f51905f5281526020016105a081526020015f516020615c555f395f51905f528152602001619d8081525090505f600190505f5f90505b600981101561271b57612711826108cf8784612623565b91506001016126fa565b506127246152cd565b5f5b600981101561277557612756610d4985836009811061274757612747615ada565b60200201516108cf8985612623565b82826009811061276857612768615ada565b6020020152600101612726565b505f5b60098110156127bb576127b1856108d489846009811061279a5761279a615ada565b6020020151858560098110610b7d57610b7d615ada565b9450600101612778565b506127c684836125ef565b9695505050505050565b5f6127d96152ec565b6127e48682856133a5565b6127f086868386613551565b6127fc8686838661373d565b612807868285613962565b612812868285613b56565b61281e86868386613e9f565b61282986828561434b565b61283486828561475d565b61283f868285614b1e565b6127c68185614e1e565b60605f826001600160401b03811115612864576128646158a7565b60405190808252806020026020018201604052801561288d578160200160208202803683370190505b50905083815f815181106128a3576128a3615ada565b602090810291909101015260015b8381101561290a576128e5826128c8600184615562565b815181106128d8576128d8615ada565b6020026020010151612af2565b8282815181106128f7576128f7615ada565b60209081029190910101526001016128b1565b509392505050565b5f5f8290505f604051602081526020808201526020604082015282606082015260025f516020615c355f395f51905f520360808201525f516020615c355f395f51905f5260a082015260205f60c08360055afa8061296e575f5ffd5b505f51608091909101604052949350505050565b5f516020615c355f395f51905f520390565b60605f826001600160401b038111156129af576129af6158a7565b6040519080825280602002602001820160405280156129d8578160200160208202803683370190505b509050825b8015612ae7575f856129f0600184615562565b81518110612a0057612a00615ada565b602002602001015190505f89600184612a199190615562565b601c8110612a2957612a29615ada565b602002015190505f612a84612a48612a41858d6125ef565b60026125ef565b6108f28b612a57600189615562565b601c8110612a6757612a67615ada565b60200201516108cf612a7e886108cf60018a612623565b87612623565b9050612aa5816108cf610d49612a9f876108cf600189612623565b8661260a565b99508990508085612ab7600187615562565b81518110612ac757612ac7615ada565b60200260200101818152505050505080612ae090615b42565b90506129dd565b509695505050505050565b5f61260482836125ef565b5f600181612b16612b1087610100614e77565b83612623565b905080612b365760405163835eb8f760e01b815260040160405180910390fd5b612b3e61530b565b80518390525f5b7f0000000000000000000000000000000000000000000000000000000000000000811015612c27575f612b7982600961554b565b612b84906001615aa0565b905084835f0151826101008110612b9d57612b9d615ada565b60200201525f612bae826001615aa0565b90505b612bbc600983615aa0565b811015612c1d578351612bfc90612bd4600184615562565b6101008110612be557612be5615ada565b60200201518a85601c8110610b7d57610b7d615ada565b8451826101008110612c1057612c10615ada565b6020020152600101612bb1565b5050600101612b45565b50608081018390525f602082018190525b610100811015612d2557612c59612c5383608001518a6125ef565b85612623565b8260a00151826101008110612c7057612c70615ada565b602002015260a0820151612c9a90826101008110612c9057612c90615ada565b6020020151612912565b8260a00151826101008110612cb157612cb1615ada565b602002018181525050612cf782602001516108d4845f0151846101008110612cdb57612cdb615ada565b60200201518560a00151856101008110610b7d57610b7d615ada565b60208301526080820151612d18905f516020615c155f395f51905f526125ef565b6080830152600101612c38565b505f612d36836108cf610100612912565b9050612d468260200151826125ef565b602083015260a0820151612d61905f5b6020020151826125ef565b604083015260a0820151612d8d90612d7c6001610100615562565b6101008110612d5657612d56615ada565b60608301526040820151612da3908a6002610b7d565b60c08301819052612df0906108d4612dc88b5f516020615c155f395f51905f52612623565b60208d015160408e01516108cf91612ddf91612623565b8e5160208901516108f291906125ef565b60c083018190526060830151612e2591612e19916108d4906108cf8e600260200201518c612623565b6108f2858c6003610b7d565b60c08301819052159998505050505050505050565b612e426152a2565b5f6003612e707f00000000000000000000000000000000000000000000000000000000000000006024615aa0565b612e7a9190615aa0565b612e85906003615aa0565b90505f5b81811015612ebb57612eb3858281518110612ea657612ea6615ada565b60200260200101516130e3565b600101612e89565b50604051600190815b60018401811015612f205760208102870160208202870181515160408501528151602001516060850152805160808501525050604080830160606040850160075afa8316925060408260808460065afa90921691600101612ec4565b5080518452602081015160208501525080612f4e576040516352ec174560e11b815260040160405180910390fd5b505092915050565b612f5e6152a2565b5f516020615bf55f395f51905f5282602001515f516020615bf55f395f51905f52612f899190615562565b612f939190615b23565b60208301525090565b5f5f5f612fa886613022565b91509150612fb461534f565b82518152602080840151818301528251604080840191909152838201516060840152875160808401528782015160a0840152865160c08401528682015160e084015251610bbd9161300791849101615b57565b6040516020818303038152906040528051906020012061264b565b61302a6152a2565b6130326152a2565b82516020808501516040860151606087015160cc90811b608892831b604494851b90961795909517949094178652608087015160a088015160c089015160e08a0151871b90841b91851b9092171717868401526101008701516101208801516101408901516101608a0151871b90841b91851b909217171785526101808701516101a08801516101c08901516101e09099015190951b9790911b9390911b1791909117939093179281019290925291565b805160208201515f5f516020615bf55f395f51905f528380095f516020615bf55f395f51905f5260035f516020615bf55f395f51905f52838709085f516020615bf55f395f51905f52848509149150508061317c5760405162461bcd60e51b8152602060048201526019602482015278706f696e74206973206e6f74206f6e2074686520637572766560381b60448201526064016100e5565b50505050565b61318a6152a2565b6131926152a2565b61319c8386614ed8565b90506131a88185614f2e565b95945050505050565b81516020808401518351848301516040805194850195909552938301919091527f198e9393920d483a7260bfb731fb5d25f1aa493335a9e71297e485b7aef312c260608301527f1800deef121f1e76426a00665e5c4479674322d4f75edadd46debd5cd992f6ed60808301527f090689d0585ff075ec9e99ad690c3395bc4b313370b38ef355acdadcd122975b60a08301527f12c85ea5db8c6deb4aab71808dcb408fe3d1e7690c43d37b4ce6cc0166fa7daa60c083015260e08201526101008101919091527f260e01b251f6f1c7e7ff4e580791dee8ea51d87a358e038b4efe30fac09383c16101208201527f0118c4d5b837bcc2bc89b5b398b5974e9f5944073b32078b7e231fec938883b06101408201527f04fc6369f7110fe3d25156c1bb9a72859cf2a04641f99ba4ee413c80da6a5fe46101608201527f22febda3c0c0632a56475b4214e5615e11e6dd3f96e6cea2854a87d4dacc5e556101808201525f9081906101a00160405160208183030381529060405290505f5f60086001600160a01b0316836040516133479190615b8b565b5f60405180830381855afa9150503d805f811461337f576040519150601f19603f3d011682016040523d82523d5f602084013e613384565b606091505b50915091508180156127c65750808060200190518101906127c69190615ba1565b5f6133b1846007614f8f565b90507f183227397098d014dc2822db40c0ac2e9419f4243cdcb848a1f0fac9f80000005f61341261340c6133e6856003612623565b6108cf6134016133f68b5f614f8f565b6108cf8c601d614f8f565b6108cf8b601c614f8f565b836125ef565b905061349361348861346f61345661343d856108d46134328d6002614f8f565b6108cf8e601c614f8f565b6108d461344b8c6003614f8f565b6108cf8d601d614f8f565b6108d46134648b6004614f8f565b6108cf8c601e614f8f565b6108d461347d8a6005614f8f565b6108cf8b601f614f8f565b6108d4886001614f8f565b90506134b2816108d46134a7866001612623565b6108cf8a6027614f8f565b90506134be81846125ef565b90506134ca81856125ef565b8552505f90506135046134fa6134ef6134e488601c614f8f565b6108d489601f614f8f565b6108f2886024614f8f565b6108d4875f614f8f565b9050613515816108cf846002612623565b9050613526816108cf846001612623565b905061353281836125ef565b905061353e81846125ef565b9050808460015b60200201525050505050565b5f5f5f61358761357d61356589601c614f8f565b6108d46135738b6012614f8f565b8a606001516125ef565b876080015161260a565b90506135c0816108cf6135b661359e8b601d614f8f565b6108d46135ac8d6013614f8f565b8c606001516125ef565b896080015161260a565b90506135e5816108cf6135b66135d78b601e614f8f565b6108d46135ac8d6014614f8f565b905061360a816108cf6135b66135fc8b601f614f8f565b6108d46135ac8d6015614f8f565b92505f905061362e61357d61362089601c614f8f565b6108d46135738b600e614f8f565b9050613653816108cf6135b66136458b601d614f8f565b6108d46135ac8d600f614f8f565b9050613678816108cf6135b661366a8b601e614f8f565b6108d46135ac8d6010614f8f565b905061369d816108cf6135b661368f8b601f614f8f565b6108d46135ac8d6011614f8f565b91505f90506136c46136be6136b3896020614f8f565b6108d48a601a614f8f565b846125ef565b90506136f9816108f26136f36136db8b6028614f8f565b6108d46136e98d601b614f8f565b8c60a001516125ef565b856125ef565b905061370581856125ef565b6040860152505f6137286136f361371d89601b614f8f565b6108cf8a6028614f8f565b9050808560035b602002015250505050505050565b5f5f61379b61378361376b6137566135b68a6016614f8f565b6108d46137648b6017614f8f565b8a516125ef565b6108d46137798a6018614f8f565b89602001516125ef565b6108d4613791896019614f8f565b88604001516125ef565b91505f6137d26137b96137af89601c614f8f565b886080015161260a565b6108d46137c78a6003614f8f565b6108cf8b6024614f8f565b90505f6137fb6137e389601d614f8f565b6108d46137f08b5f614f8f565b6108cf8c6025614f8f565b90505f61382561380c8a601e614f8f565b6108d461381a8c6001614f8f565b6108cf8d6026614f8f565b905061386461384c61383e856108d4868d5f01516125ef565b6108d4848c602001516125ef565b6108d461385a8c6004614f8f565b8b604001516125ef565b93505050505f6138786136be886021614f8f565b90505f6138896136be896021614f8f565b90505f6138c16138a861389d8b6023614f8f565b6108d48c6006614f8f565b6108f26138b68c6023614f8f565b6108cf8d6006614f8f565b90505f6138df612b106138d487896125ef565b6108cf8d6021614f8f565b90506138eb81886125ef565b90505f6139136139056138ff8d6006614f8f565b876125ef565b6108f26138ff8e6022614f8f565b90505f6139218c6023614f8f565b90505f613931612b1083846125ef565b60808c0185905260a08c01849052905061394b818b6125ef565b8b6006602002015250505050505050505050505050565b5f61396e5f6001612623565b90505f61397c5f6002612623565b90505f61398a5f6003612623565b90505f6139a661399b88601d614f8f565b6108f289601c614f8f565b90505f6139c26139b789601e614f8f565b6108f28a601d614f8f565b90505f6139de6139d38a601f614f8f565b6108f28b601e614f8f565b90505f6139fa6139ef8b6024614f8f565b6108f28c601f614f8f565b905083613a0b816108cf818b61260a565b9050613a1b816108cf878a61260a565b9050613a2b816108cf878961260a565b9050613a3c816108cf8d6008614f8f565b9050613a48818a6125ef565b60e08b01525082613a5d816108cf818b61260a565b9050613a6d816108cf868a61260a565b9050613a7d816108cf868961260a565b9050613a8e816108cf8d6008614f8f565b9050613a9a818a6125ef565b6101008b01525081613ab0816108cf818b61260a565b9050613ac0816108cf858a61260a565b9050613ad0816108cf858961260a565b9050613ae1816108cf8d6008614f8f565b9050613aed818a6125ef565b6101208b01525080613b03816108cf818b61260a565b9050613b13816108cf848a61260a565b9050613b23816108cf848961260a565b9050613b34816108cf8d6008614f8f565b9050613b40818a6125ef565b610140909a019990995250505050505050505050565b613b8f6040518060e001604052805f81526020015f81526020015f81526020015f81526020015f81526020015f81526020015f81525090565b613b9a84601d614f8f565b8152613ba784601e614f8f565b6020820152613bb7846024614f8f565b6040820152613bc7846027614f8f565b6060820152613bd7846026614f8f565b6080820152613be7846025614f8f565b60a08201525f613bf8856002614f8f565b90505f613c05865f614f8f565b90505f613c198460400151855f0151612623565b90505f613c2e856020015186602001516125ef565b606086015190915086905f90613c4490806125ef565b90505f613c62613c5c89602001518a606001516125ef565b886125ef565b90505f613c81613c7a8a60a001518b6040015161260a565b8a5161260a565b9050613c906138ff82886125ef565b9050613cb7613cb1613cab613ca58487612623565b88612623565b8461260a565b8361260a565b9050613cdf613cd4613cc983876125ef565b6108cf8f6009614f8f565b6108cf60018a612623565b6101608c015250505050602085015160808601515f91613cfe9161260a565b90505f613d1c613d128860600151886125ef565b8860200151612623565b90505f613d40613d2c84876125ef565b6108d46136f38b60a001518c5f0151612623565b9050613d68613d5d613d52838c6125ef565b6108cf8e6009614f8f565b6108cf600189612623565b6101808b0152505f9150613d899050613d8283601161260a565b87516125ef565b90505f613d96838461260a565b9050613da2818261260a565b90505f613db08360096125ef565b9050613dd9613dd36136be613dcc8b60a001518c5f015161260a565b8b5161260a565b82612623565b60c089018190525f90613df490613c5c90613cc9908d6125ef565b9050613e078b600b60200201518261260a565b6101608c0152505086515f9250613e2e9150613d8290613e27908061260a565b885161260a565b90505f613e6e613e49836108cf8a5f01518b60a00151612623565b60208901516108f290613e5c908061260a565b6108cf8b602001518c6080015161260a565b9050613e8b89600c60200201516108d4613c5c613cc9858d6125ef565b89600c602002015250505050505050505050565b613f09604051806101e001604052805f81526020015f81526020015f81526020015f81526020015f81526020015f81526020015f81526020015f81526020015f81526020015f81526020015f81526020015f81526020015f81526020015f81526020015f81525090565b613f21613f1786601e614f8f565b85604001516125ef565b808252613f40906108d4613f3688601d614f8f565b87602001516125ef565b808252613f55906108d4613d8288601c614f8f565b808252613f67906108d4876001614f8f565b80825260208201819052613f80906108f287601f614f8f565b8152613f9b613f90866024614f8f565b6108f287601c614f8f565b6080820152613fb9613fae866027614f8f565b6108f287601f614f8f565b60608201526080810151613fd2906108cf816001612623565b6101c082015260808101516140129061400890614001906108cf60015f516020615c355f395f51905f52615562565b600161260a565b82606001516125ef565b60a082018190526140489061403a906108cf61402f896002614f8f565b6108cf8a6003614f8f565b6108cf6136f388600a614f8f565b83600e60200201526101c081015161406c9061403a906108cf61402f896002614f8f565b6101e08401528051614091906108cf614086886002614f8f565b6108cf896003614f8f565b6101208201525f6140b06140a687601f614f8f565b8360200151612623565b90506140c1816108cf836001612623565b60e08301526140de6140d4876026614f8f565b86604001516125ef565b60408301819052614101906108d46140f7896025614f8f565b88602001516125ef565b60408301819052614121906108d461411a896024614f8f565b88516125ef565b604083015261413e614134876027614f8f565b8360400151612623565b60408301525f61415d614152886026614f8f565b6108f289601e614f8f565b90506141af61418a61340c614001866080015160015f516020615c355f395f51905f526108cf9190615562565b6108cf614001866040015160015f516020615c355f395f51905f526108cf9190615562565b60c084015260408301516141d1906141c790806125ef565b8460400151612623565b61010084015260c08301516141fd906141ef906108cf8a6004614f8f565b6108cf6138ff8a600a614f8f565b6102008601526101c083015161421c906141ef906108cf8a6004614f8f565b61022086015261010083015161423b906141ef906108cf8a6004614f8f565b61024086015260e0830151614255906108cf896004614f8f565b610140840152614274614269886025614f8f565b6108f289601d614f8f565b61016084015260808301516142b290614152906142a790614001906108cf60015f516020615c355f395f51905f52615562565b8561016001516125ef565b61018084018190526101208401516101a085018190526142e9916108d4906108cf6142de8c6005614f8f565b6108cf8d6002614f8f565b6101a08401819052835161430991906108d4906108cf6142de8c5f614f8f565b6101a08401819052610140840151614321919061260a565b6101a0840181905261433b906108cf6138ff8a600a614f8f565b6101a0840181905285600d61372f565b6143846040518060e001604052805f81526020015f81526020015f81526020015f81526020015f81526020015f81526020015f81525090565b6143b96143a061439586601c614f8f565b6108cf876025614f8f565b6108d46143ae876024614f8f565b6108cf88601d614f8f565b81526143fe6143f36143da6143cf87601c614f8f565b6108cf88601f614f8f565b6108d46143e888601d614f8f565b6108cf89601e614f8f565b6108f2866026614f8f565b6040820181905261441390600160441b6125ef565b60408201819052614429906108f2866027614f8f565b60408201819052815161443c919061260a565b60408201819052614452906108cf866005614f8f565b6040820152805161446790600160441b6125ef565b808252614487906108d461447c876024614f8f565b6108cf886025614f8f565b808252602082018190526144ae906108f26144a387601e614f8f565b6108d488601f614f8f565b602082018190526144c4906108cf866004614f8f565b60208201528051606082018190526144e1906108d486601f614f8f565b60608201819052614505906108f26144fa876026614f8f565b6108d4886027614f8f565b6060820181905261451a906108cf865f614f8f565b8160600181815250505f6145436145398360200151846040015161260a565b836060015161260a565b9050614554816108cf876003614f8f565b905061456c614564866025614f8f565b6140006125ef565b60808301819052614582906108d4876024614f8f565b60808301819052614595906140006125ef565b608083018190526145ab906108d487601e614f8f565b608083018190526145be906140006125ef565b608083018190526145d4906108d487601d614f8f565b608083018190526145e7906140006125ef565b608083018190526145fd906108d487601c614f8f565b60808301819052614613906108f287601f614f8f565b60808301819052614629906108cf876005614f8f565b608083015261463c614564866026614f8f565b60a08301819052614652906108d4876025614f8f565b60a08301819052614665906140006125ef565b60a0830181905261467b906108d4876024614f8f565b60a0830181905261468e906140006125ef565b60a083018190526146a4906108d487601f614f8f565b60a083018190526146b7906140006125ef565b60a083018190526146cd906108d487601e614f8f565b60a083018190526146e3906108f2876027614f8f565b60a083018190526146f8906108cf875f614f8f565b60a0830181905260808301515f91614710919061260a565b9050614721816108cf886004614f8f565b905061472d828261260a565b60c08401819052614746906108cf6138ff89600b614f8f565b60c084018190528560136020020152505050505050565b6147d36040518061022001604052805f81526020015f81526020015f81526020015f81526020015f81526020015f81526020015f81526020015f81526020015f81526020015f81526020015f81526020015f81526020015f81526020015f81526020015f81526020015f81526020015f81525090565b6147ec6147e185601c614f8f565b6108d4866002614f8f565b81526148076147fc85601d614f8f565b6108d4866003614f8f565b602082015261482561481a85601e614f8f565b6108d4866004614f8f565b604082015261484361483885601f614f8f565b6108d4866005614f8f565b606082015280516148759061486e906148679061486090806125ef565b84516125ef565b83516125ef565b82516125ef565b608082015260208101516148b3906148a99061489f9061489590806125ef565b84602001516125ef565b83602001516125ef565b82602001516125ef565b60a082015260408101516148f1906148e7906148dd906148d390806125ef565b84604001516125ef565b83604001516125ef565b82604001516125ef565b60c08201526060810151614925906140089061491b9061491190806125ef565b84606001516125ef565b83606001516125ef565b60e0820152608081015160a082015161493e919061260a565b61010082015260c081015160e0820151614958919061260a565b61012082015260a081015161497c90614971908061260a565b82610120015161260a565b61014082015260e08101516149a090614995908061260a565b82610100015161260a565b6101608201526101208101516149b6908061260a565b6101e082018190526149d7906149cc908061260a565b82610160015161260a565b6101e08201526101008101516149ed908061260a565b6101a08201819052614a0e90614a03908061260a565b82610140015161260a565b6101a08201819052610160820151614a259161260a565b6101808201526101408101516101e0820151614a41919061260a565b6101c0820152614a5561340c85600c614f8f565b6102008201819052610280840151610180830151614a80926108d4916108cf906108f28a6024614f8f565b8360146020020152614ab083601560200201516108d48361020001516108cf856101a001516108f28a6025614f8f565b8360156020020152614ae083601660200201516108d48361020001516108cf856101c001516108f28a6026614f8f565b8360166020020152614b1083601760200201516108d48361020001516108cf856101e001516108f28a6027614f8f565b836017602002015250505050565b614b706040518061016001604052805f81526020015f81526020015f81526020015f81526020015f81526020015f81526020015f81526020015f81526020015f81526020015f81526020015f81525090565b5f6040518060800160405280614ba57f10dc6e9c006ea38b04b1e03b4bd9490c0d03f98929ca1d7fb56821fd19d3b6e76125d7565b8152602001614bd37f0c28145b6a44df3e0149b3d0a30b3bb599df9756d4dd9b84a86b38cfb45a740b6125d7565b8152602001614c007e544b8338791518b2c7645a50392798b21f75bb60e3596170067d00141cac156125d7565b8152602001614c2e7f222c01175718386f2e2e82eb122789e352e105a3b8fa852613bc534433ee428b6125d7565b90529050614c4b614c4086601c614f8f565b6108d4876002614f8f565b6101208301819052614c8a90614c7f90614c7490614c6990806125ef565b8561012001516125ef565b8461012001516125ef565b8361012001516125ef565b8252614c9785601d614f8f565b6020830152614ca785601e614f8f565b6040830152614cb785601f614f8f565b606083015281516020830151614cdf9161453991614cd5919061260a565b846040015161260a565b6080830152614cf26136be86600d614f8f565b6101408301528151614d1390614d0990835f610b7d565b836080015161260a565b60a0830152614d3f84601860200201516108d48461014001516108cf8660a001516108f28b6024614f8f565b6103008501526020820151614d5a90614d0990836001610b7d565b60c0830152614d8684601960200201516108d48461014001516108cf8660c001516108f28b6025614f8f565b6103208501526040820151614da190614d0990836002610b7d565b60e0830152614dcd84601a60200201516108d48461014001516108cf8660e001516108f28b6026614f8f565b6103408501526060820151614de890614d0990836003610b7d565b610100830152614e1684601b60200201516108d48461014001516108cf8661010001516108f28b6027614f8f565b84601b613545565b815160015b601c811015614e7057614e66826108d48684601c8110614e4557614e45615ada565b602002015186614e56600187615562565b601b8110610b7d57610b7d615ada565b9150600101614e23565b5092915050565b5f5f8390505f60405160208152602080820152602060408201528260608201528460808201525f516020615c355f395f51905f5260a082015260205f60c08360055afa80614ec3575f5ffd5b505f5160809190910160405295945050505050565b614ee06152a2565b614ee86152a2565b604051835181526020840151602082015284604082015260408160608360075afa80614f12575f5ffd5b5080518252602080820151908301526060016040529392505050565b614f366152a2565b614f3e6152a2565b6040518451815260208501516020820152835160408201526020840151606082015260408160808360065afa80614f73575f5ffd5b5080518252602080820151908301526080016040529392505050565b5f82826028811115614fa357614fa3615bc0565b60298110614fb357614fb3615ada565b60200201519392505050565b604051806103e001604052805f81526020015f81526020015f8152602001614fe56152a2565b8152602001614ff26152a2565b8152602001614fff6152a2565b815260200161500c6152a2565b81526020016150196152a2565b81526020016150266152a2565b81526020016150336152a2565b81526020016150406152a2565b815260200161504d6152a2565b815260200161505a6152a2565b81526020016150676152a2565b81526020016150746152a2565b81526020016150816152a2565b815260200161508e6152a2565b815260200161509b6152a2565b81526020016150a86152a2565b81526020016150b56152a2565b81526020016150c26152a2565b81526020016150cf6152a2565b81526020016150dc6152a2565b81526020016150e96152a2565b81526020016150f66152a2565b81526020016151036152a2565b81526020016151106152a2565b815260200161511d6152a2565b815260200161512a6152a2565b81526020016151376152a2565b81526020016151446152a2565b905290565b604051806102a0016040528061515d61536e565b815260200161516a6152a2565b81526020016151776152a2565b81526020016151846152a2565b81526020016151916152a2565b815260200161519e6152a2565b81526020016151ab6152a2565b81526020016151b86152a2565b81526020016151c56152a2565b81526020016151d261538d565b81526020015f81526020016151e56153ba565b81526020016151f26153e8565b81526020015f81526020016152056152a2565b81526020015f8152602001615218615407565b81526020016152256152ec565b815260200161512a615435565b604051806101c001604052805f81526020015f81526020015f81526020015f81526020015f81526020015f81526020015f8152602001615270615435565b815260200161527d615435565b81526020015f81526020015f81526020015f81526020015f8152602001606081525090565b60405180604001604052805f81526020015f81525090565b60405180604001604052806151376152a2565b6040518061012001604052806009906020820280368337509192915050565b604051806103800160405280601c906020820280368337509192915050565b6040518060e0016040528061531e615453565b81526020015f81526020015f81526020015f81526020015f8152602001615343615453565b81526020015f81525090565b6040518061010001604052806008906020820280368337509192915050565b6040518061020001604052806010906020820280368337509192915050565b60405180606001604052806003905b6153a46152a2565b81526020019060019003908161539c5790505090565b604051806103800160405280601c905b6153d26152cd565b8152602001906001900390816153ca5790505090565b6040518061052001604052806029906020820280368337509192915050565b604051806103600160405280601b905b61541f6152a2565b8152602001906001900390816154175790505090565b60405180608001604052806004906020820280368337509192915050565b604051806120000160405280610100906020820280368337509192915050565b5f5f5f5f60408587031215615486575f5ffd5b84356001600160401b0381111561549b575f5ffd5b8501601f810187136154ab575f5ffd5b80356001600160401b038111156154c0575f5ffd5b8760208284010111156154d1575f5ffd5b6020918201955093508501356001600160401b038111156154f0575f5ffd5b8501601f81018713615500575f5ffd5b80356001600160401b03811115615515575f5ffd5b8760208260051b8401011115615529575f5ffd5b949793965060200194505050565b634e487b7160e01b5f52601160045260245ffd5b808202811582820484141761260457612604615537565b8181038181111561260457612604615537565b805f5b601081101561317c578151845260209384019390910190600101615578565b80518252602090810151910152565b805f5b600381101561317c576155bd848351615597565b60409390930192602091909101906001016155a9565b805f5b601c81101561317c578151845f5b60098110156156035782518252602092830192909101906001016155e4565b5050506101209390930192602091909101906001016155d6565b805f5b602981101561317c578151845260209384019390910190600101615620565b805f5b601b81101561317c57615656848351615597565b6040939093019260209190910190600101615642565b805f5b601c81101561317c57815184526020938401939091019060010161566f565b805f5b600481101561317c578151845260209384019390910190600101615691565b8183525f6001600160fb1b038311156156c7575f5ffd5b8260051b80836020870137939093016020019392505050565b6156eb818851615575565b5f60208801516156ff610200840182615597565b506040880151615713610240840182615597565b506060880151615727610280840182615597565b50608088015161573b6102c0840182615597565b5060a088015161574f610300840182615597565b5060c0880151615763610340840182615597565b5060e0880151615777610380840182615597565b5061010088015161578c6103c0840182615597565b506101208801516157a16104008401826155a6565b506101408801516104c08301526101608801516157c26104e08401826155d3565b506101808801516157d761246084018261561d565b506101a08801516129808301526101c08801516157f86129a0840182615597565b506101e08801516129e0830152610200880151615819612a0084018261563f565b5061022088015161582e6130c084018261566c565b5061024088015161584361344084018261568e565b506102608801516158586134c0840182615597565b5061028088015161586d613500840182615597565b506135c06135408301526158866135c0830187896156b0565b613560830195909552506135808101929092526135a0909101529392505050565b634e487b7160e01b5f52604160045260245ffd5b60405161014081016001600160401b03811182821017156158de576158de6158a7565b60405290565b604051601f8201601f191681016001600160401b038111828210171561590c5761590c6158a7565b604052919050565b5f60c08284031215615924575f5ffd5b60405160c081016001600160401b0381118282101715615946576159466158a7565b604090815283518252602080850151908301528381015190820152606080840151908201526080808401519082015260a0928301519281019290925250919050565b5f82601f830112615997575f5ffd5b5f6103606159a4816158e4565b9150830181858211156159b5575f5ffd5b845b828110156159cf5780518252602091820191016159b7565b509195945050505050565b5f82601f8301126159e9575f5ffd5b5f6103806159a4816158e4565b5f610be0828403128015615a08575f5ffd5b50615a116158bb565b615a1b8484615914565b8152615a2a8460c08501615988565b6020820152615a3d8461042085016159da565b60408201526107a08301516060820152615a5b846107c085016159da565b6080820152610b4083015160a0820152610b6083015160c0820152610b8083015160e0820152610ba0830151610100820152610bc09092015161012083015250919050565b8082018082111561260457612604615537565b5f5f85851115615ac1575f5ffd5b83861115615acd575f5ffd5b5050820193919092039150565b634e487b7160e01b5f52603260045260245ffd5b5f60018201615aff57615aff615537565b5060010190565b80356020831015612604575f19602084900360031b1b1692915050565b5f82615b3d57634e487b7160e01b5f52601260045260245ffd5b500690565b5f81615b5057615b50615537565b505f190190565b5f8183825b6008811015615b7b578151835260209283019290910190600101615b5c565b5050506101008201905092915050565b5f82518060208501845e5f920191825250919050565b5f60208284031215615bb1575f5ffd5b815180151581146103dd575f5ffd5b634e487b7160e01b5f52602160045260245ffdfe30644e72e131a029b85045b68181585d2833e84879b9709143e1f593effffd3130644e72e131a029b85045b68181585d97816a916871ca8d3c208c16d87cfd47204bd3277422fad364751ad938e2b5e6a54cf8c68712848a692c553d0329f5d630644e72e131a029b85045b68181585d2833e84879b9709143e1f593f000000130644e72e131a029b85045b68181585d2833e84879b9709143e1f593efffec51a2646970667358221220245451603e7ad9285fd20279bd363ee73f8a027caa8d9df765b700babf6700bb64736f6c634300081c0033",
  "linkReferences": {
    "project/contracts/reMint32Verifier.sol": {
      "ZKTranscriptLib": [
        {
          "length": 20,
          "start": 581
        }
      ]
    }
  },
  "deployedLinkReferences": {
    "project/contracts/reMint32Verifier.sol": {
      "ZKTranscriptLib": [
        {
          "length": 20,
          "start": 360
        }
      ]
    }
  },
  "immutableReferences": {
    "7763": [
      {
        "length": 32,
        "start": 91
      },
      {
        "length": 32,
        "start": 148
      },
      {
        "length": 32,
        "start": 257
      },
      {
        "length": 32,
        "start": 466
      },
      {
        "length": 32,
        "start": 2608
      },
      {
        "length": 32,
        "start": 2877
      },
      {
        "length": 32,
        "start": 3036
      },
      {
        "length": 32,
        "start": 3082
      },
      {
        "length": 32,
        "start": 3216
      },
      {
        "length": 32,
        "start": 5412
      },
      {
        "length": 32,
        "start": 5587
      },
      {
        "length": 32,
        "start": 5638
      },
      {
        "length": 32,
        "start": 6160
      },
      {
        "length": 32,
        "start": 11079
      },
      {
        "length": 32,
        "start": 11850
      }
    ],
    "7765": [
      {
        "length": 32,
        "start": 398
      }
    ],
    "7767": [
      {
        "length": 32,
        "start": 432
      },
      {
        "length": 32,
        "start": 2306
      }
    ]
  },
  "inputSourceName": "project/contracts/reMint32Verifier.sol",
  "buildInfoId": "solc-0_8_28-3cb2d25494973772a1c1e01ba34dccae4faa1247"
}