{
  "_format": "hh3-artifact-1",
  "contractName": "WormholeToken",
  "sourceName": "contracts/WormholeToken.sol",
  "abi": [
    {
      "inputs": [
        {
          "internalType": "address",
          "name": "_privateTransferVerifier2In",
          "type": "address"
        },
        {
          "internalType": "address",
          "name": "_privateTransferVerifier100In",
          "type": "address"
        }
      ],
      "stateMutability": "nonpayable",
      "type": "constructor"
    },
    {
      "inputs": [
        {
          "internalType": "address",
          "name": "spender",
          "type": "address"
        },
        {
          "internalType": "uint256",
          "name": "allowance",
          "type": "uint256"
        },
        {
          "internalType": "uint256",
          "name": "needed",
          "type": "uint256"
        }
      ],
      "name": "ERC20InsufficientAllowance",
      "type": "error"
    },
    {
      "inputs": [
        {
          "internalType": "address",
          "name": "sender",
          "type": "address"
        },
        {
          "internalType": "uint256",
          "name": "balance",
          "type": "uint256"
        },
        {
          "internalType": "uint256",
          "name": "needed",
          "type": "uint256"
        }
      ],
      "name": "ERC20InsufficientBalance",
      "type": "error"
    },
    {
      "inputs": [
        {
          "internalType": "address",
          "name": "approver",
          "type": "address"
        }
      ],
      "name": "ERC20InvalidApprover",
      "type": "error"
    },
    {
      "inputs": [
        {
          "internalType": "address",
          "name": "receiver",
          "type": "address"
        }
      ],
      "name": "ERC20InvalidReceiver",
      "type": "error"
    },
    {
      "inputs": [
        {
          "internalType": "address",
          "name": "sender",
          "type": "address"
        }
      ],
      "name": "ERC20InvalidSender",
      "type": "error"
    },
    {
      "inputs": [
        {
          "internalType": "address",
          "name": "spender",
          "type": "address"
        }
      ],
      "name": "ERC20InvalidSpender",
      "type": "error"
    },
    {
      "inputs": [],
      "name": "InvalidShortString",
      "type": "error"
    },
    {
      "inputs": [
        {
          "internalType": "string",
          "name": "str",
          "type": "string"
        }
      ],
      "name": "StringTooLong",
      "type": "error"
    },
    {
      "inputs": [],
      "name": "VerificationFailed",
      "type": "error"
    },
    {
      "anonymous": false,
      "inputs": [
        {
          "indexed": true,
          "internalType": "address",
          "name": "owner",
          "type": "address"
        },
        {
          "indexed": true,
          "internalType": "address",
          "name": "spender",
          "type": "address"
        },
        {
          "indexed": false,
          "internalType": "uint256",
          "name": "value",
          "type": "uint256"
        }
      ],
      "name": "Approval",
      "type": "event"
    },
    {
      "anonymous": false,
      "inputs": [],
      "name": "EIP712DomainChanged",
      "type": "event"
    },
    {
      "anonymous": false,
      "inputs": [
        {
          "indexed": false,
          "internalType": "uint256",
          "name": "leaf",
          "type": "uint256"
        }
      ],
      "name": "NewLeaf",
      "type": "event"
    },
    {
      "anonymous": false,
      "inputs": [
        {
          "indexed": true,
          "internalType": "uint256",
          "name": "nullifier",
          "type": "uint256"
        },
        {
          "indexed": false,
          "internalType": "bytes",
          "name": "encryptedTotalSpends",
          "type": "bytes"
        }
      ],
      "name": "Nullified",
      "type": "event"
    },
    {
      "anonymous": false,
      "inputs": [
        {
          "indexed": true,
          "internalType": "address",
          "name": "from",
          "type": "address"
        },
        {
          "indexed": true,
          "internalType": "address",
          "name": "to",
          "type": "address"
        },
        {
          "indexed": false,
          "internalType": "uint256",
          "name": "value",
          "type": "uint256"
        }
      ],
      "name": "Transfer",
      "type": "event"
    },
    {
      "inputs": [],
      "name": "TOTAL_BURNED_DOMAIN",
      "outputs": [
        {
          "internalType": "uint256",
          "name": "",
          "type": "uint256"
        }
      ],
      "stateMutability": "view",
      "type": "function"
    },
    {
      "inputs": [
        {
          "components": [
            {
              "internalType": "uint256",
              "name": "tokensPerEthPrice",
              "type": "uint256"
            },
            {
              "internalType": "uint256",
              "name": "maxFee",
              "type": "uint256"
            },
            {
              "internalType": "uint256",
              "name": "amountForRecipient",
              "type": "uint256"
            },
            {
              "internalType": "uint256",
              "name": "relayerBonus",
              "type": "uint256"
            },
            {
              "internalType": "uint256",
              "name": "estimatedGasCost",
              "type": "uint256"
            },
            {
              "internalType": "uint256",
              "name": "estimatedPriorityFee",
              "type": "uint256"
            },
            {
              "internalType": "address",
              "name": "refundAddress",
              "type": "address"
            },
            {
              "internalType": "address",
              "name": "relayerAddress",
              "type": "address"
            }
          ],
          "internalType": "struct FeeData",
          "name": "_feeData",
          "type": "tuple"
        },
        {
          "internalType": "uint256",
          "name": "_amountToReMint",
          "type": "uint256"
        }
      ],
      "name": "_calculateFee",
      "outputs": [
        {
          "internalType": "uint256",
          "name": "",
          "type": "uint256"
        },
        {
          "internalType": "uint256",
          "name": "",
          "type": "uint256"
        }
      ],
      "stateMutability": "view",
      "type": "function"
    },
    {
      "inputs": [
        {
          "internalType": "uint256",
          "name": "_root",
          "type": "uint256"
        },
        {
          "internalType": "uint256",
          "name": "_amount",
          "type": "uint256"
        },
        {
          "internalType": "bytes32",
          "name": "_signatureHash",
          "type": "bytes32"
        },
        {
          "internalType": "uint256[]",
          "name": "_accountNoteHashes",
          "type": "uint256[]"
        },
        {
          "internalType": "uint256[]",
          "name": "_accountNoteNullifiers",
          "type": "uint256[]"
        }
      ],
      "name": "_formatPublicInputs",
      "outputs": [
        {
          "internalType": "bytes32[]",
          "name": "",
          "type": "bytes32[]"
        }
      ],
      "stateMutability": "pure",
      "type": "function"
    },
    {
      "inputs": [
        {
          "components": [
            {
              "internalType": "address",
              "name": "recipient",
              "type": "address"
            },
            {
              "internalType": "uint256",
              "name": "amountToReMint",
              "type": "uint256"
            },
            {
              "internalType": "bytes",
              "name": "callData",
              "type": "bytes"
            },
            {
              "internalType": "bool",
              "name": "callCanFail",
              "type": "bool"
            },
            {
              "internalType": "uint256",
              "name": "callValue",
              "type": "uint256"
            },
            {
              "internalType": "bytes[]",
              "name": "encryptedTotalSpends",
              "type": "bytes[]"
            }
          ],
          "internalType": "struct SignatureInputs",
          "name": "_signatureInputs",
          "type": "tuple"
        }
      ],
      "name": "_hashSignatureInputs",
      "outputs": [
        {
          "internalType": "bytes32",
          "name": "",
          "type": "bytes32"
        }
      ],
      "stateMutability": "view",
      "type": "function"
    },
    {
      "inputs": [
        {
          "components": [
            {
              "internalType": "address",
              "name": "recipient",
              "type": "address"
            },
            {
              "internalType": "uint256",
              "name": "amountToReMint",
              "type": "uint256"
            },
            {
              "internalType": "bytes",
              "name": "callData",
              "type": "bytes"
            },
            {
              "internalType": "bool",
              "name": "callCanFail",
              "type": "bool"
            },
            {
              "internalType": "uint256",
              "name": "callValue",
              "type": "uint256"
            },
            {
              "internalType": "bytes[]",
              "name": "encryptedTotalSpends",
              "type": "bytes[]"
            }
          ],
          "internalType": "struct SignatureInputs",
          "name": "_signatureInputs",
          "type": "tuple"
        },
        {
          "components": [
            {
              "internalType": "uint256",
              "name": "tokensPerEthPrice",
              "type": "uint256"
            },
            {
              "internalType": "uint256",
              "name": "maxFee",
              "type": "uint256"
            },
            {
              "internalType": "uint256",
              "name": "amountForRecipient",
              "type": "uint256"
            },
            {
              "internalType": "uint256",
              "name": "relayerBonus",
              "type": "uint256"
            },
            {
              "internalType": "uint256",
              "name": "estimatedGasCost",
              "type": "uint256"
            },
            {
              "internalType": "uint256",
              "name": "estimatedPriorityFee",
              "type": "uint256"
            },
            {
              "internalType": "address",
              "name": "refundAddress",
              "type": "address"
            },
            {
              "internalType": "address",
              "name": "relayerAddress",
              "type": "address"
            }
          ],
          "internalType": "struct FeeData",
          "name": "_feeData",
          "type": "tuple"
        }
      ],
      "name": "_hashSignatureInputsRelayer",
      "outputs": [
        {
          "internalType": "bytes32",
          "name": "",
          "type": "bytes32"
        }
      ],
      "stateMutability": "view",
      "type": "function"
    },
    {
      "inputs": [
        {
          "internalType": "uint256",
          "name": "_amount",
          "type": "uint256"
        },
        {
          "internalType": "uint256[]",
          "name": "_accountNoteHashes",
          "type": "uint256[]"
        },
        {
          "internalType": "uint256[]",
          "name": "_accountNoteNullifiers",
          "type": "uint256[]"
        },
        {
          "internalType": "uint256",
          "name": "_root",
          "type": "uint256"
        },
        {
          "internalType": "bytes",
          "name": "_snarkProof",
          "type": "bytes"
        },
        {
          "internalType": "bytes[]",
          "name": "_encryptedTotalSpends",
          "type": "bytes[]"
        },
        {
          "internalType": "bytes32",
          "name": "signatureHash",
          "type": "bytes32"
        }
      ],
      "name": "_verifyReMint",
      "outputs": [],
      "stateMutability": "nonpayable",
      "type": "function"
    },
    {
      "inputs": [
        {
          "internalType": "address",
          "name": "owner",
          "type": "address"
        },
        {
          "internalType": "address",
          "name": "spender",
          "type": "address"
        }
      ],
      "name": "allowance",
      "outputs": [
        {
          "internalType": "uint256",
          "name": "",
          "type": "uint256"
        }
      ],
      "stateMutability": "view",
      "type": "function"
    },
    {
      "inputs": [],
      "name": "amountFreeTokens",
      "outputs": [
        {
          "internalType": "uint256",
          "name": "",
          "type": "uint256"
        }
      ],
      "stateMutability": "view",
      "type": "function"
    },
    {
      "inputs": [
        {
          "internalType": "address",
          "name": "spender",
          "type": "address"
        },
        {
          "internalType": "uint256",
          "name": "value",
          "type": "uint256"
        }
      ],
      "name": "approve",
      "outputs": [
        {
          "internalType": "bool",
          "name": "",
          "type": "bool"
        }
      ],
      "stateMutability": "nonpayable",
      "type": "function"
    },
    {
      "inputs": [
        {
          "internalType": "address",
          "name": "account",
          "type": "address"
        }
      ],
      "name": "balanceOf",
      "outputs": [
        {
          "internalType": "uint256",
          "name": "",
          "type": "uint256"
        }
      ],
      "stateMutability": "view",
      "type": "function"
    },
    {
      "inputs": [],
      "name": "decimals",
      "outputs": [
        {
          "internalType": "uint8",
          "name": "",
          "type": "uint8"
        }
      ],
      "stateMutability": "view",
      "type": "function"
    },
    {
      "inputs": [],
      "name": "decimalsTokenPrice",
      "outputs": [
        {
          "internalType": "uint256",
          "name": "",
          "type": "uint256"
        }
      ],
      "stateMutability": "view",
      "type": "function"
    },
    {
      "inputs": [],
      "name": "eip712Domain",
      "outputs": [
        {
          "internalType": "bytes1",
          "name": "fields",
          "type": "bytes1"
        },
        {
          "internalType": "string",
          "name": "name",
          "type": "string"
        },
        {
          "internalType": "string",
          "name": "version",
          "type": "string"
        },
        {
          "internalType": "uint256",
          "name": "chainId",
          "type": "uint256"
        },
        {
          "internalType": "address",
          "name": "verifyingContract",
          "type": "address"
        },
        {
          "internalType": "bytes32",
          "name": "salt",
          "type": "bytes32"
        },
        {
          "internalType": "uint256[]",
          "name": "extensions",
          "type": "uint256[]"
        }
      ],
      "stateMutability": "view",
      "type": "function"
    },
    {
      "inputs": [
        {
          "internalType": "address",
          "name": "_to",
          "type": "address"
        }
      ],
      "name": "getFreeTokens",
      "outputs": [],
      "stateMutability": "nonpayable",
      "type": "function"
    },
    {
      "inputs": [
        {
          "internalType": "uint256[3]",
          "name": "input",
          "type": "uint256[3]"
        }
      ],
      "name": "hashPoseidon2T3",
      "outputs": [
        {
          "internalType": "uint256",
          "name": "",
          "type": "uint256"
        }
      ],
      "stateMutability": "view",
      "type": "function"
    },
    {
      "inputs": [
        {
          "internalType": "uint256[6]",
          "name": "input",
          "type": "uint256[6]"
        }
      ],
      "name": "hashPoseidon2T6",
      "outputs": [
        {
          "internalType": "uint256",
          "name": "",
          "type": "uint256"
        }
      ],
      "stateMutability": "view",
      "type": "function"
    },
    {
      "inputs": [],
      "name": "name",
      "outputs": [
        {
          "internalType": "string",
          "name": "",
          "type": "string"
        }
      ],
      "stateMutability": "view",
      "type": "function"
    },
    {
      "inputs": [
        {
          "internalType": "uint256",
          "name": "",
          "type": "uint256"
        }
      ],
      "name": "nullifiers",
      "outputs": [
        {
          "internalType": "uint256",
          "name": "",
          "type": "uint256"
        }
      ],
      "stateMutability": "view",
      "type": "function"
    },
    {
      "inputs": [
        {
          "internalType": "uint256[]",
          "name": "_accountNoteHashes",
          "type": "uint256[]"
        },
        {
          "internalType": "uint256[]",
          "name": "_accountNoteNullifiers",
          "type": "uint256[]"
        },
        {
          "internalType": "uint256",
          "name": "_root",
          "type": "uint256"
        },
        {
          "internalType": "bytes",
          "name": "_snarkProof",
          "type": "bytes"
        },
        {
          "components": [
            {
              "internalType": "address",
              "name": "recipient",
              "type": "address"
            },
            {
              "internalType": "uint256",
              "name": "amountToReMint",
              "type": "uint256"
            },
            {
              "internalType": "bytes",
              "name": "callData",
              "type": "bytes"
            },
            {
              "internalType": "bool",
              "name": "callCanFail",
              "type": "bool"
            },
            {
              "internalType": "uint256",
              "name": "callValue",
              "type": "uint256"
            },
            {
              "internalType": "bytes[]",
              "name": "encryptedTotalSpends",
              "type": "bytes[]"
            }
          ],
          "internalType": "struct SignatureInputs",
          "name": "_signatureInputs",
          "type": "tuple"
        }
      ],
      "name": "privateReMint",
      "outputs": [],
      "stateMutability": "nonpayable",
      "type": "function"
    },
    {
      "inputs": [
        {
          "internalType": "uint256[]",
          "name": "_accountNoteHashes",
          "type": "uint256[]"
        },
        {
          "internalType": "uint256[]",
          "name": "_accountNoteNullifiers",
          "type": "uint256[]"
        },
        {
          "internalType": "uint256",
          "name": "_root",
          "type": "uint256"
        },
        {
          "internalType": "bytes",
          "name": "_snarkProof",
          "type": "bytes"
        },
        {
          "components": [
            {
              "internalType": "address",
              "name": "recipient",
              "type": "address"
            },
            {
              "internalType": "uint256",
              "name": "amountToReMint",
              "type": "uint256"
            },
            {
              "internalType": "bytes",
              "name": "callData",
              "type": "bytes"
            },
            {
              "internalType": "bool",
              "name": "callCanFail",
              "type": "bool"
            },
            {
              "internalType": "uint256",
              "name": "callValue",
              "type": "uint256"
            },
            {
              "internalType": "bytes[]",
              "name": "encryptedTotalSpends",
              "type": "bytes[]"
            }
          ],
          "internalType": "struct SignatureInputs",
          "name": "_signatureInputs",
          "type": "tuple"
        },
        {
          "components": [
            {
              "internalType": "uint256",
              "name": "tokensPerEthPrice",
              "type": "uint256"
            },
            {
              "internalType": "uint256",
              "name": "maxFee",
              "type": "uint256"
            },
            {
              "internalType": "uint256",
              "name": "amountForRecipient",
              "type": "uint256"
            },
            {
              "internalType": "uint256",
              "name": "relayerBonus",
              "type": "uint256"
            },
            {
              "internalType": "uint256",
              "name": "estimatedGasCost",
              "type": "uint256"
            },
            {
              "internalType": "uint256",
              "name": "estimatedPriorityFee",
              "type": "uint256"
            },
            {
              "internalType": "address",
              "name": "refundAddress",
              "type": "address"
            },
            {
              "internalType": "address",
              "name": "relayerAddress",
              "type": "address"
            }
          ],
          "internalType": "struct FeeData",
          "name": "_feeData",
          "type": "tuple"
        }
      ],
      "name": "privateReMintRelayer",
      "outputs": [],
      "stateMutability": "nonpayable",
      "type": "function"
    },
    {
      "inputs": [],
      "name": "privateTransferVerifier100In",
      "outputs": [
        {
          "internalType": "address",
          "name": "",
          "type": "address"
        }
      ],
      "stateMutability": "view",
      "type": "function"
    },
    {
      "inputs": [],
      "name": "privateTransferVerifier2In",
      "outputs": [
        {
          "internalType": "address",
          "name": "",
          "type": "address"
        }
      ],
      "stateMutability": "view",
      "type": "function"
    },
    {
      "inputs": [],
      "name": "root",
      "outputs": [
        {
          "internalType": "uint256",
          "name": "",
          "type": "uint256"
        }
      ],
      "stateMutability": "view",
      "type": "function"
    },
    {
      "inputs": [
        {
          "internalType": "uint256",
          "name": "",
          "type": "uint256"
        }
      ],
      "name": "roots",
      "outputs": [
        {
          "internalType": "bool",
          "name": "",
          "type": "bool"
        }
      ],
      "stateMutability": "view",
      "type": "function"
    },
    {
      "inputs": [],
      "name": "symbol",
      "outputs": [
        {
          "internalType": "string",
          "name": "",
          "type": "string"
        }
      ],
      "stateMutability": "view",
      "type": "function"
    },
    {
      "inputs": [],
      "name": "totalSupply",
      "outputs": [
        {
          "internalType": "uint256",
          "name": "",
          "type": "uint256"
        }
      ],
      "stateMutability": "view",
      "type": "function"
    },
    {
      "inputs": [
        {
          "internalType": "address",
          "name": "to",
          "type": "address"
        },
        {
          "internalType": "uint256",
          "name": "value",
          "type": "uint256"
        }
      ],
      "name": "transfer",
      "outputs": [
        {
          "internalType": "bool",
          "name": "",
          "type": "bool"
        }
      ],
      "stateMutability": "nonpayable",
      "type": "function"
    },
    {
      "inputs": [
        {
          "internalType": "address",
          "name": "from",
          "type": "address"
        },
        {
          "internalType": "address",
          "name": "to",
          "type": "address"
        },
        {
          "internalType": "uint256",
          "name": "value",
          "type": "uint256"
        }
      ],
      "name": "transferFrom",
      "outputs": [
        {
          "internalType": "bool",
          "name": "",
          "type": "bool"
        }
      ],
      "stateMutability": "nonpayable",
      "type": "function"
    },
    {
      "inputs": [],
      "name": "tree",
      "outputs": [
        {
          "internalType": "uint256",
          "name": "size",
          "type": "uint256"
        },
        {
          "internalType": "uint256",
          "name": "depth",
          "type": "uint256"
        }
      ],
      "stateMutability": "view",
      "type": "function"
    },
    {
      "inputs": [],
      "name": "treeSize",
      "outputs": [
        {
          "internalType": "uint256",
          "name": "",
          "type": "uint256"
        }
      ],
      "stateMutability": "view",
      "type": "function"
    }
  ],
  "bytecode": "0x6101606040526100116012600a610328565b61001e90620f424061033d565b600a556008600b55348015610031575f5ffd5b506040516137843803806137848339810160408190526100509161036f565b6040805180820182526011808252703d35bbb7b936b437b632b996ba37b5b2b760791b60208084018290528451808601865260018152603160f81b8183015285518087018752938452838201929092528451808601909552600585526415d493521360da1b90850152919260036100c78382610438565b5060046100d48282610438565b506100e4915083905060056101b9565b610120526100f38160066101b9565b61014052815160208084019190912060e052815190820120610100524660a05261017f60e05161010051604080517f8b73c3c69bb8fe3d512ecc4cf759cc79239f7b179b0ffacaa9a75d522b39400f60208201529081019290925260608201524660808201523060a08201525f9060c00160405160208183030381529060405280519060200120905090565b60805250503060c052600c80546001600160a01b039384166001600160a01b031991821617909155600d805492909316911617905561054a565b5f6020835110156101d4576101cd836101eb565b90506101e5565b816101df8482610438565b5060ff90505b92915050565b5f5f829050601f8151111561021e578260405163305a27a960e01b815260040161021591906104f2565b60405180910390fd5b805161022982610527565b179392505050565b634e487b7160e01b5f52601160045260245ffd5b6001815b60018411156102805780850481111561026457610264610231565b600184161561027257908102905b60019390931c928002610249565b935093915050565b5f82610296575060016101e5565b816102a257505f6101e5565b81600181146102b857600281146102c2576102de565b60019150506101e5565b60ff8411156102d3576102d3610231565b50506001821b6101e5565b5060208310610133831016604e8410600b8410161715610301575081810a6101e5565b61030d5f198484610245565b805f190482111561032057610320610231565b029392505050565b5f61033660ff841683610288565b9392505050565b80820281158282048414176101e5576101e5610231565b80516001600160a01b038116811461036a575f5ffd5b919050565b5f5f60408385031215610380575f5ffd5b61038983610354565b915061039760208401610354565b90509250929050565b634e487b7160e01b5f52604160045260245ffd5b600181811c908216806103c857607f821691505b6020821081036103e657634e487b7160e01b5f52602260045260245ffd5b50919050565b601f82111561043357805f5260205f20601f840160051c810160208510156104115750805b601f840160051c820191505b81811015610430575f815560010161041d565b50505b505050565b81516001600160401b03811115610451576104516103a0565b6104658161045f84546103b4565b846103ec565b6020601f821160018114610497575f83156104805750848201515b5f19600385901b1c1916600184901b178455610430565b5f84815260208120601f198516915b828110156104c657878501518255602094850194600190920191016104a6565b50848210156104e357868401515f19600387901b60f8161c191681555b50505050600190811b01905550565b602081525f82518060208401528060208501604085015e5f604082850101526040601f19601f83011684010191505092915050565b805160208083015191908110156103e6575f1960209190910360031b1b16919050565b60805160a05160c05160e0516101005161012051610140516131e961059b5f395f61187501525f61184801525f61206c01525f61204401525f611f9f01525f611fc901525f611ff301526131e95ff3fe608060405234801561000f575f5ffd5b5060043610610168575f3560e01c806306fdde031461016c578063095ea7b31461018a5780631012c212146101ad57806310261805146101ce57806311bec319146101e357806318160ddd146101f657806323b872dd146101fe57806330d8c55d14610211578063313ce5671461021a5780633a53af40146102295780633d59e5e21461023c5780634a2ef36a1461024f5780634b164c0f1461026257806366678575146102825780636b2ee80b1461028b57806370a082311461029e57806377d066f7146102c65780637c32ba9d146102d957806384b0196e146103015780638c46f6261461031c5780638d1ddfb11461033c578063957b21db1461034457806395d89b4114610357578063a38535ff1461035f578063a9059cbb14610372578063c2b40ae414610385578063d21e82ab146103a7578063dd62ed3e146103c6578063ebf0c717146103d9578063fd54b228146103e1575b5f5ffd5b6101746103ef565b60405161018191906123d4565b60405180910390f35b61019d610198366004612401565b61047f565b6040519015158152602001610181565b6101c06b544f54414c5f4255524e454481565b604051908152602001610181565b6101e16101dc366004612586565b610498565b005b6101e16101f136600461265b565b610687565b6002546101c0565b61019d61020c36600461271d565b6106da565b6101c0600b5481565b60405160128152602001610181565b6101c0610237366004612757565b6106fd565b6101e161024a3660046127bd565b61079a565b6101c061025d3660046127d6565b6107a9565b610275610270366004612817565b6107da565b60405161018191906128cf565b6101c0600a5481565b6101c06102993660046128e1565b610b60565b6101c06102ac3660046127bd565b6001600160a01b03165f9081526020819052604090205490565b6101c06102d4366004612912565b610c50565b6102ec6102e736600461295e565b610d57565b60408051928352602083019190915201610181565b610309610ee6565b6040516101819796959493929190612989565b600c5461032f906001600160a01b031681565b6040516101819190612a1f565b600e546101c0565b600d5461032f906001600160a01b031681565b610174610f28565b6101e161036d366004612a73565b610f37565b61019d610380366004612401565b611173565b61019d610393366004612b4c565b60086020525f908152604090205460ff1681565b6101c06103b5366004612b4c565b60076020525f908152604090205481565b6101c06103d4366004612b63565b611180565b6101c06111aa565b600e54600f546102ec919082565b6060600380546103fe90612b8b565b80601f016020809104026020016040519081016040528092919081815260200182805461042a90612b8b565b80156104755780601f1061044c57610100808354040283529160200191610475565b820191905f5260205f20905b81548152906001019060200180831161045857829003601f168201915b5050505050905090565b5f3361048c818585611223565b60019150505b92915050565b5f5f6104a8838560200135610d57565b915091505f6104b78585610c50565b90506104d960208601358b8b8b8b8b6104d360a08d018d612bbd565b89610f37565b5f60016104ed610100870160e088016127bd565b6001600160a01b031603610502575033610516565b610513610100860160e087016127bd565b90505b604080516003808252608082019092525f916020820160608036833701905050905061054560208801886127bd565b815f8151811061055757610557612c02565b6001600160a01b039092166020928302919091019091015261057f60e0870160c088016127bd565b8160018151811061059257610592612c02565b60200260200101906001600160a01b031690816001600160a01b03168152505081816002815181106105c6576105c6612c02565b6001600160a01b0392909216602092830291909101820152604080516003808252608082019092525f9290919082016060803683370190505090508660400135815f8151811061061857610618612c02565b602002602001018181525050848160018151811061063857610638612c02565b602002602001018181525050858160028151811061065857610658612c02565b60200260200101818152505061066f82828f611235565b610678886113c5565b50505050505050505050505050565b5f61069182610b60565b90506106ad602083013588888888886104d360a08a018a612bbd565b6106c86106bd60208401846127bd565b8360200135896114dd565b6106d1826113c5565b50505050505050565b5f336106e78582856115ad565b6106f28585856115f8565b506001949350505050565b5f5f73382abef9789c1b5fee54c72bd9aaf7983726841c6001600160a01b03168360405160200161072e9190612c16565b60408051601f198184030181529082905261074891612c46565b5f60405180830381855afa9150503d805f8114610780576040519150601f19603f3d011682016040523d82523d5f602084013e610785565b606091505b509150508061079390612c5c565b9392505050565b6107a681600a54611655565b50565b5f5f73382abef9789c1b5fee54c72bd9aaf7983726841c6001600160a01b03168360405160200161072e9190612c7f565b60608251600203610973576040805160268082526104e082019092525f91602082016104c080368337019050509050865f1b815f8151811061081e5761081e612c02565b602002602001018181525050855f1b8160018151811061084057610840612c02565b602090810291909101015260025f5b60208110156108995786816020811061086a5761086a612c02565b1a836108768484612cba565b8151811061088657610886612c02565b602090810291909101015260010161084f565b505f6108a6826020612cba565b90505f5b8651811015610967578681815181106108c5576108c5612c02565b60200260200101515f1b84838360026108de9190612ccd565b6108e89190612cba565b815181106108f8576108f8612c02565b60200260200101818152505085818151811061091657610916612c02565b60200260200101515f1b848383600261092f9190612ccd565b6109399190612cba565b610944906001612cba565b8151811061095457610954612c02565b60209081029190910101526001016108aa565b50829350505050610b57565b8251606403610afe576040805160ea808252611d6082019092525f9160208201611d4080368337019050509050865f1b815f815181106109b5576109b5612c02565b602002602001018181525050855f1b816001815181106109d7576109d7612c02565b602090810291909101015260025f5b6020811015610a3057868160208110610a0157610a01612c02565b1a83610a0d8484612cba565b81518110610a1d57610a1d612c02565b60209081029190910101526001016109e6565b505f610a3d826020612cba565b90505f5b865181101561096757868181518110610a5c57610a5c612c02565b60200260200101515f1b8483836002610a759190612ccd565b610a7f9190612cba565b81518110610a8f57610a8f612c02565b602002602001018181525050858181518110610aad57610aad612c02565b60200260200101515f1b8483836002610ac69190612ccd565b610ad09190612cba565b610adb906001612cba565b81518110610aeb57610aeb612c02565b6020908102919091010152600101610a41565b60405162461bcd60e51b815260206004820152602360248201527f616d6f756e74206f66206e6f746520686173686573206e6f7420737570706f726044820152621d195960ea1b60648201526084015b60405180910390fd5b95945050505050565b5f807f3d3a509c00692f90c0933ff19f1afeff256c343909a9f31e9928531354bde17a610b9060208501856127bd565b6020850135610ba26040870187612ce4565b604051610bb0929190612d26565b604051908190039020610bc96080880160608901612d42565b6080880135610bec610bde60a08b018b612bbd565b610be791612d5d565b611689565b6040805160208101989098526001600160a01b039096169587019590955260608601939093526080850191909152151560a084015260c083015260e08201526101000160405160208183030381529060405280519060200120905061079381611751565b5f807ff2fc19cedbbd5eaede9a71932423441438fbf780fb2abd90d2ed637ea6e82e84610c8060208601866127bd565b6020860135610c926040880188612ce4565b604051610ca0929190612d26565b604051908190039020610cb96080890160608a01612d42565b6080890135610cce610bde60a08c018c612bbd565b610ce5610ce0368c90038c018c612e1d565b61177d565b6040805160208101999099526001600160a01b039097169688019690965260608701949094526080860192909252151560a085015260c084015260e083015261010082015261012001604051602081830303815290604052805190602001209050610d4f81611751565b949350505050565b5f8080610d6860a086013548612cba565b610d76906080870135612ccd565b90505f8560600135600b54600a610d8d9190612f7a565b610d98883585612ccd565b610da29190612f85565b610dac9190612cba565b905085602001358110610dfb5760405162461bcd60e51b81526020600482015260176024820152760e4cad8c2f2cae440cccaca40d2e640e8dede40d0d2ced604b1b6044820152606401610b4e565b808511610e595760405162461bcd60e51b815260206004820152602660248201527f666565206973206d6f7265207468656e20616d6f756e74206265696e67207265604482015265135a5b9d195960d21b6064820152608401610b4e565b6040860135610e688287612fa4565b1015610ec75760405162461bcd60e51b815260206004820152602860248201527f6e6f7420656e6f756768206c656674206166746572206665657320666f7220726044820152671958da5c1a595b9d60c21b6064820152608401610b4e565b5f610ed6826020890135612fa4565b91945090925050505b9250929050565b5f6060805f5f5f6060610ef7611841565b610eff61186e565b604080515f80825260208201909252600f60f81b9b939a50919850469750309650945092509050565b6060600480546103fe90612b8b565b5f8681526008602052604090205460ff16610f835760405162461bcd60e51b815260206004820152600c60248201526b1a5b9d985b1a59081c9bdbdd60a21b6044820152606401610b4e565b5f5b875181101561107a575f888281518110610fa157610fa1612c02565b602002602001015190505f60075f8381526020019081526020015f2054146110055760405162461bcd60e51b81526020600482015260176024820152761b9d5b1b1a599a595c88185b1c9958591e48195e1a5cdd604a1b6044820152606401610b4e565b5f818152600760205260409020439055807fdea71a061c0e15a14191f2e29163dac18565965624c0422ba9025b541d0abc9986868581811061104957611049612c02565b905060200281019061105b9190612ce4565b604051611069929190612fdf565b60405180910390a250600101610f85565b505f611089878b848c8c6107da565b9050875160020361112a57600c54604051633a94343960e21b81526001600160a01b039091169063ea50d0e4906110c890899089908690600401612ff2565b6020604051808303815f875af11580156110e4573d5f5f3e3d5ffd5b505050506040513d601f19601f820116820180604052508101906111089190613021565b6111255760405163439cc0cd60e01b815260040160405180910390fd5b611167565b8751606403610afe57600d54604051633a94343960e21b81526001600160a01b039091169063ea50d0e4906110c890899089908690600401612ff2565b50505050505050505050565b5f3361048c8185856115f8565b6001600160a01b039182165f90815260016020908152604080832093909416825291909152205490565b604051637a3e5e1d60e11b8152600e60048201525f9073__$81047e2420497af1f397e161c4153f8e32$__9063f47cbc3a90602401602060405180830381865af41580156111fa573d5f5f3e3d5ffd5b505050506040513d601f19601f8201168201806040525081019061121e919061303c565b905090565b611230838383600161189b565b505050565b5f82516001600160401b0381111561124f5761124f612429565b604051908082528060200260200182016040528015611278578160200160208202803683370190505b5090505f5b84518110156113b3575f85828151811061129957611299612c02565b602002602001015190505f8583815181106112b6576112b6612c02565b602002602001015190505f6001600160a01b0316826001600160a01b0316036112f0576002805482900390556112eb8561196d565b61137c565b6001600160a01b0382165f90815260208190526040812054611313908390612cba565b6001600160a01b0384165f90815260208190526040902081905590505f5160206131545f395f51905f52811061135b5760405162461bcd60e51b8152600401610b4e90613053565b8085858151811061136e5761136e612c02565b602002602001018181525050505b6040518181526001600160a01b038316905f905f5160206131745f395f51905f529060200160405180910390a3505060010161127d565b506113bf848284611ad6565b50505050565b6113d26040820182612ce4565b15159050806113e457505f8160800135115b156107a6575f6113f760208301836127bd565b6001600160a01b031660808301356114126040850185612ce4565b604051611420929190612d26565b5f6040518083038185875af1925050503d805f811461145a576040519150601f19603f3d011682016040523d82523d5f602084013e61145f565b606091505b5090915061147590506080830160608401612d42565b8061147d5750805b6114d95760405162461bcd60e51b815260206004820152602760248201527f63616c6c206661696c656420616e6420776173206e6f7420616c6c6f776564206044820152661d1bc819985a5b60ca1b6064820152608401610b4e565b5050565b6001600160a01b038316611502576002805483900390556114fd8161196d565b61157a565b6001600160a01b0383165f90815260208190526040812054611525908490612cba565b6001600160a01b0385165f90815260208190526040902081905590505f5160206131545f395f51905f52811061156d5760405162461bcd60e51b8152600401610b4e90613053565b611578848284611cc4565b505b6040518281526001600160a01b038416905f905f5160206131745f395f51905f52906020015b60405180910390a3505050565b5f6115b88484611180565b90505f198110156113bf57818110156115ea57828183604051637dc7a0d960e11b8152600401610b4e93929190613098565b6113bf84848484035f61189b565b6001600160a01b038316611621575f604051634b637e8f60e11b8152600401610b4e9190612a1f565b6001600160a01b03821661164a575f60405163ec442f0560e01b8152600401610b4e9190612a1f565b611230838383611e47565b6001600160a01b03821661167e575f60405163ec442f0560e01b8152600401610b4e9190612a1f565b6114d95f8383611e47565b5f5f82516001600160401b038111156116a4576116a4612429565b6040519080825280602002602001820160405280156116cd578160200160208202803683370190505b5090505f5b8351811015611721578381815181106116ed576116ed612c02565b60200260200101518051906020012082828151811061170e5761170e612c02565b60209081029190910101526001016116d2565b508060405160200161173391906130b9565b60405160208183030381529060405280519060200120915050919050565b5f61049261175d611f93565b8360405161190160f01b8152600281019290925260228201526042902090565b5f7f23ebbcc1e130851ed075a3c8252e154cf333d2ba187b279850791bf66764188f825f015183602001518460400151856060015186608001518760a001518860c001518960e0015160405160200161182499989796959493929190988952602089019790975260408801959095526060870193909352608086019190915260a085015260c08401526001600160a01b0390811660e0840152166101008201526101200190565b604051602081830303815290604052805190602001209050919050565b606061121e7f000000000000000000000000000000000000000000000000000000000000000060056120bc565b606061121e7f000000000000000000000000000000000000000000000000000000000000000060066120bc565b6001600160a01b0384166118c4575f60405163e602df0560e01b8152600401610b4e9190612a1f565b6001600160a01b0383166118ed575f604051634a1406b160e11b8152600401610b4e9190612a1f565b6001600160a01b038085165f90815260016020908152604080832093871683529290522082905580156113bf57826001600160a01b0316846001600160a01b03167f8c5be1e5ebec7d5bd14f71427d1e84f3dd0314c0f7b2291e5b200ac8c7c3b9258460405161195f91815260200190565b60405180910390a350505050565b604051630649a08560e01b815273__$81047e2420497af1f397e161c4153f8e32$__90630649a085906119a790600e9085906004016130ee565b602060405180830381865af41580156119c2573d5f5f3e3d5ffd5b505050506040513d601f19601f820116820180604052508101906119e6919061303c565b505f5b8151811015611a39575f5160206131945f395f51905f52828281518110611a1257611a12612c02565b6020026020010151604051611a2991815260200190565b60405180910390a16001016119e9565b50604051637a3e5e1d60e11b8152600e60048201526001906008905f9073__$81047e2420497af1f397e161c4153f8e32$__9063f47cbc3a906024015b602060405180830381865af4158015611a91573d5f5f3e3d5ffd5b505050506040513d601f19601f82011682018060405250810190611ab5919061303c565b815260208101919091526040015f20805460ff191691151591909117905550565b5f81518451611ae59190612cba565b6001600160401b03811115611afc57611afc612429565b604051908082528060200260200182016040528015611b25578160200160208202803683370190505b5090505f805b8551811015611c5957858181518110611b4657611b46612c02565b60200260200101516001600160a01b0316326001600160a01b031614611c51575f611ba3878381518110611b7c57611b7c612c02565b6020026020010151878481518110611b9657611b96612c02565b6020026020010151612165565b60405163bc167a3160e01b8152600e60048201526024810182905290915073__$81047e2420497af1f397e161c4153f8e32$__9063bc167a3190604401602060405180830381865af4158015611bfb573d5f5f3e3d5ffd5b505050506040513d601f19601f82011682018060405250810190611c1f9190613021565b15611c4f57808484611c308161313b565b955081518110611c4257611c42612c02565b6020026020010181815250505b505b600101611b2b565b505f5b8351811015611cb057838181518110611c7757611c77612c02565b6020026020010151838380611c8b9061313b565b945081518110611c9d57611c9d612c02565b6020908102919091010152600101611c5c565b50808252611cbd8261196d565b5050505050565b6001600160a01b0383163203611cdd576112308161196d565b5f611ce88484612165565b60405163bc167a3160e01b8152600e60048201526024810182905290915073__$81047e2420497af1f397e161c4153f8e32$__9063bc167a3190604401602060405180830381865af4158015611d40573d5f5f3e3d5ffd5b505050506040513d601f19601f82011682018060405250810190611d649190613021565b15611d7757611d728261196d565b6113bf565b5f82516001611d869190612cba565b6001600160401b03811115611d9d57611d9d612429565b604051908082528060200260200182016040528015611dc6578160200160208202803683370190505b50905081815f81518110611ddc57611ddc612c02565b60209081029190910101525f5b8351811015611e3d57838181518110611e0457611e04612c02565b602002602001015182826001611e1a9190612cba565b81518110611e2a57611e2a612c02565b6020908102919091010152600101611de9565b50611cbd8161196d565b6001600160a01b038316611e71578060025f828254611e669190612cba565b90915550611ece9050565b6001600160a01b0383165f9081526020819052604090205481811015611eb05783818360405163391434e360e21b8152600401610b4e93929190613098565b6001600160a01b0384165f9081526020819052604090209082900390555b6001600160a01b038216611eea57600280548290039055611f61565b6001600160a01b0382165f90815260208190526040812054611f0d908390612cba565b90505f5160206131545f395f51905f528110611f3b5760405162461bcd60e51b8152600401610b4e90613053565b6001600160a01b0383165f908152602081905260409020819055611f5f838261219c565b505b816001600160a01b0316836001600160a01b03165f5160206131745f395f51905f52836040516115a091815260200190565b5f306001600160a01b037f000000000000000000000000000000000000000000000000000000000000000016148015611feb57507f000000000000000000000000000000000000000000000000000000000000000046145b1561201557507f000000000000000000000000000000000000000000000000000000000000000090565b61121e604080517f8b73c3c69bb8fe3d512ecc4cf759cc79239f7b179b0ffacaa9a75d522b39400f60208201527f0000000000000000000000000000000000000000000000000000000000000000918101919091527f000000000000000000000000000000000000000000000000000000000000000060608201524660808201523060a08201525f9060c00160405160208183030381529060405280519060200120905090565b606060ff83146120d6576120cf8361224a565b9050610492565b8180546120e290612b8b565b80601f016020809104026020016040519081016040528092919081815260200182805461210e90612b8b565b80156121595780601f1061213057610100808354040283529160200191612159565b820191905f5260205f20905b81548152906001019060200180831161213c57829003601f168201915b50505050509050610492565b5f61216e612388565b6001600160a01b0384168152602081018390526b544f54414c5f4255524e45446040820152610d4f816107a9565b6001600160a01b03821632036121b0575050565b5f6121bb8383612165565b60405163bc167a3160e01b8152600e60048201526024810182905290915073__$81047e2420497af1f397e161c4153f8e32$__9063bc167a3190604401602060405180830381865af4158015612213573d5f5f3e3d5ffd5b505050506040513d601f19601f820116820180604052508101906122379190613021565b1561224157505050565b61123081612287565b60605f61225683612361565b6040805160208082528183019092529192505f91906020820181803683375050509182525060208101929092525090565b604051632f85497160e01b8152600e60048201526024810182905273__$81047e2420497af1f397e161c4153f8e32$__90632f85497190604401602060405180830381865af41580156122dc573d5f5f3e3d5ffd5b505050506040513d601f19601f82011682018060405250810190612300919061303c565b506040518181525f5160206131945f395f51905f529060200160405180910390a1604051637a3e5e1d60e11b8152600e60048201526001906008905f9073__$81047e2420497af1f397e161c4153f8e32$__9063f47cbc3a90602401611a76565b5f60ff8216601f81111561049257604051632cd44ac360e21b815260040160405180910390fd5b60405180606001604052806003906020820280368337509192915050565b5f81518084528060208401602086015e5f602082860101526020601f19601f83011685010191505092915050565b602081525f61079360208301846123a6565b80356001600160a01b03811681146123fc575f5ffd5b919050565b5f5f60408385031215612412575f5ffd5b61241b836123e6565b946020939093013593505050565b634e487b7160e01b5f52604160045260245ffd5b60405161010081016001600160401b038111828210171561246057612460612429565b60405290565b604051601f8201601f191681016001600160401b038111828210171561248e5761248e612429565b604052919050565b5f6001600160401b038211156124ae576124ae612429565b5060051b60200190565b5f82601f8301126124c7575f5ffd5b81356124da6124d582612496565b612466565b8082825260208201915060208360051b8601019250858311156124fb575f5ffd5b602085015b83811015612518578035835260209283019201612500565b5095945050505050565b5f5f83601f840112612532575f5ffd5b5081356001600160401b03811115612548575f5ffd5b602083019150836020828501011115610edf575f5ffd5b5f60c0828403121561256f575f5ffd5b50919050565b5f610100828403121561256f575f5ffd5b5f5f5f5f5f5f5f6101a0888a03121561259d575f5ffd5b87356001600160401b038111156125b2575f5ffd5b6125be8a828b016124b8565b97505060208801356001600160401b038111156125d9575f5ffd5b6125e58a828b016124b8565b9650506040880135945060608801356001600160401b03811115612607575f5ffd5b6126138a828b01612522565b90955093505060808801356001600160401b03811115612631575f5ffd5b61263d8a828b0161255f565b92505061264d8960a08a01612575565b905092959891949750929550565b5f5f5f5f5f5f60a08789031215612670575f5ffd5b86356001600160401b03811115612685575f5ffd5b61269189828a016124b8565b96505060208701356001600160401b038111156126ac575f5ffd5b6126b889828a016124b8565b9550506040870135935060608701356001600160401b038111156126da575f5ffd5b6126e689828a01612522565b90945092505060808701356001600160401b03811115612704575f5ffd5b61271089828a0161255f565b9150509295509295509295565b5f5f5f6060848603121561272f575f5ffd5b612738846123e6565b9250612746602085016123e6565b929592945050506040919091013590565b5f60c08284031215612767575f5ffd5b5f83601f840112612776575f5ffd5b505f8061278360c0612466565b905080915060c0840185811115612798575f5ffd5b845b818110156127b257803584526020938401930161279a565b509095945050505050565b5f602082840312156127cd575f5ffd5b610793826123e6565b5f606082840312156127e6575f5ffd5b5f83601f8401126127f5575f5ffd5b505f806128026060612466565b90508091506060840185811115612798575f5ffd5b5f5f5f5f5f60a0868803121561282b575f5ffd5b85359450602086013593506040860135925060608601356001600160401b03811115612855575f5ffd5b612861888289016124b8565b92505060808601356001600160401b0381111561287c575f5ffd5b612888888289016124b8565b9150509295509295909350565b5f8151808452602084019350602083015f5b828110156128c55781518652602095860195909101906001016128a7565b5093949350505050565b602081525f6107936020830184612895565b5f602082840312156128f1575f5ffd5b81356001600160401b03811115612906575f5ffd5b610d4f8482850161255f565b5f5f6101208385031215612924575f5ffd5b82356001600160401b03811115612939575f5ffd5b6129458582860161255f565b9250506129558460208501612575565b90509250929050565b5f5f6101208385031215612970575f5ffd5b61297a8484612575565b94610100939093013593505050565b60ff60f81b8816815260e060208201525f6129a760e08301896123a6565b82810360408401526129b981896123a6565b606084018890526001600160a01b038716608085015260a0840186905283810360c0850152845180825260208087019350909101905f5b81811015612a0e5783518352602093840193909201916001016129f0565b50909b9a5050505050505050505050565b6001600160a01b0391909116815260200190565b5f5f83601f840112612a43575f5ffd5b5081356001600160401b03811115612a59575f5ffd5b6020830191508360208260051b8501011115610edf575f5ffd5b5f5f5f5f5f5f5f5f5f60e08a8c031215612a8b575f5ffd5b8935985060208a01356001600160401b03811115612aa7575f5ffd5b612ab38c828d016124b8565b98505060408a01356001600160401b03811115612ace575f5ffd5b612ada8c828d016124b8565b97505060608a0135955060808a01356001600160401b03811115612afc575f5ffd5b612b088c828d01612522565b90965094505060a08a01356001600160401b03811115612b26575f5ffd5b612b328c828d01612a33565b9a9d999c50979a9699959894979660c00135949350505050565b5f60208284031215612b5c575f5ffd5b5035919050565b5f5f60408385031215612b74575f5ffd5b612b7d836123e6565b9150612955602084016123e6565b600181811c90821680612b9f57607f821691505b60208210810361256f57634e487b7160e01b5f52602260045260245ffd5b5f5f8335601e19843603018112612bd2575f5ffd5b8301803591506001600160401b03821115612beb575f5ffd5b6020019150600581901b3603821315610edf575f5ffd5b634e487b7160e01b5f52603260045260245ffd5b60c0810181835f5b6006811015612c3d578151835260209283019290910190600101612c1e565b50505092915050565b5f82518060208501845e5f920191825250919050565b8051602080830151919081101561256f575f1960209190910360031b1b16919050565b6060810181835f5b6003811015612c3d578151835260209283019290910190600101612c87565b634e487b7160e01b5f52601160045260245ffd5b8082018082111561049257610492612ca6565b808202811582820484141761049257610492612ca6565b5f5f8335601e19843603018112612cf9575f5ffd5b8301803591506001600160401b03821115612d12575f5ffd5b602001915036819003821315610edf575f5ffd5b818382375f9101908152919050565b80151581146107a6575f5ffd5b5f60208284031215612d52575f5ffd5b813561079381612d35565b5f612d6a6124d584612496565b8381526020810190600585901b840136811115612d85575f5ffd5b845b818110156127b25780356001600160401b03811115612da4575f5ffd5b860136601f820112612db4575f5ffd5b80356001600160401b03811115612dcd57612dcd612429565b612de0601f8201601f1916602001612466565b818152366020838501011115612df4575f5ffd5b816020840160208301375f60208383010152808752505050602084019350602081019050612d87565b5f610100828403128015612e2f575f5ffd5b50612e3861243d565b823581526020808401359082015260408084013590820152606080840135908201526080808401359082015260a08084013590820152612e7a60c084016123e6565b60c0820152612e8b60e084016123e6565b60e08201529392505050565b6001815b6001841115612ed257808504811115612eb657612eb6612ca6565b6001841615612ec457908102905b60019390931c928002612e9b565b935093915050565b5f82612ee857506001610492565b81612ef457505f610492565b8160018114612f0a5760028114612f1457612f30565b6001915050610492565b60ff841115612f2557612f25612ca6565b50506001821b610492565b5060208310610133831016604e8410600b8410161715612f53575081810a610492565b612f5f5f198484612e97565b805f1904821115612f7257612f72612ca6565b029392505050565b5f6107938383612eda565b5f82612f9f57634e487b7160e01b5f52601260045260245ffd5b500490565b8181038181111561049257610492612ca6565b81835281816020850137505f828201602090810191909152601f909101601f19169091010190565b602081525f610d4f602083018486612fb7565b604081525f613005604083018587612fb7565b82810360208401526130178185612895565b9695505050505050565b5f60208284031215613031575f5ffd5b815161079381612d35565b5f6020828403121561304c575f5ffd5b5051919050565b60208082526025908201527f62616c616e63652063616e277420676f206f76657220746865204649454c4420604082015264131253525560da1b606082015260800190565b6001600160a01b039390931683526020830191909152604082015260600190565b81515f90829060208501835b828110156130e35781518452602093840193909101906001016130c5565b509195945050505050565b5f60408201848352604060208401528084518083526060850191506020860192505f5b8181101561312f578351835260209384019390920191600101613111565b50909695505050505050565b5f6001820161314c5761314c612ca6565b506001019056fe30644e72e131a029b85045b68181585d2833e84879b9709143e1f593f0000001ddf252ad1be2c89b69c2b068fc378daa952ba7f163c4a11628f55a4df523b3ef297d88d6449509e687c2769e1358fbeb521f447c0ec5786c512f8f9676b4d9b1a2646970667358221220de8399bbc11d9d5b3e4e6cc0e1b2d0b6f6e57d0fca74115d3220fc9843aadead64736f6c634300081c0033",
  "linkReferences": {
    "project/contracts/leanIMTPoseidon2.sol": {
      "leanIMTPoseidon2": [
        {
          "length": 20,
          "start": 5981
        },
        {
          "length": 20,
          "start": 7959
        },
        {
          "length": 20,
          "start": 8179
        },
        {
          "length": 20,
          "start": 8542
        },
        {
          "length": 20,
          "start": 8867
        },
        {
          "length": 20,
          "start": 10102
        },
        {
          "length": 20,
          "start": 10303
        },
        {
          "length": 20,
          "start": 10458
        }
      ]
    }
  },
  "deployedLinkReferences": {
    "project/contracts/leanIMTPoseidon2.sol": {
      "leanIMTPoseidon2": [
        {
          "length": 20,
          "start": 4546
        },
        {
          "length": 20,
          "start": 6524
        },
        {
          "length": 20,
          "start": 6744
        },
        {
          "length": 20,
          "start": 7107
        },
        {
          "length": 20,
          "start": 7432
        },
        {
          "length": 20,
          "start": 8667
        },
        {
          "length": 20,
          "start": 8868
        },
        {
          "length": 20,
          "start": 9023
        }
      ]
    }
  },
  "immutableReferences": {
    "2111": [
      {
        "length": 32,
        "start": 8179
      }
    ],
    "2113": [
      {
        "length": 32,
        "start": 8137
      }
    ],
    "2115": [
      {
        "length": 32,
        "start": 8095
      }
    ],
    "2117": [
      {
        "length": 32,
        "start": 8260
      }
    ],
    "2119": [
      {
        "length": 32,
        "start": 8300
      }
    ],
    "2122": [
      {
        "length": 32,
        "start": 6216
      }
    ],
    "2125": [
      {
        "length": 32,
        "start": 6261
      }
    ]
  },
  "inputSourceName": "project/contracts/WormholeToken.sol",
  "buildInfoId": "solc-0_8_28-da3b450eda7d7026e7b1540745940fc8021da62c"
}